:020000040800F2
:100000003050002029020008C10F0008590F0008D5
:10001000BD0F00082105000899120008000000002B
:100020000000000000000000000000004110000877
:100030002505000800000000D10F00086D10000821
:10004000430200084302000843020008430200087C
:10005000430200084302000843020008430200086C
:10006000430200084302000843020008430200085C
:10007000430200084302000843020008430200084C
:10008000430200084302000843020008430200083C
:10009000430200084302000843020008430200082C
:1000A000430200084302000843020008430200081C
:1000B000430200084302000843020008430200080C
:1000C00043020008430200084302000843020008FC
:1000D00043020008430200084302000843020008EC
:1000E00043020008430200084302000843020008DC
:1000F00043020008430200084302000843020008CC
:1001000043020008430200084302000843020008BB
:100110004302000843020008491100084302000896
:10012000430200084302000843020008430200089B
:10013000430200084302000843020008430200088B
:10014000430200084302000843020008430200087B
:10015000430200084302000843020008430200086B
:10016000430200084302000843020008430200085B
:100170004302000843020008430200080000000098
:10018000430200084302000800F002F800F03CF8C7
:100190000AA090E8000C82448344AAF10107DA45E2
:1001A00001D100F031F8AFF2090EBAE80F0013F0F8
:1001B000010F18BFFB1A43F001031847E038000095
:1001C00000390000103A24BF78C878C1FAD8520725
:1001D00024BF30C830C144BF04680C6070470000C1
:1001E0000023002400250026103A28BF78C1FBD840
:1001F000520728BF30C148BF0B6070471FB503F0DE
:10020000C6FB1FBD10B510BD00F04FF91146FFF73A
:10021000F5FF01F07FF800F06DF903B4FFF7F2FF8E
:1002200003BC00F075F90000094880470948004701
:10023000FEE7FEE7FEE7FEE7FEE7FEE7FEE7FEE796
:10024000FEE7FEE704480549054A064B70470000F3
:100250003511000889010008304A00203050002084
:10026000304C0020304C002053EA020C00F0698032
:100270002DE9F04B4FF00006002B1FBFB3FA83F5BA
:1002800003FA05F424FA05F65E4012BF1643B2FAEB
:1002900082F502FA05F4C5F120051EBF22FA05FC1D
:1002A00044EA0C04203556EA044C4FEA144418BFC3
:1002B000641C4FF000084FF00009904271EB030CF2
:1002C00039D3002919BFB1FA81F701FA07F6B0FA5C
:1002D00080F700FA07F6C7F120071EBF20FA07FCD7
:1002E00046EA0C062037B6FBF4FCA7EB0507103FE7
:1002F00007F01F0BCBF120062CFA06F60CFA0BFBCD
:1003000044BFB3460026202FA4BF5E464FF0000B2B
:100310005BEA060C08BF4FF0010B19EB0B0948EB29
:100320000608ABFB027C06FB02CC0BFB03CCC01B1C
:1003300071EB0C01C1E70B46024641464846BDE859
:10034000F08B13B5084318BF4FF0FF300146AFF3F1
:100350000080BDE81C407047032A40F2308010F056
:10036000030C00F0158011F8013BBCF1020F624450
:1003700098BF11F801CB00F8013B38BF11F8013BE1
:10038000A2F1040298BF00F801CB38BF00F8013B8E
:1003900011F0030300F05780083AC0F0088051F8CC
:1003A000043B083A51F804CBA0E80810F5E7121D09
:1003B0005CBF51F8043B40F8043BAFF30080D20728
:1003C00024BF11F8013B11F801CB48BF11F8012BF4
:1003D00024BF00F8013B00F801CB48BF00F8012B17
:1003E000704702F0FF0343EA032242EA024200F0B0
:1003F00002B84FF0000200B51346944696462039E5
:1004000022BFA0E80C50A0E80C50B1F12001BFF4CD
:10041000F7AF090728BFA0E80C5048BF0CC05DF833
:1004200004EB890028BF40F8042B08BF704748BF81
:1004300020F8022B11F0804F18BF00F8012B7047F5
:1004400070477047704710B5203AC0F00B80B1E894
:100450001850A0E81850B1E81850A0E81850203AF9
:10046000BFF4F5AF5FEA027C24BFB1E81850A0E802
:10047000185044BF18C918C0BDE810405FEA827C1C
:1004800024BF51F8043B40F8043B08BF7047D20733
:1004900028BF31F8023B48BF11F8012B28BF20F8D4
:1004A000023B48BF00F8012B7047754600F02CF85E
:1004B000AE4605006946534620F00700854618B051
:1004C00020B5FFF7BFFEBDE820404FF000064FF01B
:1004D00000074FF000084FF0000BAC46ACE8C00935
:1004E000ACE8C009ACE8C009ACE8C00921F00701DC
:1004F0008D46704710B50446AFF300802046BDE836
:100500001040FFF78ABE0000004870471800002026
:1005100001491820ABBEFEE726000200704700002C
:10052000FEE700007047000044F23430C2F20000E1
:100530000068704740F2000044F23431C2F200001B
:10054000C2F2000100780A68104408607047000099
:1005500080B543F60040C4F20200016841F4007126
:100560000160016841F480610160016841F48071BB
:100570000160032000F0C8F80F2000F005F800F03B
:1005800061F8002080BD000070B586B0002543F6FC
:1005900040010195C4F202010A68044642F01002CB
:1005A0000A60096801A801F01001019101996946EA
:1005B00000F06AF9049E002E18BF012600F084F9AD
:1005C0004DF68361B040C4F21B31A0FB01014FF036
:1005D000FF3000EB914140F29C1041F20002C2F268
:1005E0000000C4F2000240F2E733C0E90021C0E994
:1005F00002530561856100F06FFB054610B1284686
:1006000006B070BD40F29C10C2F2000000F094FBF6
:1006100005460028F3D1362000F036F80F2C0DD80F
:10062000362021460022002500F042F840F2040066
:10063000C2F200000460284606B070BD01252846BD
:1006400006B070BD82B0002043F640010190C4F2B4
:1006500002014A6842F480424A604A6802F48042D9
:100660000192019A00900868002240F080500860D2
:1006700008680F2100F08050009000986FF0010092
:1006800002B000F015B80000002848BF7047C1B2A2
:1006900000F01F00012202FA00F04EF20012CEF22A
:1006A000000242EAD10121F0030108607047000016
:1006B00010B54EF60C5CCEF2000CDCF80030C3F343
:1006C000022E8EF00704042C28BF0424BEF103037D
:1006D0004FF0FF3E0EFA04F438BF0023A1439940C7
:1006E0000EFA03F39A43114300F00F0200F1604346
:1006F0000901043A03F564436244002848BF02F14B
:100700000C03197010BD00004EF60C51CEF2000122
:100710000A684FF6FF031A4060F30A2242F0806035
:1007200040F0FD70086070472DE9F041002800F0AE
:100730008B8043F60808C4F202080446D8F8F80390
:100740000D4600F00700884207D288F8F853D8F821
:10075000F80300F00700A84276D12068810717D57A
:10076000410705D5D8F8001041F4E051C8F8001051
:10077000010705D5D8F8001041F46041C8F8001011
:10078000D8F80010A26821F0F0011143C8F8001059
:10079000C0073FD1D8F8F80300F00700A84207D9F6
:1007A00088F8F853D8F8F80300F00700A8424BD1B6
:1007B0002068410707D5D8F80010E26821F4E0511D
:1007C0001143C8F80010000708D5D8F800002169C7
:1007D00020F4604040EAC100C8F8000000F088F84A
:1007E000D8F8001043F6A812C1F30311C0F60002B6
:1007F000515C40F2080220FA01F140F20400C2F21A
:1008000000000068C2F200021160FFF7BDFE002088
:10081000BDE8F0816068811E022907D258F8081CE3
:1008200089015CBF0120BDE8F08111E0012807D1FA
:1008300058F8081C89035CBF0120BDE8F08107E07F
:1008400058F8081C890703D40120BDE8F08100BFD7
:10085000D8F8001021F003010843C8F80000FFF7A2
:1008600063FE064641F28837D8F80000616800F060
:100870000C00B0EB810F8DD0FFF756FE801BB84205
:10088000F2D90320BDE8F0810F22026043F608028E
:10089000C4F20202136803F003034360136803F019
:1008A000F0038360136803F4E053C360D2F800C020
:1008B0004FF4E05303EADC030361D2F8F80300F0DD
:1008C000070008607047000040F2080043F6080186
:1008D000C2F20000C4F202010068096843F6B812CF
:1008E000C1F38221C0F60002515CC840704700008D
:1008F00010B543F60404C4F20204606800F00C0072
:1009000008280BD0042819BF42F20040C0F2F400BE
:1009100041F60030C0F2B70010BD00BF206821686A
:100920002368490241F60031C0F2B70100F03F02EE
:10093000C3F388105CBF42F20041C0F2F401A1FB96
:1009400000010023FFF790FC21680222C1F301415E
:1009500002EB4101B0FBF1F010BD00002DE9F041C8
:1009600082B0002868D00446007843F60006C0072D
:10097000C4F202060BD0B06800F00C00042840F06E
:100980009F803068800302D56068002854D02078AA
:1009900080071AD5B06810F00C0F09D0B06800F0CD
:1009A0000C00082840F0A6807068400200F1A28088
:1009B0003068800702D5E06801283DD130682169A0
:1009C00020F0F80040EAC10030602078000737D4FA
:1009D000207840074CD4A56955B3B06800F00C00EE
:1009E000082840F0BB80012D26D07068E16900F432
:1009F00080028A4220D1216A00F03F028A421BD144
:100A000047F6C071626A0140B1EB821F14D1A16A3E
:100A10004FF6FF73C903994300F44032A1F58031CA
:100A20008A4209D1E16A00F07060B0EB016F03D136
:100A3000002002B0BDE8F081012002B0BDE8F081E5
:100A40006069002840F20000C4F2472076D00121FE
:100A5000C0F8801EFFF768FD054600BF706F800775
:100A6000B6D4FFF761FD401B0228F7D9DDE000BFD7
:100A7000306C10F080580AD100200190306C40F0AA
:100A800080503064306C00F080500190019847F243
:100A90000007C4F200073868C00541D4386840F444
:100AA00080703860FFF740FD054600BF3868C0051C
:100AB00036D4FFF739FD401B0228F7D9B5E000BF57
:100AC000B06800F00C00082803D1706840023FF5C0
:100AD00058AF6068B0F5803F07D0B0F5A02F40F068
:100AE0008D80306840F480203060306840F4803081
:100AF00030608DE0E068002852D00020C4F247202A
:100B000001210160FFF710FD054600BF3068800736
:100B10003FF554AFFFF708FD401B0228F6D984E0EB
:100B2000A068012805D005284ED1306F40F00400A0
:100B30003067306F40F0010030674FE00021C0F8AF
:100B4000801EFFF7F1FC0546706F80077FF540AF10
:100B5000FFF7EAFC401B0228F6D966E00027C4F242
:100B6000472700203866FFF7DFFC022D05460BD132
:100B7000306880015ED5FFF7D7FC401B02284FF09C
:100B80000300F5D955E700BF306880017FF550AF0D
:100B9000FFF7CAFC401B02284FF00300F4D948E7D6
:100BA0000020C4F2472000210160FFF7BDFC05468C
:100BB000306880077FF509AFFFF7B6FC401B0228BD
:100BC0004FF00300F4D934E7316F002821F0010120
:100BD0003167316F21F0040131674DD0FFF7A4FC7C
:100BE000054641F2883700BF306F800756D4FFF7C3
:100BF0009BFC401BB842F7D917E000BF31680028C2
:100C000021F480313160316821F4802131604FD08E
:100C1000FFF78AFC054600BF306880033FF5B7AE9A
:100C2000FFF782FC401B6428F6D9032002B0BDE820
:100C3000F08100BF04F11C052FCD084340EA82106B
:100C4000D9034FF6FF729143A1F5803140EA056068
:100C50000843706001203866FFF766FC044600BF59
:100C6000306880013FF5E4AEFFF75EFC001B022810
:100C70004FF00300F4D9DCE6FFF756FC054641F2DD
:100C8000883700BF306F800708D5FFF74DFC401B49
:100C9000B8424FF00300F5D9CBE600BFB8F1000F22
:100CA0007FF499AE306C20F08050306493E600BF42
:100CB000FFF73AFC054600BF306880037FF567AE5A
:100CC000FFF732FC401B64284FF00300F4D9B0E674
:100CD0007047000070470000002804BF01207047E3
:100CE00010B5044690F83D0028B9002084F83C0077
:100CF000204600F01FF8022084F83D002068211DE6
:100D000000F028FA012084F8460084F83E0084F8B8
:100D10003F0084F8400084F8410084F8420084F8E1
:100D2000430084F8440084F8450084F83D00002026
:100D300010BD00007047000090F83D1001291CBF55
:100D400001207047022180F83D10006841F2FF72D7
:100D5000C168C4F20002904241F00101C1600DDCA3
:100D600040F2FF71C4F20001884215DCB0F1804FFF
:100D70002AD040F20041C4F2000123E040F2FF31EA
:100D8000C4F20101884213DC41F60001C4F2000103
:100D9000884219D0002113E040F60001C4F200019E
:100DA000884211D040F60041C4F200010AE000BFC1
:100DB00044F20001C4F20101884205D040F2004132
:100DC000C4F20101884206D1816801F007010629B9
:100DD00004BF00207047016841F00101016000205C
:100DE000704700007047000070B504460068C56891
:100DF0000669B10716D515F0020113D06FF0020194
:100E00000161012121778069800703D02046FFF727
:100E1000E9FF05E0204600F08FF8204600F08EF84C
:100E200000202077700719D515F0040016D020682F
:100E30006FF00401016102212177806910F4407F85
:100E400004D02046FFF7CEFF06E000BF204600F0AA
:100E500073F8204600F072F800202077300717D58D
:100E600015F0080014D020686FF00801016104211A
:100E70002177C069800703D02046FFF7B3FF05E064
:100E8000204600F059F8204600F058F8002020775E
:100E9000F00619D515F0100016D020686FF010017B
:100EA000016108212177C06910F4407F04D02046F9
:100EB000FFF798FF06E000BF204600F03DF820460F
:100EC00000F03CF800202077F00718BF15F0010073
:100ED00002D1300609D412E020686FF001010161EF
:100EE000204600F02DF8300609D515F0800006D018
:100EF00020686FF0800101612046FFF7E9FE70066F
:100F000009D515F0400006D020686FF0400101615E
:100F1000204600F01FF8B00658BF70BD15F0200045
:100F200008D021686FF0200220460A61BDE87040B9
:100F3000FFF7D0BE70BD0000704700007047000092
:100F4000006841F20001C4F20001884218BF7047F6
:100F5000FFF7F0BA70470000FEE7000080B501F02F
:100F60008BF841F2650043F63C22C0F60000C0F663
:100F70000002002100F0BCFA40F29811C2F2000118
:100F8000086080BD82B0002043F630010190C4F2B9
:100F900002010A6842F001020A600A6802F00102D6
:100FA0000192019A0090086840F08000086008688B
:100FB00000F080000090009802B07047FEE700004B
:100FC000FEE700000000000000000000000000003C
:100FD000EFF30980BFF36F8F154B1A681EF0100FE7
:100FE00008BF20ED108A20E9F04F10602DE90900BC
:100FF0004FF0500080F31188BFF34F8FBFF36F8F16
:1010000001F06CFC4FF0000080F31188BDE809008E
:1010100019680868B0E8F04F1EF0100F08BFB0EC78
:10102000108A80F30988BFF36F8F704700BF00BF3D
:101030007800002000000000000000000000000018
:10104000074B19680868B0E8F04F80F30988BFF3D0
:101050006F8F4FF0000080F31188704700BF00BF12
:1010600078000020012000F063F9FBE780B54EF224
:101070001000CEF20000006802F08AFA012808BFD2
:1010800080BDBDE8804001F0A9BE0000B0B592B0BF
:10109000002443F64000CDE90A44CDE90844059414
:1010A000CDE90344CDE901440094C4F20200016893
:1010B000022541F080510160006800F080500090EE
:1010C000009847F200000094C4F20000016841F467
:1010D00080410160006800F4804000900098012089
:1010E00006904FF4803007904FF480000D9006205A
:1010F0000E90A820CDE90F050420119006A80C95AC
:10110000FFF72CFC10B172B6FEE700BF0F20CDE94F
:1011100001054FF4A05004904FF48050059001A8B1
:1011200005210394FFF700FB10B172B6FEE700BF84
:1011300012B0B0BD4EF68850CEF20000016841F406
:10114000700101607047000040F29C10C2F2000084
:10115000FFF74ABEB0B540F6FF3E0568C4F2000E88
:1011600040F2004C7045C4F2010C27DCB0F1804F16
:1011700031D040F20043C4F2000398422BD040F635
:101180000003C4F20003984225D041F6FF73C4F275
:10119000000398422ADC70453CDCB0F1804F5FD000
:1011A00040F20043C4F20003984259D040F60003D5
:1011B000C4F20003984253D057E000BF40F600430A
:1011C000C4F20003984206D0604504D00023C4F264
:1011D00001039842D9D14B6825F0700243EA020519
:1011E00041F6FF73C4F200039842D4DD43F6FF7367
:1011F000C4F20103984221DC42F20003C4F200036E
:1012000098422DD00023C4F20103984228D06045B3
:1012100026D02AE040F60043C4F2000398421FD0D3
:1012200041F60003C4F20003984219D041F600438E
:10123000C4F20003984213D017E000BF44F2000349
:10124000C4F2010398420BD044F60003C4F2010338
:10125000984205D044F20043C4F20103984204D1FD
:10126000CB6825F4407243EA02050A688C684B6932
:10127000C46240F480648262644504BF096901630A
:10128000026825F0800142F0040219430260012245
:1012900042610160B0BD0000FEE7000040F254145E
:1012A00040F20C05C2F20004C2F200052968206871
:1012B00041F0010101224FF0FF3300F0B7F820693F
:1012C00001302061F2E7000040F25414C2F2000441
:1012D0004FF47A7000F02CF82068012100F070F8CB
:1012E000F6E7000040F2541440F20C05C2F200048C
:1012F000C2F200052068296800F02AF840F2DC50AC
:1013000000F016F8A16820684A1C2968A26000F065
:1013100057F8F3E7FFF71CF9FFF7B8FEFFF732FEC7
:1013200000F0B4F8FFF71AFE00F0C4F8FEE7000082
:10133000EFF3058100291CBF6FF0050070470028FE
:1013400004BF0020704780B501F0F6F8002080BD92
:1013500070B56FF00305A0B1064600200C46B0EB57
:10136000116F0ED1EFF3058070B1304601F07AFBBA
:1013700005463046214601F035FB002808BF6FF0D6
:101380000205284670BD00BF30462146BDE87040CA
:1013900001F002BBEFF3058181B9014640B1D1E90B
:1013A000020138B1202928BF01F034BB06E000BF9C
:1013B00001F022BB002908BF01F01EBB00207047CE
:1013C00010B582B00C466FF00301D8B10022B2EB29
:1013D000146F17D1EFF30581C1B10021019101AA6A
:1013E000214601F097FBB8B10198D8B14EF60450F0
:1013F000CEF200004FF080510160BFF34F8F2146C5
:10140000BFF36F8F084602B010BD00BF214602B087
:10141000BDE8104001F034BB6FF00201084602B095
:1014200010BD00BF2146084602B010BD70B582B0A5
:101430000D46014600286FF003001AD01C46002319
:10144000B3EB156F15D1EFF3058018B16FF0050000
:1014500002B070BD02F00106012020EA52020846E7
:1014600029463346009401F05FFB00EA05011EB9EE
:1014700021B102B070BD00BFA942FAD06FF00100E7
:10148000002C08BF6FF0020002B070BDEFF30580C2
:1014900000281CBF6FF00500704740F29410C2F2A4
:1014A00000000168002911BF4FF0FF3001210160E9
:1014B0000020704710B5EFF3058000281CBF6FF0C7
:1014C000050010BD40F29410C2F20000016801292D
:1014D0001CBF4FF0FF3010BD4EF61F51CEF2000181
:1014E00000240C700221016001F078F9204610BD43
:1014F0002DE9F04184B08E4600240394EFF305817A
:1015000050B149B94FF0000452B19369002B08BFA4
:101510001823382B16D90024204604B0BDE8F081EA
:1015200080251823002103AF0093AAB273460197C8
:1015300001F0C2FF0399012808BF0C46204604B001
:10154000BDE8F0811179C90724D15769D2E9028633
:101550004FEA970C1168002F654608BF8025B8F147
:10156000000F13D05C2E15D312690024002A18BF77
:10157000002FD1D0CDE9003262467346CDF8088005
:1015800001F0CAFF04B0BDE8F08100BF16B91269CE
:10159000002AC8D00024204604B0BDE8F081000035
:1015A0002DE9F041044600F055FE40F27806C2F203
:1015B0000006F06840F2D4250130F0603068C2F2D5
:1015C000000558B13069002840F007813068E16AB1
:1015D000C06A884298BF3460FFE000BF3460F068A2
:1015E000012840F0FA80284600F0DAFD05F11400E9
:1015F00000F0D6FD05F1280000F0D2FD05F13C0019
:1016000000F0CEFD05F1500000F0CAFD05F16400C8
:1016100000F0C6FD05F1780000F0C2FD05F18C0078
:1016200000F0BEFD05F1A00000F0BAFD05F1B40028
:1016300000F0B6FD05F1C80000F0B2FD05F1DC00D8
:1016400000F0AEFD05F1F00000F0AAFD05F5827096
:1016500000F0A6FD05F58C7000F0A2FD05F5967072
:1016600000F09EFD05F5A07000F09AFD05F5AA704A
:1016700000F096FD05F5B47000F092FD05F5BE7022
:1016800000F08EFD05F5C87000F08AFD05F5D270FA
:1016900000F086FD05F5DC7000F082FD05F5E670D2
:1016A00000F07EFD05F5F07000F07AFD05F5FA70AA
:1016B00000F076FD05F5027000F072FD05F507708B
:1016C00000F06EFD05F50C7000F06AFD05F5117077
:1016D00000F066FD05F5167000F062FD05F51B7063
:1016E00000F05EFD05F5207000F05AFD05F525704F
:1016F00000F056FD05F52A7000F052FD05F52F703B
:1017000000F04EFD05F5347000F04AFD05F5397026
:1017100000F046FD05F53E7000F042FD05F5437012
:1017200000F03EFD05F5487000F03AFD05F54D70FE
:1017300000F036FD05F5527000F032FD05F55770EA
:1017400000F02EFD05F55C7000F02AFD05F56170D6
:1017500000F026FD05F5667000F022FD05F56B70C2
:1017600000F01EFD05F5707000F01AFD05F57570AE
:1017700000F016FD05F57A7000F012FD05F57F709A
:1017800000F00EFD05F5826000F00AFD05F2244030
:1017900000F006FD05F5876000F002FD05F24C4003
:1017A00000F0FEFC40F26C18C2F20008404600F067
:1017B000F7FC08F11407384600F0F2FC06F164006B
:1017C00000F0EEFC06F13C0000F0EAFC06F15000EF
:1017D00000F0E6FCC6F81C8037627068716A421C33
:1017E000E06A72608842626488BF706200EB8000C9
:1017F00005EB8000211D00F015FD00F04FFD306964
:1018000088B13068E16AC06A884228BFBDE8F081CB
:101810004EF60450CEF200004FF080510160BFF34D
:101820004F8FBFF36F8FBDE8F081000040F2780565
:1018300040F2D4264EF60458C2F20005C2F2000669
:10184000CEF200084FF0805703E000BF204600F0C2
:101850003DFDA868D0B100F0FDFCA86CC468201D57
:1018600000F03CFCE8680138E860A8680138A8602E
:1018700000F014FD94F859000228EAD00128E5D0C0
:1018800070B9206B00F022FDE0E700BF306802284D
:10189000DFD3C8F80070BFF34F8FBFF36F8FD8E767
:1018A0004FF0500080F31188BFF36F8FBFF34F8F5D
:1018B000FEE700002DE9F0470A9C8246206B1646A1
:1018C0000F46DDE908599100A5229846FEF789FDEB
:1018D000206B002F00EB8600A0F1040020F007062B
:1018E00056D0387884F83400387800284BD078788F
:1018F00084F835007878002845D0B87884F8360028
:10190000B87800283FD0F87884F83700F878D0B35A
:10191000387984F838003879A8B3787984F83900B0
:10192000787980B3B87984F83A00B87958B3F879FF
:1019300084F83B00F87930B3387A84F83C00387A80
:1019400008B3787A84F83D00787AE0B1B87A84F800
:101950003E00B87AB8B1F87A84F83F00F87A90B1CE
:10196000387B84F84000387B68B1787B84F841008C
:10197000787B40B1B87B84F84200B87B00281CBF5C
:10198000F87B84F84300002084F8430003E000BFA4
:10199000002084F834000027201D372D28BF37256C
:1019A000E562C4E9135700F007FC04F1180000F0E9
:1019B00003FCC5F13800A06130465146424624611F
:1019C0006462676584F8587000F042FBB9F1000F5B
:1019D000206018BFC9F80040BDE8F08708480068DB
:1019E000006880F308884FF0000080F3148862B626
:1019F00061B6BFF34F8FBFF36F8F00DF00BF0000F2
:101A000008ED00E081B00020009040F21000C2F22A
:101A1000000000684FF0500181F31188BFF36F8F11
:101A2000BFF34F8F013007D0FEE700BF009830B9F9
:101A3000009820B9009810B900980028F6D001B09D
:101A40007047000088B040F2F00AC2F2000A0DF1BF
:101A50001009EB46DAF8080005681DB1C068046893
:101A600001E000BF002400F031FF01F0A1FDDAF831
:101A700010100646884220D3002DCAF8106051D0BD
:101A8000A6424FD301F09CFEDAF80800C068C76890
:101A90003D1D284600F022FB97F82800410745D459
:101AA00000F0FE0087F8280084E000BF6860DAF8E4
:101AB000080039462D6100F083FBDAF80800016860
:101AC00031B3C068C56804682F1D384600F006FBB6
:101AD000296A2846884795F828004007EDD5A86967
:101AE0002044A042E2D8DAF80000002800F0488143
:101AF000002004A931C101F04BFDDAF8000049468D
:101B00000022002301F0F2F90028D6D138E100BF0D
:101B1000DAF80C10CAF81060CAE9021001F050FEA1
:101B20001AE100BF65B1002210E000BFB8693F6153
:101B30000119B14279601FD90AF1080021E000BF04
:101B4000DAF80C000068B0FA80F04209DAF8000018
:101B5000A11B00F0C7FC01F033FE002840F0FC8020
:101B60004EF60450CEF200004FF080510160BFF3FA
:101B70004F8FBFF36F8FEFE0311B814206D20AF126
:101B80000C000068294600F01BFB13E0DAF80000A7
:101B9000002800F01381002004A991C101F0F8FC95
:101BA000DAF8000049460022002301F09FF90028DE
:101BB00000F00481396A38468847CDE00098B0F1DA
:101BC000FF3F07DCDDE901200399904700980028DA
:101BD00000F1C280029E706910B1301D00F07EFAE3
:101BE00001F0E6FCDAF81010074688420DD30098A1
:101BF000CAF8107009283FD9AEE000BF6860DAF873
:101C0000080021462D6100F0DBFADAF808000168CF
:101C100041B3C068C568D0F800802C1D204600F094
:101C20005DFA296A2846884795F828004007ECD5D0
:101C3000A86940444045E1D8DAF80000002800F0E7
:101C400095800020CDE90408069501F0A1FCDAF8A2
:101C5000000049460022002301F048F90028D4D1B1
:101C600084E000BFDAF80C10CAE902100098CAF844
:101C70001070092800F27080DFE800F006060644C4
:101C800048620606444800BF96F82800019A40F0D2
:101C90000101B06986F828108318314641F8043FE5
:101CA000BB42366106D997420AF1080007D2934237
:101CB0000AD204E0BA1A824206D20AF10C00006885
:101CC00000F07EFA48E000BF316A3046884796F857
:101CD0002800400740D5DAF8000000285AD00198C3
:101CE000B169069608440021CDE9041001F050FCCA
:101CF000DAF8000049460022002301F0F7F858BB4B
:101D000048E000BF96F8280022E000BF96F82800BF
:101D100040F00101019886F828100028B06143D0F6
:101D2000384431460AF10C0241F8040F3661B842DA
:101D300088BF0AF10802106800F042FA0CE000BF08
:101D400096F82800810703D4304600F0BFFA03E07C
:101D500000F0FE0086F82800DAF80000594600225C
:101D600001F086FA00287FF429AF73E64FF05000A7
:101D700080F31188BFF36F8FBFF34F8FFEE700BF73
:101D80004FF0500080F31188BFF36F8FBFF34F8F78
:101D9000FEE700BF4FF0500080F31188BFF36F8F54
:101DA000BFF34F8FFEE700BF4FF0500080F3118864
:101DB000BFF36F8FBFF34F8FFEE700BF4FF05000B0
:101DC00080F31188BFF36F8FBFF34F8FFEE70000E2
:101DD000F0B581B0044600F03DFA94F94560012E5B
:101DE0000FDB04F1240500BF286850B1284601F03C
:101DF000ADFC002818BF00F0E9FBF0B2013E01285D
:101E0000F2D8FF2684F8456000F048FA00F022FA84
:101E100094F94470012F0EDB04F11005286850B1CD
:101E2000284601F093FC002818BF00F0CFFBF8B261
:101E3000013F0128F2D884F8446001B0BDE8F040C9
:101E400000F02CBA70B5044600F040FD40F22C1CA6
:101E5000C2F2000CDCF8040050B19CF8000000282D
:101E600018BF4FF000404FF0000574BB8DE000BF7D
:101E700040F23470C2F20000C21D22F0070210F0DE
:101E80000701A0EB020318BF104600224FF4705563
:101E9000CCE90602002918BF03F57055411921F05D
:101EA0000701A1F10803CCF8043041E90222191A14
:101EB000C0E9003101208CF800004FF00040CCE96F
:101EC0000211002C4FF000055FD020405DD124F0BE
:101ED000070000F11002600708BF04F10802002AA1
:101EE0004FF0000551D0DCF8080082424DD8604622
:101EF00050F818EFDEF8045095422CD2DEF80010AE
:101F0000C1B174464D68954218D20B68B3B15D6893
:101F1000954217D21868A8B14568954216D2046850
:101F2000A4B16568954215D22168A6460029E9D179
:101F300011E000BF0CF118000DE000BF8E462046F6
:101F400009E000BF9E46084605E000BF86461846E9
:101F500001E000BFA646DCF804108E4514D00168ED
:101F6000DEF80040AB1A112B04604DD30EEB0205D6
:101F7000680719D04FF0500080F31188BFF36F8FBE
:101F8000BFF34F8FFEE700BF002501F019FC680783
:101F90005BD04FF0500080F31188BFF36F8FBFF319
:101FA0004F8F00BFFEE700BF0CF118006B60CEF84A
:101FB000042000BF0368AB420AD21868A8420BD2C3
:101FC0000368AB4204D218681A46A842F2D304E070
:101FD0000246184601E000BF1A4653686C68D618DE
:101FE000AE4202D11C44154654602B19834207D1DE
:101FF000DCF80430984203D0D0E9000323446B603E
:10200000AA42286018BF156001F10805DEF8040037
:10201000DCE90212091A9142CCF8081038BFCCF85A
:102020000C109CF80010002918BF40F00040CEF8BA
:102030000400DCF8100000210130CEF80010CCF8CC
:10204000100001F0BDFB6807A3D1284670BD000059
:10205000034641F60520C0F600004FF0807C21F0D9
:10206000010103E903106FF0020043F8240CA3F10F
:10207000440043F8202C704710B541F29D2043F6F0
:10208000C012C0F60000C0F600020021FFF730FACF
:1020900040F25414C2F20004606141F2C92043F6D8
:1020A000E412C0F60000C0F600020021FFF720FA9B
:1020B000606041F2E52043F60822C0F60000C0F659
:1020C00000020021FFF714FAE06043F62C20C0F66E
:1020D0000000FFF75FF9206010BD0000D0E9013279
:1020E00001699A60D1F804C082688445536008BFD2
:1020F0004A60002202610868013808600868704779
:1021000040F27801C2F20001086880690A68D26A68
:102110000968C2F138028A617047000044F23853FE
:10212000C2F20003036044F23830C2F200000860DB
:10213000802010607047000044F69413C2F2000340
:10214000036044F29450C2F2000008604FF48070C3
:1021500010607047B0B568B10D46B1F1807F13D300
:102160004FF0500080F31188BFF36F8FBFF34F8F94
:10217000FEE700BF4FF0500080F31188BFF36F8F70
:10218000BFF34F8FFEE700BF044600F063F82068FE
:10219000A8432060BDE8B04000F080B800F070BCFB
:1021A0004FF0FF31024642F8081F00214260C0E9AB
:1021B00003220160704700000021016170470000A8
:1021C00010B5D1F800E01EF1010213D000F10804AF
:1021D00062681368734511D853681C68744511D838
:1021E0005A68146874450FD854682368A446734528
:1021F000EED90BE00269D2F804C007E0944622460B
:1022000004E000BF9C4601E094461A46C1F804C0B1
:10221000CCF808108A6051600861016801310160E2
:1022200010BD0000D0F800C0436808619A684B6098
:102230008A609A68996051600CF1010101607047F1
:10224000DFF80C00016841F4700101607047000084
:1022500088ED00E04FF0500080F31188BFF36F8FDE
:10226000BFF34F8F40F21000C2F2000001684A1C19
:10227000026009B1704700BF4EF60450CEF2000074
:102280000068000608BF70474FF0500080F31188C7
:10229000BFF36F8FBFF34F8FFEE7000040F21000D7
:1022A000C2F20000016839B10139016018BF7047FE
:1022B000002080F3118870474FF0500080F31188A0
:1022C000BFF36F8FBFF34F8FFEE7000070B500289C
:1022D00008BF70BD40F22C15C2F2000504462878F4
:1022E00054F8041C002818BF4FF0004008420DD0DD
:1022F000A4F1080632689AB14FF0500080F31188BB
:10230000BFF36F8FBFF34F8FFEE700BF4FF050005A
:1023100080F31188BFF36F8FBFF34F8FFEE700BFCD
:1023200021EA000044F8040C00F0D0FA54F8041C30
:10233000A8680844A86005F1180000BF0368B3420C
:102340000AD21868B04225D20368B34204D2186892
:102350001A46B042F2D301E0024618465368D41838
:10236000B44202D11944164651607318834206D113
:102370006B68984203D0D0E9000319447160B242FF
:10238000306018BF1660686901306861BDE8704050
:1023900001F016BA1A465368D418B442E5D1E1E701
:1023A0004EF21000CEF2000000210160816040F288
:1023B0000801C2F20001096844F6D352C1F2620278
:1023C000A1FB02124FF0FF3101EB92114160072196
:1023D0000160704740F24C10EFF305811029C2F202
:1023E000000011D34EF2F032CEF20002895C027886
:1023F000914209D24FF0500080F31188BFF36F8FE4
:10240000BFF34F8FFEE700BF4EF60C51CEF2000136
:102410000968406801F4E061814298BF70474FF05D
:10242000500080F31188BFF36F8FBFF34F8F00BF51
:10243000FEE7000044F6F01CC2F2000CDCF80020BD
:1024400022B3634653F8082F42B3634653F8102F64
:1024500052B3634653F8182F62B3634653F8202FE4
:1024600072B3634653F8282F82B3634653F8302F74
:1024700092B3634653F8382F002A18BF70470722DB
:1024800019600CEBC2014860704700BF0022634630
:1024900019600CEBC2014860704700BF012219604F
:1024A0000CEBC20148607047022219600CEBC201BC
:1024B00048607047032219600CEBC2014860704706
:1024C000042219600CEBC2014860704705221960B4
:1024D0000CEBC20148607047062219600CEBC20188
:1024E0004860704770B515460E460446FFF7B2FEC9
:1024F00094F84400FF2804BF002084F8440094F8B6
:102500004500FF2804BF002084F84500FFF7C6FE01
:10251000A06B28B12046BDE87040FFF759BC00BF52
:1025200004F1240031462A4600F092F82046BDE826
:102530007040FFF74DBC000070B588B340F27805DD
:10254000C2F200050446686950B14FF0500080F3B4
:102550001188BFF36F8FBFF34F8F00BFFEE700BF3F
:10256000686901306861AE6928680430FFF7B6FD1C
:102570002868A419446005D3286A29680431FFF744
:102580001FFE08E0E86929680431FFF719FEE86AD0
:10259000844238BFEC6201F013F9002818BF70BD07
:1025A0004EF60450CEF200004FF080510160BFF3B0
:1025B0004F8FBFF36F8F70BD40F27801C2F2000100
:1025C0008A6B0260896941607047000040F27800C0
:1025D000C2F20000012101637047000070B5D8B15C
:1025E00040F27804C2F200040D4621681831FFF76A
:1025F000E7FDA66920680430FFF770FD681C15D060
:102600002068AD19456019D3206A21680431BDE8FE
:102610007040FFF7D5BD00BF4FF0500080F3118828
:10262000BFF36F8FBFF34F8FFEE700BF54F8500B1F
:10263000011D2046BDE87040FFF7F4BDE069216848
:102640000431FFF7BDFDE06A854238BFE56270BD29
:10265000F0B581B0C0B140F27804C2F200040D467A
:10266000216816461831FFF7DDFDA76920680430A0
:10267000FFF734FD96B154F8500B011D204601B010
:10268000BDE8F040FFF7CEBD4FF0500080F3118859
:10269000BFF36F8FBFF34F8FFEE700BF2068ED19C8
:1026A000456007D3206A2168043101B0BDE8F040DD
:1026B000FFF786BDE06921680431FFF781FDE06A1C
:1026C000854238BFE56201B0F0BD000070B508B3C7
:1026D00040F27804C2F200041546626922B322680F
:1026E00041F00041916121681831FFF79BFDA66917
:1026F00020680430FFF7F2FC681C1FD02068AD1979
:10270000456023D3206A21680431BDE87040FFF79B
:1027100057BD00BF4FF0500080F31188BFF36F8F9B
:10272000BFF34F8FFEE700BF4FF0500080F31188DA
:10273000BFF36F8FBFF34F8FFEE700BF54F8500B0E
:10274000011D2046BDE87040FFF76CBDE0692168BF
:102750000431FFF735FDE06A854238BFE56270BDA0
:1027600070B540F27805C2F200056A6912B3C66816
:1027700041F0004101603EB3FFF7B0FC341D20463C
:10278000FFF7ACFCF06A696A884240F2D42188BF46
:10279000686200EB8000C2F2000101EB800021467C
:1027A000FFF740FDF06A2968C96A884284BF0120AA
:1027B000286370BD4FF0500080F31188BFF36F8F16
:1027C000BFF34F8FFEE700BF4FF0500080F311883A
:1027D000BFF36F8FBFF34F8FFEE7000010B588B0D7
:1027E0000020CDE9050006A805A904AAFFF796FC7C
:1027F000059800283ED0069C002C45D05C21049A08
:10280000079107995C2949D107992063022084F830
:10281000590007A80021CDE9001041F62D00C0F6AF
:10282000000028A100230294FFF744F82046FEF799
:10283000B7FE079840F27804C2F20004A062B0B17B
:1028400001F036F8411C33D0012810D14FF0500070
:1028500080F31188BFF36F8FBFF34F8F4FF0FF30BE
:10286000E062012020610020A06100F0F5F908B0CD
:1028700010BD00BF4FF0500080F31188BFF36F8F81
:10288000BFF34F8FFEE700BF4FF0500080F3118879
:10289000BFF36F8FBFF34F8FFEE700BF4FF05000C5
:1028A00080F31188BFF36F8FBFF34F8FFEE700BF38
:1028B0004FF0500080F31188BFF36F8FBFF34F8F3D
:1028C000FEE700BF49444C450000000040F278009C
:1028D000C2F20000416901314161704780B540F2A8
:1028E000780EC2F2000EDEF8141019B10121CEF8F4
:1028F000301080BD0021CEF83010DEF8241040F2F8
:10290000D42C01EB8103C2F2000C5CF823208AB1C5
:1029100001EB81020CEB820353F8042F5268181D5F
:1029200082421A6020D0D068CEF80000CEF8241081
:1029300080BD00BF0CEB8302A2F12803E1B15A690C
:1029400022BB012918D01A6812BB022914D053F8EF
:10295000142CFAB903290FD053F8282C0439002A73
:10296000A3F15003EAD0D3E752681A60D068CEF8DA
:102970000000CEF8241080BD4FF0500080F3118885
:10298000BFF36F8FBFF34F8FFEE700BF0139BFE783
:102990000239BDE70339BBE770B568B10D46B1F147
:1029A000807F13D34FF0500080F31188BFF36F8FF7
:1029B000BFF34F8FFEE700BF4FF0500080F3118848
:1029C000BFF36F8FBFF34F8FFEE700BF0446FFF7E3
:1029D00041FC266826EA05002060FFF75FFC3046D0
:1029E00070BD00000A46014642F25510C0F60000D4
:1029F000002300F0B7BF0000B0B52020FFF722FA97
:102A0000044628B10025201D2560FFF7C9FB257766
:102A10002046B0BD10B582B080B1044620200190A0
:102A20000198202814D100202060201DFFF7B8FB5A
:102A300001212046217702B010BD00BF4FF05000A9
:102A400080F31188BFF36F8FBFF34F8FFEE700BF96
:102A50004FF0500080F31188BFF36F8FBFF34F8F9B
:102A6000FEE70000EFF311824FF0500181F311886F
:102A7000BFF36F8FBFF34F8F006882F311887047E9
:102A80002DE9F04170B10D46B1F1807F14D34FF0C4
:102A9000500080F31188BFF36F8FBFF34F8F00BFDB
:102AA000FEE700BF4FF0500080F31188BFF36F8F37
:102AB000BFF34F8FFEE700BF044600F10C08FFF79D
:102AC00005FF20682769284347454FF0000520602F
:102AD0000AD118E036B141F00071D20148BF1D4360
:102AE000FFF73EFE47450DD03846D7E9002721685D
:102AF00022F07F43560101EA0306EBD59E42EAD05D
:102B0000F0E700BF2068A843206000F059FE20686D
:102B1000BDE8F08113460A46014642F29D10C0F618
:102B2000000000F01FBF00002DE9F04381B068B144
:102B30000D46B1F1807F13D34FF0500080F3118820
:102B4000BFF36F8FBFF34F8FFEE700BF4FF0500012
:102B500080F31188BFF36F8FBFF34F8FFEE700BF85
:102B6000A5B1DDF820801F461646044600F010FD92
:102B7000B8F1000F14D098B94FF0500080F31188CD
:102B8000BFF36F8FBFF34F8FFEE700BF4FF05000D2
:102B900080F31188BFF36F8FBFF34F8FFEE700BF45
:102BA000FFF794FED4F8009009EA0500B0FA80F12E
:102BB000401B18BF0120002F08BF4809002841D042
:102BC000B8F1000F42D03046002E18BF0120010698
:102BD00001F18061002F08BF0106201D29434246F4
:102BE000FFF774FD00F0ECFD50B94EF60450CEF244
:102BF00000004FF080510160BFF34F8FBFF36F8F24
:102C0000FFF77EFA8046800116D4FFF723FBD4F845
:102C1000008018EA0500A0EB050118BF0120002F75
:102C2000B1FA81F118BF4809002E1EBF002828EA1A
:102C300005002060FFF732FB28F07F49484601B0CD
:102C4000BDE8F08316B129EA0500206000F0B8FD68
:102C5000484601B0BDE8F083B0B584B04EF2004CF8
:102C6000CEF2000C4CF27021C4F20F11DCF80029F6
:102C70004B1C9A420AD14FF0500080F31188BFF3E9
:102C80006F8FBFF34F8F00BFFEE700BFDCF8002956
:102C90008A4209D14FF0500080F31188BFF36F8F43
:102CA000BFF34F8FFEE700BF9CF800100291FF2199
:102CB0008CF800109CF800108DF807109DF8071094
:102CC00001F0500240F24C11C2F200010A700722DA
:102CD0004A609DF90720B2F1FF3F69DC032200BF83
:102CE000D31C4B609DF8070040008DF807009DF94C
:102CF0000700B0F1FF3F23DC931C4B609DF80700F9
:102D000040008DF807009DF90700B0F1FF3F17DC88
:102D1000531C4B609DF8070040008DF807009DF99B
:102D20000700B0F1FF3F0BDC4A609DF80700043A52
:102D300040008DF807009DF907000028D0D4131D2E
:102D4000032B35D14FF44070486002988CF8000096
:102D5000DCF8200940F47000CCF82009DCF82009E8
:102D600040F07040CCF82009FFF71AFB40F2100445
:102D7000C2F2000400252560FFF762FA4EF63470B7
:102D8000CEF20000016841F040410160FEF726FEEE
:102D9000FFF7A4FD039520684FF0500181F31188DF
:102DA000BFF36F8FBFF34F8F013011D0FEE700BF2D
:102DB0004FF0500080F31188BFF36F8FBFF34F8F38
:102DC000FEE700BF039830B9039820B9039810B903
:102DD00003980028F6D0002004B0B0BD80B54FF0B5
:102DE000500080F31188BFF36F8FBFF34F8F00F057
:102DF000E5FB30B14EF60450CEF200004FF08051AA
:102E00000160002080F3118880BD000070B582B0A1
:102E100070B11C46B3B1F9B9F2B14FF0500080F374
:102E20001188BFF36F8FBFF34F8F00BFFEE700BF66
:102E30004FF0500080F31188BFF36F8FBFF34F8FB7
:102E4000FEE700BF4FF0500080F31188BFF36F8F93
:102E5000BFF34F8FFEE700BF51B14AB94FF05000AA
:102E600080F31188BFF36F8FBFF34F8FFEE700BF72
:102E700050230193019B502B2ED1019B069E0123D1
:102E800084F84630002908BF22462260C4E90F01B9
:102E9000FFF7E0F92068D4E90F12002502FB0103D7
:102EA000013901FB0201A563C4E90103FF20E160D0
:102EB00084F8440084F8450004F11000FFF770F92D
:102EC00004F12400FFF76CF9FFF7E8F9204684F8D5
:102ED0004C6002B070BD00BF4FF0500080F311880D
:102EE000BFF36F8FBFF34F8FFEE700002DE9F04F68
:102EF00083B00292C0B11D4617460E460446E9B1A2
:102F0000022D03D1E06B012840F0888000F040FBE7
:102F100010BB0FB34FF0500080F31188BFF36F8FD9
:102F2000BFF34F8FFEE700BF4FF0500080F31188D2
:102F3000BFF36F8FBFF34F8FFEE700BF206C0028F9
:102F4000DED04FF0500080F31188BFF36F8FBFF3D6
:102F50004F8F00BFFEE700BFFFF77CF9A06B022D8B
:102F600066D0E16B884263D304F1100801206F46FC
:102F70000DF108090DE000BF2046FEF729FF00F023
:102F80001FFCFFF767F9A06BE16B88424FF0000070
:102F90004ED30299002973D0C00702D03846FFF7FC
:102FA0000BFBFFF77BF9FFF791FCFFF753F994F860
:102FB0004400FF2804BF002084F8440094F8450032
:102FC000FF2804BF002084F84500FFF767F9384662
:102FD000494600F01FFA002858D1FFF73BF9D4F812
:102FE00038A0D4F83CB0FFF759F9DA45C4D10299BA
:102FF0004046FFF7F3FA2046FEF7EAFE00F0E0FB5A
:103000000028BED14EF60450CEF200004FF08051A1
:103010000160BFF34F8FBFF36F8FB2E74FF05000E7
:1030200080F31188BFF36F8FBFF34F8FFEE700BFB0
:10303000A76B226CD2B19DB3E0683146FDF78CF9E5
:10304000E168206C2268091A9142E16003D2A1680C
:1030500040420844E060A81EB0FA80F040093946BA
:10306000002F18BF012108403F1A26E020680025E4
:1030700020BBA06800F024FBA56005461EE000BF51
:10308000FFF70CF9002003B0BDE8F08F2046FEF7F3
:103090009FFE00F095FB002003B0BDE8F08F00BF5D
:1030A00060683146FDF758F9216CD4E90102084403
:1030B0009042606001D3206860600025781CA063A6
:1030C00054F8240FA0B1204600F040FB50B14EF65A
:1030D0000450CEF200004FF080510160BFF34F8FDB
:1030E000BFF36F8FFFF7DAF8012003B0BDE8F08F70
:1030F000002DF7D04EF60450CEF200004FF0805174
:103100000160BFF34F8FBFF36F8FFFF7C7F8012048
:1031100003B0BDE8F08F00002DE9F04700B31E4674
:10312000144605460F4629B3022E02D1E86B01284A
:1031300052D1FFF74FF9EFF311884FF0500080F3B1
:103140001188BFF36F8FBFF34F8FA86B022E1FD074
:10315000E96B88421CD3002088F31188BDE8F08712
:103160004FF0500080F31188BFF36F8FBFF34F8F84
:10317000FEE700BF286C0028D6D04FF0500080F347
:103180001188BFF36F8FBFF34F8F00BFFEE700BF03
:1031900095F84590A86BD5F838A02A6C32B36EB379
:1031A000E8683946FDF7D8F8E968286C2A68091AF2
:1031B0009142E96003D2A96840420844E860B01E29
:1031C000B0FA80F040095146BAF1000F18BF012152
:1031D0000840AAEB000A1EE04FF0500080F311886F
:1031E000BFF36F8FBFF34F8FFEE700BF286890B922
:1031F000A86800F065FA0020A8600CE0686839460D
:10320000FDF7AAF8296CD5E90102084490426860EC
:1032100001D3286868600AF10100B9F1FF0FA863C3
:1032200010D155F8240FB8B1284600F08FFA0146A6
:10323000002C4FF0010018BF002913D188F311882A
:10324000BDE8F08709F1010085F84500012088F309
:103250001188BDE8F08700BF012088F31188BDE820
:10326000F08700BF0120206088F31188BDE8F08757
:103270002DE9F04F83B0029290B116460D460446F8
:10328000002947D000F084F9A0B99EB14FF050005A
:1032900080F31188BFF36F8FBFF34F8FFEE700BF3E
:1032A0004FF0500080F31188BFF36F8FBFF34F8F43
:1032B000FEE700BFFEF7CEFFD4F838A0BAF1000F4A
:1032C00036D0226C52B1D4E902308118E1609942C3
:1032D00024BF2168E1602846FDF73EF8AAF101000D
:1032E000A06354F8100F70B1204600F02FFA50B1CF
:1032F0004EF60450CEF200004FF080510160BFF353
:103300004F8FBFF36F8F0124FEF7C8FF204603B035
:10331000BDE8F08F206C0028B4D04FF0500080F34F
:103320001188BFF36F8FBFF34F8F00BFFEE700BF61
:1033300004F1240801206F464FF000090DF1080B3D
:103340002EE000BFFEF7AAFFFFF7C0FAFEF782FFEC
:1033500094F84400FF2808BF84F8449094F845008E
:10336000FF2808BF84F84590FEF798FF3846594675
:1033700000F050F8E0B12046FEF72AFD00F020FAF8
:10338000FEF768FFA66BFEF789FF002E3CD0FEF724
:1033900061FFD4F838A00020BAF1000F7FF491AF9C
:1033A000029949B3C007CDD03846FFF705F9C9E700
:1033B000FEF750FFA66BFEF771FF2EB12046FEF719
:1033C00007FD00F0FDF9E2E702994046FFF706F934
:1033D0002046FEF7FDFC00F0F3F90028D7D14EF6A9
:1033E0000450CEF200004FF080510160BFF34F8FC8
:1033F000BFF36F8FCBE700BF0024FEF74FFF2046DF
:1034000003B0BDE8F08F00BF0024204603B0BDE844
:10341000F08F0000B0B5D8B10D4619B30446FEF7E1
:1034200019FF40F2780CC2F2000CDCF81820296871
:103430004B1C21D0D4E9000EDCF83830834221D077
:1034400072451FD30124FEF729FF2046B0BD00BFFF
:103450004FF0500080F31188BFF36F8FBFF34F8F91
:10346000FEE700BF4FF0500080F31188BFF36F8F6D
:10347000BFF34F8FFEE700BF0024FEF70FFF20468B
:10348000B0BD00BFA2EB0E0291420DD9881A286090
:10349000DCF838002060DCF8180060600024FEF7DB
:1034A000FDFE2046B0BD00BF002001242860FEF7CD
:1034B000F5FE2046B0BD00002DE9F04383B007467D
:1034C0009000984615468946FEF7BCFCF8B10646C2
:1034D0005C20FEF7B7FCB8B10446DDE90A10002213
:1034E000266384F85920CDE90010384649462A461B
:1034F00043460294FEF7DEF92046FEF751F801201C
:1035000003B0BDE8F08300BF3046FEF7DFFE4FF0AA
:10351000FF3003B0BDE8F08370B586B00B9CCCB132
:103520000C9E0EB35C250495049D5C2D26D1049D54
:10353000DDF828C0022586F8595005AD3463CDE981
:1035400000C50296FEF7B6F93046FEF729F8059851
:1035500006B070BD4FF0500080F31188BFF36F8F3D
:10356000BFF34F8FFEE700BF4FF0500080F311888C
:10357000BFF36F8FBFF34F8FFEE700BF4FF05000D8
:1035800080F31188BFF36F8FBFF34F8FFEE700000A
:1035900040F27800C2F20000016900290FBF01204B
:1035A0004069B0FA80F0400918BF40007047000041
:1035B00040F27800C2F20000806970472DE9F043C4
:1035C00081B040F27806C2F20006706940B1706BBB
:1035D000002401307063204601B0BDE8F08300BFD5
:1035E000B06910F10109C6F8189020D3F06900689D
:1035F00050B14FF0500080F31188BFF36F8FBFF3CD
:103600004F8F00BFFEE700BFF069316AF1613062A1
:10361000B06B0130B063F069006828B1F069C06830
:10362000C068406802E000BF4FF0FF30F062F06A0F
:1036300040F2D4288145C2F2000801D200242EE0D5
:10364000F0690024006813E0F86A716A884288BF54
:10365000706200EB800008EB80002946FEF7E2FD77
:10366000F86A3168C96AF269884228BF0124106883
:1036700090B1F069C068C7683D4655F8040F8145B0
:103680000CD32846FEF72AFDB86A0028DCD007F1E3
:103690001800FEF723FDD7E74FF0FF30F0623068E7
:1036A000C06A00EB800058F82000012888BF012480
:1036B000306B002818BF0124204601B0BDE8F0831C
:1036C00070B588B140F27806C2F200060446306850
:1036D000A0420BD04FF0500080F31188BFF36F8FE2
:1036E000BFF34F8FFEE700BF002070BD206D18B301
:1036F000411EE06AE26C216590424FF0000008BF75
:1037000070BDC1B9251D2846FEF7E8FCE06CC0F18C
:103710003801E062A161716A884240F2D42188BF19
:10372000706200EB8000C2F2000101EB80002946CC
:10373000FEF778FD012070BD4FF0500080F3118836
:10374000BFF36F8FBFF34F8FFEE7000070B5C06807
:10375000C5686DB105F118042046FEF7BFFC40F2C4
:103760007806C2F20006706960B106F164001AE0E2
:103770004FF0500080F31188BFF36F8FBFF34F8F6E
:10378000FEE700BF2C1D2046FEF7A8FCE86A716A20
:10379000884240F2D42188BF706200EB8000C2F200
:1037A000000101EB80002146FEF73CFDE86A31682C
:1037B000C96A884292BF00200120306370BD0000BA
:1037C0002DE9F04140F27805C2F20005686968B160
:1037D000FEF740FD686901386861686980B10024BE
:1037E000FEF75CFD2046BDE8F08100BF4FF05000C1
:1037F00080F31188BFF36F8FBFF34F8FFEE700BFD9
:10380000E8680028EBD0686E88B340F2D426C2F294
:1038100000064FF0010800BF286FC76807F11800C5
:10382000FEF75CFC3C1D2046FEF758FCF86A696A0E
:10383000884288BF686200EB800006EB800021466A
:10384000FEF7F0FCF86A2968C96A884228BFC5F803
:103850003080686E0028DFD1E869006820B1E8692F
:10386000C068C068406801E04FF0FF30E8626C6BF0
:103870004CB10126FFF7A2FE002818BF2E63013CC1
:10388000F8D100206863286B0028A8D04EF60450B9
:10389000CEF200004FF080510160BFF34F8F012442
:1038A000BFF36F8FFEF7FAFC2046BDE8F081000001
:1038B00070B586B0FEF7CEFC40F2F006C2F200060C
:1038C000306808BB06F114042046FEF769FC06F1D7
:1038D00028052846FEF764FC40F2E41240F28423F7
:1038E000C6E902450025C2F20002C2F200030A2026
:1038F00010210095FFF78AFA306028B143F66C2159
:10390000C0F60001FEF796FDFEF7C8FC3068D8B19E
:103910000020CDE9040005A804A903AAFEF70CFCC9
:10392000DDE903200221059DCDE9001041F6452087
:10393000C0F6000009A100230295FFF7EDFD7060BD
:1039400010B1012006B070BD4FF0500080F3118817
:10395000BFF36F8FBFF34F8FFEE700BF546D722030
:103960005376630080B584B09C466FF00103CDE9C7
:10397000003040F2F000C2F20000006802910392B1
:10398000694662460023FFF7C7FB04B080BDF1EE35
:10399000100A4FF6FF71C0F2C03120EA010040F07A
:1039A0004070E1EE100A70470000000000000000C7
:1039B00001020304060708090000000001020304D5
:1039C000873A00080000000000000000000000002E
:1039D00000000000000400001800000000000000CB
:1039E00000000000713A0008000000000000000024
:1039F00000000000000000000004000018000000AB
:103A000000000000000000007C3A000800000000F8
:103A100000000000000000000000000000040000A2
:103A2000180000000000000000000000913A0008AB
:103A3000000000000000000000000000603A0008E4
:103A40000000000000000000000000000000000076
:103A5000000200001800000000000000000000004C
:103A600064656661756C745461736B00546D72515A
:103A70000074657374335F7461736B007465737481
:103A8000345F7461736B00746573745F7461736B1E
:103A900000746573745F6576656E7400C03A0008E3
:103AA0000000002018000000C4010008D83A0008F7
:103AB0001800002018500000E0010008000000007D
:103AC00001000000100000000024F40002000000CB
:083AD000AAAAAAAA0000000046
:040000050800018965
:00000001FF
