:020000040800F2
:100000002850002029020008C10F0008590F0008DD
:10001000BD0F00082105000899120008000000002B
:100020000000000000000000000000004110000877
:100030002505000800000000D10F00086D10000821
:10004000430200084302000843020008430200087C
:10005000430200084302000843020008430200086C
:10006000430200084302000843020008430200085C
:10007000430200084302000843020008430200084C
:10008000430200084302000843020008430200083C
:10009000430200084302000843020008430200082C
:1000A000430200084302000843020008430200081C
:1000B000430200084302000843020008430200080C
:1000C00043020008430200084302000843020008FC
:1000D00043020008430200084302000843020008EC
:1000E00043020008430200084302000843020008DC
:1000F00043020008430200084302000843020008CC
:1001000043020008430200084302000843020008BB
:100110004302000843020008491100084302000896
:10012000430200084302000843020008430200089B
:10013000430200084302000843020008430200088B
:10014000430200084302000843020008430200087B
:10015000430200084302000843020008430200086B
:10016000430200084302000843020008430200085B
:100170004302000843020008430200080000000098
:10018000430200084302000800F002F800F03CF8C7
:100190000AA090E8000C82448344AAF10107DA45E2
:1001A00001D100F031F8AFF2090EBAE80F0013F0F8
:1001B000010F18BFFB1A43F0010318470C3C000065
:1001C0002C3C0000103A24BF78C878C1FAD85207F6
:1001D00024BF30C830C144BF04680C6070470000C1
:1001E0000023002400250026103A28BF78C1FBD840
:1001F000520728BF30C148BF0B6070471FB503F0DE
:1002000063FD1FBD10B510BD00F04FF91146FFF79B
:10021000F5FF01F06FF800F06DF903B4FFF7F2FF9E
:1002200003BC00F075F90000094880470948004701
:10023000FEE7FEE7FEE7FEE7FEE7FEE7FEE7FEE796
:10024000FEE7FEE704480549054A064B70470000F3
:100250003511000889010008284A00202850002094
:10026000284C0020284C002053EA020C00F0698042
:100270002DE9F04B4FF00006002B1FBFB3FA83F5BA
:1002800003FA05F424FA05F65E4012BF1643B2FAEB
:1002900082F502FA05F4C5F120051EBF22FA05FC1D
:1002A00044EA0C04203556EA044C4FEA144418BFC3
:1002B000641C4FF000084FF00009904271EB030CF2
:1002C00039D3002919BFB1FA81F701FA07F6B0FA5C
:1002D00080F700FA07F6C7F120071EBF20FA07FCD7
:1002E00046EA0C062037B6FBF4FCA7EB0507103FE7
:1002F00007F01F0BCBF120062CFA06F60CFA0BFBCD
:1003000044BFB3460026202FA4BF5E464FF0000B2B
:100310005BEA060C08BF4FF0010B19EB0B0948EB29
:100320000608ABFB027C06FB02CC0BFB03CCC01B1C
:1003300071EB0C01C1E70B46024641464846BDE859
:10034000F08B13B5084318BF4FF0FF300146AFF3F1
:100350000080BDE81C407047032A40F2308010F056
:10036000030C00F0158011F8013BBCF1020F624450
:1003700098BF11F801CB00F8013B38BF11F8013BE1
:10038000A2F1040298BF00F801CB38BF00F8013B8E
:1003900011F0030300F05780083AC0F0088051F8CC
:1003A000043B083A51F804CBA0E80810F5E7121D09
:1003B0005CBF51F8043B40F8043BAFF30080D20728
:1003C00024BF11F8013B11F801CB48BF11F8012BF4
:1003D00024BF00F8013B00F801CB48BF00F8012B17
:1003E000704702F0FF0343EA032242EA024200F0B0
:1003F00002B84FF0000200B51346944696462039E5
:1004000022BFA0E80C50A0E80C50B1F12001BFF4CD
:10041000F7AF090728BFA0E80C5048BF0CC05DF833
:1004200004EB890028BF40F8042B08BF704748BF81
:1004300020F8022B11F0804F18BF00F8012B7047F5
:1004400070477047704710B5203AC0F00B80B1E894
:100450001850A0E81850B1E81850A0E81850203AF9
:10046000BFF4F5AF5FEA027C24BFB1E81850A0E802
:10047000185044BF18C918C0BDE810405FEA827C1C
:1004800024BF51F8043B40F8043B08BF7047D20733
:1004900028BF31F8023B48BF11F8012B28BF20F8D4
:1004A000023B48BF00F8012B7047754600F02CF85E
:1004B000AE4605006946534620F00700854618B051
:1004C00020B5FFF7BFFEBDE820404FF000064FF01B
:1004D00000074FF000084FF0000BAC46ACE8C00935
:1004E000ACE8C009ACE8C009ACE8C00921F00701DC
:1004F0008D46704710B50446AFF300802046BDE836
:100500001040FFF78ABE000000487047100000202E
:1005100001491820ABBEFEE726000200704700002C
:10052000FEE700007047000044F22C30C2F20000E9
:100530000068704740F2000044F22C31C2F2000023
:10054000C2F2000100780A68104408607047000099
:1005500080B543F60040C4F20200016841F4007126
:100560000160016841F480610160016841F48071BB
:100570000160032000F0C8F80F2000F005F800F03B
:1005800061F8002080BD000070B586B0002543F6FC
:1005900040010195C4F202010A68044642F01002CB
:1005A0000A60096801A801F01001019101996946EA
:1005B00000F06AF9049E002E18BF012600F084F9AD
:1005C0004DF68361B040C4F21B31A0FB01014FF036
:1005D000FF3000EB914140F2941041F20002C2F270
:1005E0000000C4F2000240F2E733C0E90021C0E994
:1005F00002530561856100F06FFB054610B1284686
:1006000006B070BD40F29410C2F2000000F094FBFE
:1006100005460028F3D1362000F036F80F2C0DD80F
:10062000362021460022002500F042F840F2040066
:10063000C2F200000460284606B070BD01252846BD
:1006400006B070BD82B0002043F640010190C4F2B4
:1006500002014A6842F480424A604A6802F48042D9
:100660000192019A00900868002240F080500860D2
:1006700008680F2100F08050009000986FF0010092
:1006800002B000F015B80000002848BF7047C1B2A2
:1006900000F01F00012202FA00F04EF20012CEF22A
:1006A000000242EAD10121F0030108607047000016
:1006B00010B54EF60C5CCEF2000CDCF80030C3F343
:1006C000022E8EF00704042C28BF0424BEF103037D
:1006D0004FF0FF3E0EFA04F438BF0023A1439940C7
:1006E0000EFA03F39A43114300F00F0200F1604346
:1006F0000901043A03F564436244002848BF02F14B
:100700000C03197010BD00004EF60C51CEF2000122
:100710000A684FF6FF031A4060F30A2242F0806035
:1007200040F0FD70086070472DE9F041002800F0AE
:100730008B8043F60808C4F202080446D8F8F80390
:100740000D4600F00700884207D288F8F853D8F821
:10075000F80300F00700A84276D12068810717D57A
:10076000410705D5D8F8001041F4E051C8F8001051
:10077000010705D5D8F8001041F46041C8F8001011
:10078000D8F80010A26821F0F0011143C8F8001059
:10079000C0073FD1D8F8F80300F00700A84207D9F6
:1007A00088F8F853D8F8F80300F00700A8424BD1B6
:1007B0002068410707D5D8F80010E26821F4E0511D
:1007C0001143C8F80010000708D5D8F800002169C7
:1007D00020F4604040EAC100C8F8000000F088F84A
:1007E000D8F8001043F6E242C1F30311C0F600024C
:1007F000515C40F2080220FA01F140F20400C2F21A
:1008000000000068C2F200021160FFF7BDFE002088
:10081000BDE8F0816068811E022907D258F8081CE3
:1008200089015CBF0120BDE8F08111E0012807D1FA
:1008300058F8081C89035CBF0120BDE8F08107E07F
:1008400058F8081C890703D40120BDE8F08100BFD7
:10085000D8F8001021F003010843C8F80000FFF7A2
:1008600063FE064641F28837D8F80000616800F060
:100870000C00B0EB810F8DD0FFF756FE801BB84205
:10088000F2D90320BDE8F0810F22026043F608028E
:10089000C4F20202136803F003034360136803F019
:1008A000F0038360136803F4E053C360D2F800C020
:1008B0004FF4E05303EADC030361D2F8F80300F0DD
:1008C000070008607047000040F2080043F6080186
:1008D000C2F20000C4F202010068096843F6F24265
:1008E000C1F38221C0F60002515CC840704700008D
:1008F00010B543F60404C4F20204606800F00C0072
:1009000008280BD0042819BF42F20040C0F2F400BE
:1009100041F60030C0F2B70010BD00BF206821686A
:100920002368490241F60031C0F2B70100F03F02EE
:10093000C3F388105CBF42F20041C0F2F401A1FB96
:1009400000010023FFF790FC21680222C1F301415E
:1009500002EB4101B0FBF1F010BD00002DE9F041C8
:1009600082B0002868D00446007843F60006C0072D
:10097000C4F202060BD0B06800F00C00042840F06E
:100980009F803068800302D56068002854D02078AA
:1009900080071AD5B06810F00C0F09D0B06800F0CD
:1009A0000C00082840F0A6807068400200F1A28088
:1009B0003068800702D5E06801283DD130682169A0
:1009C00020F0F80040EAC10030602078000737D4FA
:1009D000207840074CD4A56955B3B06800F00C00EE
:1009E000082840F0BB80012D26D07068E16900F432
:1009F00080028A4220D1216A00F03F028A421BD144
:100A000047F6C071626A0140B1EB821F14D1A16A3E
:100A10004FF6FF73C903994300F44032A1F58031CA
:100A20008A4209D1E16A00F07060B0EB016F03D136
:100A3000002002B0BDE8F081012002B0BDE8F081E5
:100A40006069002840F20000C4F2472076D00121FE
:100A5000C0F8801EFFF768FD054600BF706F800775
:100A6000B6D4FFF761FD401B0228F7D9DDE000BFD7
:100A7000306C10F080580AD100200190306C40F0AA
:100A800080503064306C00F080500190019847F243
:100A90000007C4F200073868C00541D4386840F444
:100AA00080703860FFF740FD054600BF3868C0051C
:100AB00036D4FFF739FD401B0228F7D9B5E000BF57
:100AC000B06800F00C00082803D1706840023FF5C0
:100AD00058AF6068B0F5803F07D0B0F5A02F40F068
:100AE0008D80306840F480203060306840F4803081
:100AF00030608DE0E068002852D00020C4F247202A
:100B000001210160FFF710FD054600BF3068800736
:100B10003FF554AFFFF708FD401B0228F6D984E0EB
:100B2000A068012805D005284ED1306F40F00400A0
:100B30003067306F40F0010030674FE00021C0F8AF
:100B4000801EFFF7F1FC0546706F80077FF540AF10
:100B5000FFF7EAFC401B0228F6D966E00027C4F242
:100B6000472700203866FFF7DFFC022D05460BD132
:100B7000306880015ED5FFF7D7FC401B02284FF09C
:100B80000300F5D955E700BF306880017FF550AF0D
:100B9000FFF7CAFC401B02284FF00300F4D948E7D6
:100BA0000020C4F2472000210160FFF7BDFC05468C
:100BB000306880077FF509AFFFF7B6FC401B0228BD
:100BC0004FF00300F4D934E7316F002821F0010120
:100BD0003167316F21F0040131674DD0FFF7A4FC7C
:100BE000054641F2883700BF306F800756D4FFF7C3
:100BF0009BFC401BB842F7D917E000BF31680028C2
:100C000021F480313160316821F4802131604FD08E
:100C1000FFF78AFC054600BF306880033FF5B7AE9A
:100C2000FFF782FC401B6428F6D9032002B0BDE820
:100C3000F08100BF04F11C052FCD084340EA82106B
:100C4000D9034FF6FF729143A1F5803140EA056068
:100C50000843706001203866FFF766FC044600BF59
:100C6000306880013FF5E4AEFFF75EFC001B022810
:100C70004FF00300F4D9DCE6FFF756FC054641F2DD
:100C8000883700BF306F800708D5FFF74DFC401B49
:100C9000B8424FF00300F5D9CBE600BFB8F1000F22
:100CA0007FF499AE306C20F08050306493E600BF42
:100CB000FFF73AFC054600BF306880037FF567AE5A
:100CC000FFF732FC401B64284FF00300F4D9B0E674
:100CD0007047000070470000002804BF01207047E3
:100CE00010B5044690F83D0028B9002084F83C0077
:100CF000204600F01FF8022084F83D002068211DE6
:100D000000F028FA012084F8460084F83E0084F8B8
:100D10003F0084F8400084F8410084F8420084F8E1
:100D2000430084F8440084F8450084F83D00002026
:100D300010BD00007047000090F83D1001291CBF55
:100D400001207047022180F83D10006841F2FF72D7
:100D5000C168C4F20002904241F00101C1600DDCA3
:100D600040F2FF71C4F20001884215DCB0F1804FFF
:100D70002AD040F20041C4F2000123E040F2FF31EA
:100D8000C4F20101884213DC41F60001C4F2000103
:100D9000884219D0002113E040F60001C4F200019E
:100DA000884211D040F60041C4F200010AE000BFC1
:100DB00044F20001C4F20101884205D040F2004132
:100DC000C4F20101884206D1816801F007010629B9
:100DD00004BF00207047016841F00101016000205C
:100DE000704700007047000070B504460068C56891
:100DF0000669B10716D515F0020113D06FF0020194
:100E00000161012121778069800703D02046FFF727
:100E1000E9FF05E0204600F08FF8204600F08EF84C
:100E200000202077700719D515F0040016D020682F
:100E30006FF00401016102212177806910F4407F85
:100E400004D02046FFF7CEFF06E000BF204600F0AA
:100E500073F8204600F072F800202077300717D58D
:100E600015F0080014D020686FF00801016104211A
:100E70002177C069800703D02046FFF7B3FF05E064
:100E8000204600F059F8204600F058F8002020775E
:100E9000F00619D515F0100016D020686FF010017B
:100EA000016108212177C06910F4407F04D02046F9
:100EB000FFF798FF06E000BF204600F03DF820460F
:100EC00000F03CF800202077F00718BF15F0010073
:100ED00002D1300609D412E020686FF001010161EF
:100EE000204600F02DF8300609D515F0800006D018
:100EF00020686FF0800101612046FFF7E9FE70066F
:100F000009D515F0400006D020686FF0400101615E
:100F1000204600F01FF8B00658BF70BD15F0200045
:100F200008D021686FF0200220460A61BDE87040B9
:100F3000FFF7D0BE70BD0000704700007047000092
:100F4000006841F20001C4F20001884218BF7047F6
:100F5000FFF7F0BA70470000FEE7000080B501F02F
:100F60001BF941F2650043F66C52C0F60000C0F672
:100F70000002002100F040FB40F29011C2F200019B
:100F8000086080BD82B0002043F630010190C4F2B9
:100F900002010A6842F001020A600A6802F00102D6
:100FA0000192019A0090086840F08000086008688B
:100FB00000F080000090009802B07047FEE700004B
:100FC000FEE700000000000000000000000000003C
:100FD000EFF30980BFF36F8F154B1A681EF0100FE7
:100FE00008BF20ED108A20E9F04F10602DE90900BC
:100FF0004FF0500080F31188BFF34F8FBFF36F8F16
:1010000001F04AFD4FF0000080F31188BDE80900AF
:1010100019680868B0E8F04F1EF0100F08BFB0EC78
:10102000108A80F30988BFF36F8F704700BF00BF3D
:101030007000002000000000000000000000000020
:10104000074B19680868B0E8F04F80F30988BFF3D0
:101050006F8F4FF0000080F31188704700BF00BF12
:1010600070000020012000F053F9FBE780B54EF23C
:101070001000CEF20000006802F0E8FB012808BF73
:1010800080BDBDE8804001F027BE0000B0B592B041
:10109000002443F64000CDE90A44CDE90844059414
:1010A000CDE90344CDE901440094C4F20200016893
:1010B000022541F080510160006800F080500090EE
:1010C000009847F200000094C4F20000016841F467
:1010D00080410160006800F4804000900098012089
:1010E00006904FF4803007904FF480000D9006205A
:1010F0000E90A820CDE90F050420119006A80C95AC
:10110000FFF72CFC10B172B6FEE700BF0F20CDE94F
:1011100001054FF4A05004904FF48050059001A8B1
:1011200005210394FFF700FB10B172B6FEE700BF84
:1011300012B0B0BD4EF68850CEF20000016841F406
:10114000700101607047000040F29410C2F200008C
:10115000FFF74ABEB0B540F6FF3E0568C4F2000E88
:1011600040F2004C7045C4F2010C27DCB0F1804F16
:1011700031D040F20043C4F2000398422BD040F635
:101180000003C4F20003984225D041F6FF73C4F275
:10119000000398422ADC70453CDCB0F1804F5FD000
:1011A00040F20043C4F20003984259D040F60003D5
:1011B000C4F20003984253D057E000BF40F600430A
:1011C000C4F20003984206D0604504D00023C4F264
:1011D00001039842D9D14B6825F0700243EA020519
:1011E00041F6FF73C4F200039842D4DD43F6FF7367
:1011F000C4F20103984221DC42F20003C4F200036E
:1012000098422DD00023C4F20103984228D06045B3
:1012100026D02AE040F60043C4F2000398421FD0D3
:1012200041F60003C4F20003984219D041F600438E
:10123000C4F20003984213D017E000BF44F2000349
:10124000C4F2010398420BD044F60003C4F2010338
:10125000984205D044F20043C4F20103984204D1FD
:10126000CB6825F4407243EA02050A688C684B6932
:10127000C46240F480648262644504BF096901630A
:10128000026825F0800142F0040219430260012245
:1012900042610160B0BD0000FEE7000040F24C1466
:1012A000C2F2000460684FF0FF3100F0E1F82069FD
:1012B00001302061F6E7000040F24C154CF6CD46B7
:1012C000C2F20005CCF6CC4604E000BF04F1640095
:1012D00000F02EF800F048F8A9680446481C00FB0E
:1012E00006F1B1F1333FA860F0D8686800F052F918
:1012F000ECE70000FFF72CF9FFF7C8FEFFF742FE0E
:1013000000F03AF8FFF72AFE00F04AF8FEE7000086
:10131000EFF3058100291CBF6FF00500704700281E
:1013200004BF0020704780B501F0B4F9002080BDF3
:1013300010B582B0EFF3058121B16FF0050002B066
:1013400010BD00BF044602F091FA014601908442AC
:101350006FF0030005D0611A03D401A801F0DAF997
:10136000002002B010BD0000EFF30580002808BF88
:1013700002F07CBA02F080BAEFF3058000281CBFAF
:101380006FF00500704740F28C10C2F20000016857
:10139000002911BF4FF0FF3001210160002070478C
:1013A00010B5EFF3058000281CBF6FF0050010BDDD
:1013B00040F28C10C2F20000016801291CBF4FF0FE
:1013C000FF3010BD4EF61F51CEF2000100240C700C
:1013D0000221016001F0E0FA204610BD70B582B034
:1013E000154600294FF00004EFF3058218BF0028CE
:1013F00002D1204602B070BD002AFAD1B5B1D5E9BC
:1014000002321BB3502A26D32A6922B36E6901FB2C
:1014100000F4A6424FF00004EBD3009401F03CFD31
:1014200006460028E5D02C6807E000BF0022002413
:1014300001F0EEFC06460028DBD03046214601F0E4
:1014400053F83446204602B070BD00BF1AB92A696D
:101450000AB96A6922B10024204602B070BD00BFFB
:101460000022002401F0D4FC06460028DBD1C0E7AE
:1014700010B582B020B10C46EFF3058121B18CB1DB
:101480006FF0030002B010BD214602F033F80128CE
:101490001DD06FF00100002C08BF6FF0020002B0F9
:1014A00010BD00BF0021019101AA002101F0B0FF91
:1014B00001280FD1019850B14EF60450CEF2000031
:1014C0004FF080510160BFF34F8FBFF36F8F00204B
:1014D00002B010BD6FF0020002B010BD70B582B056
:1014E0000E4686424FF00005EFF3058116D8A8B1ED
:1014F000A1B91446B2B1D4E902216AB14F2945D944
:10150000A368012832D10325012000210022009583
:1015100001F0C2FC0DE000BF21B10025284602B059
:1015200070BD00BF01280BD101200021032201F072
:101530006FFC0546002E18BF002D07D1E5B925E048
:10154000314601F0E1FB0546B5B91FE02846002110
:101550000022002301F010FD01280DD0284601F0E3
:101560001BF80025284602B070BD00BF31461A4660
:1015700001F0ECFB05464DB1002C14BF21680021A1
:10158000284600F0B1FF284602B070BD002528466D
:1015900002B070BD80B582B0D0B1EFF30581D9B192
:1015A0000021019101A901F0FDFD012820D1019840
:1015B00050B14EF60450CEF200004FF08051016061
:1015C000BFF34F8FBFF36F8F002002B080BD00BF0D
:1015D0006FF0030002B080BD00210022002301F063
:1015E000CBFC013818BF6FF0020002B080BD00BF15
:1015F0006FF0020002B080BD2DE9F04184B08E464C
:1016000000240394EFF3058150B149B94FF0000471
:1016100052B19369002B08BF1823382B16D9002428
:10162000204604B0BDE8F08180251823002103AFD7
:101630000093AAB27346019702F09CF8039901281F
:1016400008BF0C46204604B0BDE8F0811179C907F7
:1016500024D15769D2E902864FEA970C1168002F0E
:10166000654608BF8025B8F1000F13D05C2E15D356
:1016700012690024002A18BF002FD1D0CDE9003212
:1016800062467346CDF8088002F0A4F804B0BDE8C5
:10169000F08100BF16B91269002AC8D00024204684
:1016A00004B0BDE8F08100002DE9F041044600F0EF
:1016B0002BFE40F27006C2F20006F06840F2CC2524
:1016C0000130F0603068C2F2000558B1306900287E
:1016D00040F007813068E16AC06A884298BF346090
:1016E000FFE000BF3460F068012840F0FA8028462F
:1016F00000F0B0FD05F1140000F0ACFD05F128008C
:1017000000F0A8FD05F13C0000F0A4FD05F150003B
:1017100000F0A0FD05F1640000F09CFD05F17800EB
:1017200000F098FD05F18C0000F094FD05F1A0009B
:1017300000F090FD05F1B40000F08CFD05F1C8004B
:1017400000F088FD05F1DC0000F084FD05F1F000FB
:1017500000F080FD05F5827000F07CFD05F58C70D1
:1017600000F078FD05F5967000F074FD05F5A070A9
:1017700000F070FD05F5AA7000F06CFD05F5B47081
:1017800000F068FD05F5BE7000F064FD05F5C87059
:1017900000F060FD05F5D27000F05CFD05F5DC7031
:1017A00000F058FD05F5E67000F054FD05F5F07009
:1017B00000F050FD05F5FA7000F04CFD05F50270E3
:1017C00000F048FD05F5077000F044FD05F50C70CC
:1017D00000F040FD05F5117000F03CFD05F51670B8
:1017E00000F038FD05F51B7000F034FD05F52070A4
:1017F00000F030FD05F5257000F02CFD05F52A7090
:1018000000F028FD05F52F7000F024FD05F534707B
:1018100000F020FD05F5397000F01CFD05F53E7067
:1018200000F018FD05F5437000F014FD05F5487053
:1018300000F010FD05F54D7000F00CFD05F552703F
:1018400000F008FD05F5577000F004FD05F55C702B
:1018500000F000FD05F5617000F0FCFC05F5667018
:1018600000F0F8FC05F56B7000F0F4FC05F5707005
:1018700000F0F0FC05F5757000F0ECFC05F57A70F1
:1018800000F0E8FC05F57F7000F0E4FC05F58260EF
:1018900000F0E0FC05F2244000F0DCFC05F5876078
:1018A00000F0D8FC05F24C4000F0D4FC40F2641883
:1018B000C2F20008404600F0CDFC08F1140738469B
:1018C00000F0C8FC06F1640000F0C4FC06F13C0026
:1018D00000F0C0FC06F1500000F0BCFCC6F81C8013
:1018E00037627068716A421CE06A726088426264A2
:1018F00088BF706200EB800005EB8000211D00F0C6
:10190000EBFC00F025FD306988B13068E16AC06AFF
:10191000884228BFBDE8F0814EF60450CEF20000A8
:101920004FF080510160BFF34F8FBFF36F8FBDE861
:10193000F081000040F2700540F2CC264EF60458CB
:10194000C2F20005C2F20006CEF200084FF0805746
:1019500003E000BF204600F013FDA868D0B100F0FE
:10196000D3FCA86CC468201D00F046FCE868013870
:10197000E860A8680138A86000F0EAFC94F8590013
:101980000228EAD00128E5D070B9206B00F0F8FCFD
:10199000E0E700BF30680228DFD3C8F80070BFF36B
:1019A0004F8FBFF36F8FD8E74FF0500080F311884F
:1019B000BFF36F8FBFF34F8FFEE700002DE9F047B5
:1019C0000A9C8246206B16460F46DDE908599100B5
:1019D000A5229846FEF705FD206B002F00EB860040
:1019E000A0F1040020F0070656D0387884F83400BF
:1019F000387800284BD0787884F83500787800283B
:101A000045D0B87884F83600B87800283FD0F87808
:101A100084F83700F878D0B3387984F8380038790A
:101A2000A8B3787984F83900787980B3B87984F8E4
:101A30003A00B87958B3F87984F83B00F87930B3B4
:101A4000387A84F83C00387A08B3787A84F83D0014
:101A5000787AE0B1B87A84F83E00B87AB8B1F87A0A
:101A600084F83F00F87A90B1387B84F84000387BE6
:101A700068B1787B84F84100787B40B1B87B84F80A
:101A80004200B87B00281CBFF87B84F8430000208C
:101A900084F8430003E000BF002084F834000027EE
:101AA000201D372D28BF3725E562C4E9135700F004
:101AB000DDFB04F1180000F0D9FBC5F13800A0618E
:101AC00030465146424624616462676584F8587026
:101AD00000F04EFBB9F1000F206018BFC9F80040BC
:101AE000BDE8F08708480068006880F308884FF078
:101AF000000080F3148862B661B6BFF34F8FBFF366
:101B00006F8F00DF00BF000008ED00E081B0002013
:101B1000009040F20C00C2F2000000684FF050014B
:101B200081F31188BFF36F8FBFF34F8F013007D060
:101B3000FEE700BF009830B9009820B9009810B9AE
:101B400000980028F6D001B07047000088B040F23D
:101B5000E80AC2F2000A0DF11009EB46DAF80800B3
:101B600005681DB1C068046801E000BF002400F0F2
:101B70008BFF01F07BFEDAF810100646884220D376
:101B8000002DCAF8106051D0A6424FD301F0CAFF11
:101B9000DAF80800C068C7683D1D284600F02CFB35
:101BA00097F82800410745D400F0FE0087F8280088
:101BB00084E000BF6860DAF8080039462D6100F063
:101BC00059FBDAF80800016831B3C068C5680468D9
:101BD0002F1D384600F010FB296A2846884795F8E3
:101BE00028004007EDD5A8692044A042E2D8DAF8E1
:101BF0000000002800F04881002004A931C101F054
:101C000025FEDAF8000049460022002301F0B4F96D
:101C10000028D6D138E100BFDAF80C10CAF81060FD
:101C2000CAE9021001F07EFF1AE100BF65B100228F
:101C300010E000BFB8693F610119B14279601FD956
:101C40000AF1080021E000BFDAF80C000068B0FAE1
:101C500080F04209DAF80000A11B00F0F1FC01F06D
:101C600061FF002840F0FC804EF60450CEF20000E8
:101C70004FF080510160BFF34F8FBFF36F8FEFE0E4
:101C8000311B814206D20AF10C000068294600F09F
:101C9000F1FA13E0DAF80000002800F013810020C8
:101CA00004A991C101F0D2FDDAF8000049460022F2
:101CB000002301F061F9002800F00481396A3846F8
:101CC0008847CDE00098B0F1FF3F07DCDDE9012057
:101CD000039990470098002800F1C280029E706925
:101CE00010B1301D00F088FA01F0C0FDDAF81010D4
:101CF000074688420DD30098CAF8107009283FD9CA
:101D0000AEE000BF6860DAF8080021462D6100F0FF
:101D1000B1FADAF80800016841B3C068C568D0F8C4
:101D200000802C1D204600F067FA296A2846884763
:101D300095F828004007ECD5A86940444045E1D813
:101D4000DAF80000002800F095800020CDE90408B2
:101D5000069501F07BFDDAF80000494600220023D9
:101D600001F00AF90028D4D184E000BFDAF80C10A1
:101D7000CAE902100098CAF81070092800F27080B1
:101D8000DFE800F00606064448620606444800BF45
:101D900096F82800019A40F00101B06986F82810F1
:101DA0008318314641F8043FBB42366106D9974259
:101DB0000AF1080007D293420AD204E0BA1A82421A
:101DC00006D20AF10C00006800F054FA48E000BFA7
:101DD000316A3046884796F82800400740D5DAF83F
:101DE000000000285AD00198B169069608440021E5
:101DF000CDE9041001F02AFDDAF80000494600227E
:101E0000002301F0B9F858BB48E000BF96F828005D
:101E100022E000BF96F8280040F00101019886F802
:101E200028100028B06143D0384431460AF10C0232
:101E300041F8040F3661B84288BF0AF10802106801
:101E400000F018FA0CE000BF96F82800810703D4D0
:101E5000304600F095FA03E000F0FE0086F8280016
:101E6000DAF800005946002201F000FA00287FF459
:101E700029AF73E64FF0500080F31188BFF36F8FE6
:101E8000BFF34F8FFEE700BF4FF0500080F3118883
:101E9000BFF36F8FBFF34F8FFEE700BF4FF05000CF
:101EA00080F31188BFF36F8FBFF34F8FFEE700BF42
:101EB0004FF0500080F31188BFF36F8FBFF34F8F47
:101EC000FEE700BF4FF0500080F31188BFF36F8F23
:101ED000BFF34F8FFEE70000F0B581B0044600F07D
:101EE00013FA94F94560012E0FDB04F1240500BFBD
:101EF000286850B1284601F0DBFD002818BF00F02B
:101F000079FCF0B2013E0128F2D8FF2684F8456042
:101F100000F01EFA00F0F8F994F94470012F0EDB7E
:101F200004F11005286850B1284601F0C1FD0028D1
:101F300018BF00F05FFCF8B2013F0128F2D884F826
:101F4000446001B0BDE8F04000F002BA70B504464C
:101F500000F09AFD40F2241CC2F2000CDCF80400F0
:101F600050B19CF80000002818BF4FF000404FF01F
:101F7000000574BB8DE000BF40F22C70C2F200007F
:101F8000C21D22F0070210F00701A0EB020318BFE8
:101F9000104600224FF47055CCE90602002918BF04
:101FA00003F57055411921F00701A1F10803CCF8A0
:101FB000043041E90222191AC0E9003101208CF8ED
:101FC00000004FF00040CCE90211002C4FF000055A
:101FD0005FD020405DD124F0070000F110026007BF
:101FE00008BF04F10802002A4FF0000551D0DCF8C8
:101FF000080082424DD8604650F818EFDEF80450D1
:1020000095422CD2DEF80010C1B174464D6895425D
:1020100018D20B68B3B15D68954217D21868A8B1A1
:102020004568954216D20468A4B16568954215D2F8
:102030002168A6460029E9D111E000BF0CF1180083
:102040000DE000BF8E46204609E000BF9E460846D0
:1020500005E000BF8646184601E000BFA646DCF852
:1020600004108E4514D00168DEF80040AB1A112B25
:1020700004604DD30EEB0205680719D04FF05000F5
:1020800080F31188BFF36F8FBFF34F8FFEE700BF60
:10209000002501F047FD68075BD04FF0500080F34A
:1020A0001188BFF36F8FBFF34F8F00BFFEE700BFF4
:1020B0000CF118006B60CEF8042000BF0368AB423F
:1020C0000AD21868A8420BD20368AB4204D218683F
:1020D0001A46A842F2D304E00246184601E000BFC7
:1020E0001A4653686C68D618AE4202D11C44154695
:1020F00054602B19834207D1DCF80430984203D096
:10210000D0E9000323446B60AA42286018BF156021
:1021100001F10805DEF80400DCE90212091A914217
:10212000CCF8081038BFCCF80C109CF8001000292F
:1021300018BF40F00040CEF80400DCF81000002189
:102140000130CEF80010CCF8100001F0EBFC68076D
:10215000A3D1284670BD000040F27000C2F200001A
:10216000016819B101680A6D01320A65006870479B
:10217000034641F60D30C0F600004FF0807C21F0A0
:10218000010103E903106FF0020043F8240CA3F1EE
:10219000440043F8202C704710B543F64452C0F673
:1021A000000210200421FFF719F940F24C14C2F28A
:1021B000000443F65C522060C0F6000201200021BA
:1021C000FFF78CF9606041F2B92043F6FC42C0F69B
:1021D0000000C0F600020021FFF70EFAE06041F2B5
:1021E0009D2043F62052C0F60000C0F600020021F8
:1021F000FFF702FA606110BDD0E9013201699A600F
:10220000D1F804C082688445536008BF4A60002248
:1022100002610868013808600868704744F230536A
:10222000C2F20003036044F23030C2F200000860E2
:10223000802010607047000044F68C13C2F2000347
:10224000036044F28C50C2F2000008604FF48070CA
:10225000106070474FF0FF31024642F8081F00211E
:102260004260C0E903220160704700000021016163
:102270007047000010B5D1F800E01EF1010213D044
:1022800000F1080462681368734511D853681C682C
:10229000744511D85A68146874450FD85468236877
:1022A000A4467345EED90BE00269D2F804C007E0FA
:1022B0009446224604E000BF9C4601E094461A463C
:1022C000C1F804C0CCF808108A6051600861016848
:1022D0000131016010BD0000D0F800C04368086102
:1022E0009A684B608A609A68996051600CF10101AC
:1022F00001607047DFF80C00016841F47001016073
:102300007047000088ED00E04FF0500080F3118826
:10231000BFF36F8FBFF34F8F40F20C00C2F200008B
:1023200001684A1C026009B1704700BF4EF60450B4
:10233000CEF200000068000608BF70474FF0500062
:1023400080F31188BFF36F8FBFF34F8FFEE700005C
:1023500040F20C00C2F20000016839B1013901609D
:1023600018BF7047002080F3118870474FF050006D
:1023700080F31188BFF36F8FBFF34F8FFEE700002C
:1023800070B5002808BF70BD40F22415C2F20005E8
:102390000446287854F8041C002818BF4FF0004069
:1023A00008420DD0A4F1080632689AB14FF05000EF
:1023B00080F31188BFF36F8FBFF34F8FFEE700BF2D
:1023C0004FF0500080F31188BFF36F8FBFF34F8F32
:1023D000FEE700BF21EA000044F8040C00F054FBC3
:1023E00054F8041CA8680844A86005F1180000BF50
:1023F0000368B3420AD21868B04225D20368B342D8
:1024000004D218681A46B042F2D301E002461846D8
:102410005368D418B44202D1194416465160731857
:10242000834206D16B68984203D0D0E90003194477
:102430007160B242306018BF16606869013068612F
:10244000BDE8704001F06EBB1A465368D418B44220
:10245000E5D1E1E74EF21000CEF20000002101606C
:10246000816040F20801C2F20001096844F6D352CB
:10247000C1F26202A1FB02124FF0FF3101EB921197
:10248000416007210160704740F24410EFF305817D
:102490001029C2F2000011D34EF2F032CEF2000247
:1024A000895C0278914209D24FF0500080F3118884
:1024B000BFF36F8FBFF34F8FFEE700BF4EF60C5197
:1024C000CEF200010968406801F4E061814298BFE2
:1024D00070474FF0500080F31188BFF36F8FBFF348
:1024E0004F8F00BFFEE7000044F6E81CC2F2000C6C
:1024F000DCF8002022B3634653F8082F42B363464A
:1025000053F8102F52B3634653F8182F62B3634643
:1025100053F8202F72B3634653F8282F82B36346D3
:1025200053F8302F92B3634653F8382F002A18BF60
:102530007047072219600CEBC2014860704700BF6A
:102540000022634619600CEBC2014860704700BF6F
:10255000012219600CEBC201486070470222196029
:102560000CEBC20148607047032219600CEBC201FA
:1025700048607047042219600CEBC2014860704744
:10258000052219600CEBC2014860704706221960F1
:102590000CEBC2014860704780B344F6E811C2F208
:1025A00000010B4653F8042F4FF0000C82422FD04D
:1025B0000B4653F80C2F82422CD00B4653F8142FA5
:1025C000824229D00B4653F81C2F824226D00B465C
:1025D00053F8242F824223D00B4653F82C2F8242EB
:1025E00020D00B4653F8342F82421DD00B4653F8AF
:1025F0003C2F82421DD1072217E000BF4FF0500050
:1026000080F31188BFF36F8FBFF34F8FFEE700BFDA
:1026100000220AE0012208E0022206E0032204E090
:10262000042202E0052200E0062241F832C0C3F88D
:1026300000C090F84610002918BF7047FFF7A0BEF1
:1026400070B515460E460446FFF75EFE94F844004A
:10265000FF2804BF002084F8440094F84500FF28B8
:1026600004BF002084F84500FFF772FEA06B28B17C
:102670002046BDE87040FFF72FBC00BF04F12400E6
:1026800031462A4600F0F8F82046BDE87040FFF7D2
:1026900023BC000070B588B340F27005C2F200059B
:1026A0000446686950B14FF0500080F31188BFF3C1
:1026B0006F8FBFF34F8F00BFFEE700BF6869013027
:1026C0006861AE6928680430FFF796FD2868A41990
:1026D000446005D3286A29680431FFF7CBFD08E080
:1026E000E86929680431FFF7C5FDE86A844238BF0C
:1026F000EC6201F017FA002818BF70BD4EF60450C6
:10270000CEF200004FF080510160BFF34F8FBFF356
:102710006F8F70BD70B588B1D1B140F27004C2F254
:1027200000046269F2B14FF0500080F31188BFF3EA
:102730006F8FBFF34F8F00BFFEE700BF4FF0500019
:1027400080F31188BFF36F8FBFF34F8FFEE700BF99
:102750004FF0500080F31188BFF36F8FBFF34F8F9E
:10276000FEE700BF626901326261A26903689A42B2
:10277000194403D2994203D316E000BF994201D312
:10278000914211D90160A56920688E1A0430FFF7C3
:1027900033FD2068AD19456008D3206A21680431F3
:1027A000FFF768FD0BE000BF016008E0E069216809
:1027B0000431FFF75FFDE06A854238BFE56201F052
:1027C000B1F9002818BF70BD4EF60450CEF20000DB
:1027D0004FF080510160BFF34F8FBFF36F8F70BD1B
:1027E00040F27001C2F200018A6B026089694160A7
:1027F0007047000040F27000C2F200000121016346
:102800007047000070B5D8B140F27004C2F2000405
:102810000D4621681831FFF72DFDA66920680430A8
:10282000FFF7EAFC681C15D02068AD19456019D384
:10283000206A21680431BDE87040FFF71BBD00BF6E
:102840004FF0500080F31188BFF36F8FBFF34F8FAD
:10285000FEE700BF54F8500B011D2046BDE8704054
:10286000FFF73ABDE06921680431FFF703FDE06A34
:10287000854238BFE56270BDF0B581B0C0B140F2AD
:102880007004C2F200040D46216816461831FFF7A5
:1028900023FDA76920680430FFF7AEFC96B154F819
:1028A000500B011D204601B0BDE8F040FFF714BDFC
:1028B0004FF0500080F31188BFF36F8FBFF34F8F3D
:1028C000FEE700BF2068ED19456007D3206A216844
:1028D000043101B0BDE8F040FFF7CCBCE0692168ED
:1028E0000431FFF7C7FCE06A854238BFE56201B0FA
:1028F000F0BD0000F0B581B020B3026D04461AB3FC
:10290000E36CE06A8B4288BF194688421AD0012ADC
:1029100018D140F27006C2F200063268A2421DD001
:10292000A269E162002A5CBFC1F13801A16140F2F5
:10293000CC27616900EB8000C2F2000707EB800042
:10294000814215D001B0F0BD4FF0500080F31188E6
:10295000BFF36F8FBFF34F8FFEE700BF4FF0500004
:1029600080F31188BFF36F8FBFF34F8FFEE700BF77
:10297000251D2846FFF740FCE06A716A884288BF3F
:10298000706200EB800007EB8000294601B0BDE8D3
:10299000F040FFF7A1BC000010B588B00020CDE9E1
:1029A000050006A805A904AAFFF738FC0598002829
:1029B0003ED0069C002C45D05C21049A07910799D3
:1029C0005C2949D107992063022084F8590007A89F
:1029D0000021CDE9001041F63510C0F6000028A115
:1029E00000230294FEF7EAFF2046FEF75DFE0798FB
:1029F00040F27004C2F20004A062B0B101F00AF922
:102A0000411C33D0012810D14FF0500080F31188C1
:102A1000BFF36F8FBFF34F8F4FF0FF30E0620120A5
:102A200020610020A06100F095F808B010BD00BF43
:102A30004FF0500080F31188BFF36F8FBFF34F8FBB
:102A4000FEE700BF4FF0500080F31188BFF36F8F97
:102A5000BFF34F8FFEE700BF4FF0500080F31188A7
:102A6000BFF36F8FBFF34F8FFEE700BF4FF05000F3
:102A700080F31188BFF36F8FBFF34F8FFEE700BF66
:102A800049444C450000000040F27000C2F20000D2
:102A9000416901314161704780B540F2700EC2F268
:102AA000000EDEF8141019B10121CEF8301080BDEF
:102AB0000021CEF83010DEF8241040F2CC2C01EBCF
:102AC0008103C2F2000C5CF823208AB101EB810281
:102AD0000CEB820353F8042F5268181D82421A60CF
:102AE00020D0D068CEF80000CEF8241080BD00BF02
:102AF0000CEB8302A2F12803E1B15A6922BB012940
:102B000018D01A6812BB022914D053F8142CFAB941
:102B100003290FD053F8282C0439002AA3F15003BD
:102B2000EAD0D3E752681A60D068CEF80000CEF839
:102B3000241080BD4FF0500080F31188BFF36F8FD9
:102B4000BFF34F8FFEE700BF0139BFE70239BDE792
:102B50000339BBE7B0B584B04EF2004CCEF2000CA6
:102B60004CF27021C4F20F11DCF800294B1C9A4280
:102B70000AD14FF0500080F31188BFF36F8FBFF37D
:102B80004F8F00BFFEE700BFDCF800298A4209D161
:102B90004FF0500080F31188BFF36F8FBFF34F8F5A
:102BA000FEE700BF9CF800100291FF218CF8001096
:102BB0009CF800108DF807109DF8071001F05002E6
:102BC00040F24411C2F200010A7007224A609DF9E6
:102BD0000720B2F1FF3F69DC032200BFD31C4B602A
:102BE0009DF8070040008DF807009DF90700B0F13F
:102BF000FF3F23DC931C4B609DF8070040008DF8DD
:102C000007009DF90700B0F1FF3F17DC531C4B6034
:102C10009DF8070040008DF807009DF90700B0F10E
:102C2000FF3F0BDC4A609DF80700043A40008DF836
:102C300007009DF907000028D0D4131D032B35D1C0
:102C40004FF44070486002988CF80000DCF82009CE
:102C500040F47000CCF82009DCF8200940F0704006
:102C6000CCF82009FFF7F6FB40F20C04C2F2000496
:102C700000252560FFF73EFB4EF63470CEF20000D3
:102C8000016841F040410160FEF72CFFFFF704FFAF
:102C9000039520684FF0500181F31188BFF36F8FC7
:102CA000BFF34F8F013011D0FEE700BF4FF050004F
:102CB00080F31188BFF36F8FBFF34F8FFEE700BF24
:102CC000039830B9039820B9039810B903980028E5
:102CD000F6D0002004B0B0BD80B54FF0500080F3B6
:102CE0001188BFF36F8FBFF34F8F00F0CFFD30B16E
:102CF0004EF60450CEF200004FF0805101600020EB
:102D000080F3118880BD000010B568B10C46814287
:102D100014D94FF0500080F31188BFF36F8FBFF3C9
:102D20004F8F00BFFEE700BF4FF0500080F31188C7
:102D3000BFF36F8FBFF34F8FFEE700BF002102226A
:102D400000F066F8002818BF846310BD70B582B02B
:102D500060B10D46814213D94FF0500080F31188C5
:102D6000BFF36F8FBFF34F8FFEE700BF4FF05000F0
:102D700080F31188BFF36F8FBFF34F8FFEE700BF63
:102D800014468AB3502101910199502936D10199F5
:102D90000121002684F846102460C4E90F06FFF7DD
:102DA000B3FA2068D4E90F12A66302FB01030139CC
:102DB00001FB0201C4E90103FF20E16084F8440043
:102DC00084F8450004F11000FFF744FA04F12400F0
:102DD000FFF740FAFFF7BCFA022084F84C002046C7
:102DE000A56302B070BD00BF4FF0500080F31188A2
:102DF000BFF36F8FBFF34F8FFEE700BF4FF0500060
:102E000080F31188BFF36F8FBFF34F8FFEE7000091
:102E10002DE9F041B0B306464843503014460F4602
:102E2000FFF794F8054650B34FF00008284685F8A0
:102E30004680002F18BF50302860C5E90F67FFF7A4
:102E400063FA2868D5E90F12C5F8388002FB010340
:102E5000013901FB0201C5E90103FF20E96085F8A2
:102E6000440085F8450005F11000FFF7F3F905F17E
:102E70002400FFF7EFF9FFF76BFA85F84C4028467E
:102E8000BDE8F0814FF0500080F31188BFF36F8FE1
:102E9000BFF34F8FFEE7000070B582B070B11C46E3
:102EA000B3B1F9B9F2B14FF0500080F31188BFF31C
:102EB0006F8FBFF34F8F00BFFEE700BF4FF0500092
:102EC00080F31188BFF36F8FBFF34F8FFEE700BF12
:102ED0004FF0500080F31188BFF36F8FBFF34F8F17
:102EE000FEE700BF51B14AB94FF0500080F311889E
:102EF000BFF36F8FBFF34F8FFEE700BF50230193E7
:102F0000019B502B2ED1019B069E012384F8463055
:102F1000002908BF22462260C4E90F01FFF7F4F937
:102F20002068D4E90F12002502FB0103013901FBDF
:102F30000201A563C4E90103FF20E16084F84400B5
:102F400084F8450004F11000FFF784F904F124002F
:102F5000FFF780F9FFF7FCF9204684F84C6002B0D7
:102F600070BD00BF4FF0500080F31188BFF36F8F2A
:102F7000BFF34F8FFEE700002DE9F04F83B00292C0
:102F8000C0B11D4617460E460446E9B1022D03D1D5
:102F9000E06B012840F0888000F058FC10BB0FB3B4
:102FA0004FF0500080F31188BFF36F8FBFF34F8F46
:102FB000FEE700BF4FF0500080F31188BFF36F8F22
:102FC000BFF34F8FFEE700BF206C0028DED04FF02C
:102FD000500080F31188BFF36F8FBFF34F8F00BF96
:102FE000FEE700BFFFF790F9A06B022D66D0E16B02
:102FF000884263D304F1100801206F460DF10809DF
:103000000DE000BF2046FEF767FF00F08BFDFFF7E5
:103010007BF9A06BE16B88424FF000004ED3029920
:10302000002973D0C00702D03846FFF7D9FBFFF75D
:103030008FF9FFF729FDFFF767F994F84400FF289F
:1030400004BF002084F8440094F84500FF2804BF22
:10305000002084F84500FFF77BF93846494600F028
:1030600037FB002858D1FFF74FF9D4F838A0D4F82F
:103070003CB0FFF76DF9DA45C4D102994046FFF73D
:10308000C1FB2046FEF728FF00F04CFD0028BED112
:103090004EF60450CEF200004FF080510160BFF3B5
:1030A0004F8FBFF36F8FB2E74FF0500080F311885E
:1030B000BFF36F8FBFF34F8FFEE700BFA76B226C8C
:1030C000D2B19DB3E0683146FDF746F9E168206C66
:1030D0002268091A9142E16003D2A1684042084483
:1030E000E060A81EB0FA80F040093946002F18BFF2
:1030F000012108403F1A26E02068002520BBA06877
:1031000000F046FCA56005461EE000BFFFF720F971
:10311000002003B0BDE8F08F2046FEF7DDFE00F092
:1031200001FD002003B0BDE8F08F00BF60683146AC
:10313000FDF712F9216CD4E9010208449042606065
:1031400001D3206860600025781CA06354F8240F28
:10315000A0B1204600F0ACFC50B14EF60450CEF2C7
:1031600000004FF080510160BFF34F8FBFF36F8FAE
:10317000FFF7EEF8012003B0BDE8F08F002DF7D087
:103180004EF60450CEF200004FF080510160BFF3C4
:103190004F8FBFF36F8FFFF7DBF8012003B0BDE85F
:1031A000F08F000070B568B10546006CA0B14FF01B
:1031B000500080F31188BFF36F8FBFF34F8F00BFB4
:1031C000FEE700BF4FF0500080F31188BFF36F8F10
:1031D000BFF34F8FFEE700BF28680C4660B3FFF7D0
:1031E00053F9EFF311864FF0500080F31188BFF3CD
:1031F0006F8FBFF34F8FA96BE86B814218D295F8A0
:1032000045000131FF28A96324D155F8240F48B3A4
:10321000284600F04DFC0146002C4FF0010018BF7D
:1032200000291BD00120206086F3118870BD00BFEB
:10323000002086F3118870BDA8680028CFD04FF019
:10324000500080F31188BFF36F8FBFF34F8F00BF23
:10325000FEE700BF013085F84500012086F31188A4
:1032600070BD00BF012086F3118870BD2DE9F04FBD
:1032700083B0029290B116460D460446002947D00D
:1032800000F0E4FAA0B99EB14FF0500080F311882D
:10329000BFF36F8FBFF34F8FFEE700BF4FF05000BB
:1032A00080F31188BFF36F8FBFF34F8FFEE700BF2E
:1032B000FFF72AF8D4F838A0BAF1000F36D0226C04
:1032C00052B1D4E902308118E160994224BF2168EB
:1032D000E1602846FDF740F8AAF10100A06354F828
:1032E000100F70B1204600F0E3FB50B14EF60450D1
:1032F000CEF200004FF080510160BFF34F8FBFF35B
:103300006F8F0124FFF724F8204603B0BDE8F08F4B
:10331000206C0028B4D04FF0500080F31188BFF328
:103320006F8FBFF34F8F00BFFEE700BF04F124088B
:1033300001206F464FF000090DF1080B2EE000BF91
:10334000FFF706F8FFF7A0FBFEF7DEFF94F8440056
:10335000FF2808BF84F8449094F84500FF2808BF70
:1033600084F84590FEF7F4FF3846594600F0B0F96E
:10337000E0B12046FEF7B0FD00F0D4FBFEF7C4FF3D
:10338000A66BFEF7E5FF002E3CD0FEF7BDFFD4F89C
:1033900038A00020BAF1000F7FF491AF029949B331
:1033A000C007CDD03846FFF71BFAC9E7FEF7ACFFE0
:1033B000A66BFEF7CDFF2EB12046FEF78DFD00F087
:1033C000B1FBE2E702994046FFF71CFA2046FEF700
:1033D00083FD00F0A7FB0028D7D14EF60450CEF2B3
:1033E00000004FF080510160BFF34F8FBFF36F8F2C
:1033F000CBE700BF0024FEF7ABFF204603B0BDE8DB
:10340000F08F00BF0024204603B0BDE8F08F00001D
:103410002DE9F04381B000283ED0914605460E4686
:10342000002943D0FFF730F8EFF311884FF0500038
:1034300080F31188BFF36F8FBFF34F8FAC6B002CFD
:1034400042D095F844702A6C52B1D5E90230811807
:10345000E960994224BF2968E9603046FCF77CFFA7
:10346000601EFF2FA86335D155F8100F00283BD000
:10347000284600F01DFB0146B9F1000F4FF0010096
:1034800004D000291CBF0120C9F8000088F311886E
:1034900001B0BDE8F08300BF4FF0500080F3118809
:1034A000BFF36F8FBFF34F8FFEE700BF286C00287C
:1034B000B8D04FF0500080F31188BFF36F8FBFF387
:1034C0004F8F00BFFEE700BF002088F3118801B0D6
:1034D000BDE8F083781C85F84400012088F311884A
:1034E00001B0BDE8F08300BF012088F3118801B06E
:1034F000BDE8F0832DE9F04F83B0029160B104463E
:10350000006C98B14FF0500080F31188BFF36F8FBB
:10351000BFF34F8FFEE700BF4FF0500080F31188DC
:10352000BFF36F8FBFF34F8FFEE700BF0D4600F074
:103530008DF958B955B14FF0500080F31188BFF3A1
:103540006F8FBFF34F8F00BFFEE700BFFEF7DCFEBB
:10355000A16BF9B1481EA063206810B9FEF7FCFD0D
:10356000A06054F8100F70B1204600F0A1FA50B1DD
:103570004EF60450CEF200004FF080510160BFF3D0
:103580004F8FBFF36F8F0124FEF7E2FE204603B09A
:10359000BDE8F08F04F124094FF0000B01206E46C6
:1035A00002AF4FF000082AE0FEF7D2FEFFF76CFAF8
:1035B000FEF7AAFE94F84400FF2808BF84F844B040
:1035C00094F84500FF2808BF84F845B0FEF7C0FE18
:1035D0003046394600F07CF8D0B12046FEF77CFC3E
:1035E00000F0A0FAFEF790FEA56BFEF7B1FE002DED
:1035F0004ED0FEF789FEA16B00200029AAD10299C6
:10360000C1B3C007D0D03046FFF7EAF8CCE700BF1F
:10361000FEF77AFED4F838A0FEF79AFEBAF1000F52
:1036200006D02046FEF758FC00F07CFAE1E700BF28
:10363000206838B9FEF768FEA06800F0EFF9804610
:10364000FEF786FE02994846FFF7DCF82046FEF7B3
:1036500043FC00F067FA0028CBD14EF60450CEF2BE
:1036600000004FF080510160BFF34F8FBFF36F8FA9
:10367000BFE700BFB8F1000F22D04FF0500080F339
:103680001188BFF36F8FBFF34F8F00BFFEE700BFFE
:10369000B8F1000F0AD0FEF737FED9F8000058B194
:1036A000206B0068C0F1380107E000BF002420460D
:1036B00003B0BDE8F08F00BF0021A068FFF71AF942
:1036C0000024FEF745FE204603B0BDE8F08F000061
:1036D000B0B5D8B10D4619B30446FEF715FE40F259
:1036E000700CC2F2000CDCF8182029684B1C21D0A9
:1036F000D4E9000EDCF83830834221D072451FD364
:103700000124FEF725FE2046B0BD00BF4FF050005B
:1037100080F31188BFF36F8FBFF34F8FFEE700BFB9
:103720004FF0500080F31188BFF36F8FBFF34F8FBE
:10373000FEE700BF0024FEF70BFE2046B0BD00BF31
:10374000A2EB0E0291420DD9881A2860DCF83800ED
:103750002060DCF8180060600024FEF7F9FD2046C8
:10376000B0BD00BF002001242860FEF7F1FD204617
:10377000B0BD00002DE9F04383B0074690009846A5
:1037800015468946FEF7E2FBF8B106465C20FEF7D7
:10379000DDFBB8B10446DDE90A100022266384F897
:1037A0005920CDE90010384649462A46434602943E
:1037B000FEF704F92046FDF777FF012003B0BDE8CE
:1037C000F08300BF3046FEF7DBFD4FF0FF3003B063
:1037D000BDE8F08370B586B00B9CCCB10C9E0EB3E7
:1037E0005C250495049D5C2D26D1049DDDF828C040
:1037F000022586F8595005AD3463CDE900C502961F
:10380000FEF7DCF83046FDF74FFF059806B070BDB7
:103810004FF0500080F31188BFF36F8FBFF34F8FCD
:10382000FEE700BF4FF0500080F31188BFF36F8FA9
:10383000BFF34F8FFEE700BF4FF0500080F31188B9
:10384000BFF36F8FBFF34F8FFEE7000040F27000B1
:10385000C2F20000016900290FBF01204069B0FADF
:1038600080F0400918BF40007047000040F270002F
:10387000C2F200008069704780B5FEF705FE40F295
:103880007000C2F20000806980BD00002DE9F043A5
:1038900081B040F27006C2F20006706940B1706BF0
:1038A000002401307063204601B0BDE8F08300BF02
:1038B000B06910F10109C6F8189020D3F0690068CA
:1038C00050B14FF0500080F31188BFF36F8FBFF3FA
:1038D0004F8F00BFFEE700BFF069316AF1613062CF
:1038E000B06B0130B063F069006828B1F069C0685E
:1038F000C068406802E000BF4FF0FF30F062F06A3D
:1039000040F2CC288145C2F2000801D200242EE00A
:10391000F0690024006813E0F86A716A884288BF81
:10392000706200EB800008EB80002946FEF7D4FCB3
:10393000F86A3168C96AF269884228BF01241068B0
:1039400090B1F069C068C7683D4655F8040F8145DD
:103950000CD32846FEF750FCB86A0028DCD007F1EB
:103960001800FEF749FCD7E74FF0FF30F0623068EF
:10397000C06A00EB800058F82000012888BF0124AD
:10398000306B002818BF0124204601B0BDE8F08349
:1039900070B588B140F27006C2F200060446306885
:1039A000A0420BD04FF0500080F31188BFF36F8F0F
:1039B000BFF34F8FFEE700BF002070BD206D18B32E
:1039C000411EE06AE26C216590424FF0000008BFA2
:1039D00070BDC1B9251D2846FEF70EFCE06CC0F194
:1039E0003801E062A161716A884240F2CC2188BF4F
:1039F000706200EB8000C2F2000101EB80002946FA
:103A0000FEF76AFC012070BD4FF0500080F3118872
:103A1000BFF36F8FBFF34F8FFEE70000F0B581B0AB
:103A200010B340F27006C2F200060446C06A316864
:103A3000C96A88421CD2A169002904D43168C96AC4
:103A4000C1F13801A16140F2CC27616900EB80002F
:103A5000C2F2000707EB8000814213D03068C06AD1
:103A6000E062012001B0F0BD002001B0F0BD00BF58
:103A7000E16C3068C26A0020914238BF012001B079
:103A8000F0BD00BF251D2846FEF7B6FB3068C06AB2
:103A9000E062716A884288BF706200EB800007EBC9
:103AA00080002946FEF718FC012001B0F0BD00009F
:103AB00070B5C068C5686DB105F118042046FEF701
:103AC0009BFB40F27006C2F20006706960B106F11D
:103AD00064001AE04FF0500080F31188BFF36F8F3D
:103AE000BFF34F8FFEE700BF2C1D2046FEF784FB7F
:103AF000E86A716A884240F2CC2188BF706200EBAC
:103B00008000C2F2000101EB80002146FEF7E4FBD9
:103B1000E86A3168C96A884292BF00200120306398
:103B200070BD00002DE9F04140F27005C2F20005C1
:103B3000686968B1FEF7E8FB68690138686168691F
:103B400080B10024FEF704FC2046BDE8F08100BFF0
:103B50004FF0500080F31188BFF36F8FBFF34F8F8A
:103B6000FEE700BFE8680028EBD0686E88B340F23B
:103B7000CC26C2F200064FF0010800BF286FC768CC
:103B800007F11800FEF738FB3C1D2046FEF734FB1A
:103B9000F86A696A884288BF686200EB800006EBB9
:103BA00080002146FEF798FBF86A2968C96A8842B6
:103BB00028BFC5F83080686E0028DFD1E86900684A
:103BC00020B1E869C068C068406801E04FF0FF308C
:103BD000E8626C6B4CB10126FFF758FE002818BF55
:103BE0002E63013CF8D100206863286B0028A8D020
:103BF0004EF60450CEF200004FF080510160BFF34A
:103C00004F8F0124BFF36F8FFEF7A2FB2046BDE864
:103C1000F081000070B586B0FEF776FB40F2E80652
:103C2000C2F20006306808BB06F114042046FEF715
:103C300011FB06F128052846FEF70CFB40F2DC12CA
:103C400040F27C23C6E902450025C2F20002C2F21E
:103C500000030A2010210095FFF71EF9306028B1FB
:103C600043F69C51C0F60001FEF73EFCFEF770FBE8
:103C70003068D8B10020CDE9040005A804A903AA42
:103C8000FEF7DAFADDE903200221059DCDE90010F7
:103C900041F64D30C0F6000009A100230295FFF760
:103CA00099FD706010B1012006B070BD4FF050005A
:103CB00080F31188BFF36F8FBFF34F8FFEE700BF14
:103CC000546D722053766300F1EE100A4FF6FF71C7
:103CD000C0F2C03120EA010040F04070E1EE100A6D
:103CE0007047000000000000000001020304060706
:103CF000080900000000010203040000BB3D0008A9
:103D000000000000000000000000000000000000B3
:103D10000004000018000000000000000000000087
:103D2000BB3D000800000000000000000000000093
:103D30000000000000040000180000000000000067
:103D400000000000B03D000800000000000000007E
:103D5000000000000000000000000000A13D00087D
:103D6000000000000000000000000000903D00087E
:103D70000000000000000000000000000000000043
:103D80000002000018000000000000000000000019
:103D900064656661756C745461736B00546D725127
:103DA00000746573745F73656D6170686F72650030
:103DB000746573745F717565756500746573745FA0
:103DC0007461736B00000000E83D000800000020F3
:103DD00010000000C4010008F83D00081000002099
:103DE00018500000E0010008010000001000000071
:083DF0000024F400AAAAAAAA0B
:040000050800018965
:00000001FF
