:020000040800F2
:100000005007002039020008DD28000855270008A5
:10001000D928000875070008112F0008000000000B
:100020000000000000000000000000002D2C00086F
:1000300079070008000000004D290008852C000801
:10004000530200085302000853020008530200083C
:10005000530200085302000853020008530200082C
:10006000530200085302000853020008530200081C
:10007000530200085302000853020008530200080C
:1000800053020008530200085302000853020008FC
:1000900053020008530200085302000853020008EC
:1000A00053020008530200085302000853020008DC
:1000B00053020008530200085302000853020008CC
:1000C00053020008530200085302000853020008BC
:1000D00053020008530200085302000853020008AC
:1000E000530200085302000853020008530200089C
:1000F000530200085302000853020008530200088C
:10010000530200085302000853020008530200087B
:1001100053020008530200085D2D00085302000836
:10012000530200085302000853020008530200085B
:10013000530200085302000853020008530200084B
:10014000530200085302000853020008530200083B
:10015000530200085302000853020008530200082B
:10016000530200085302000853020008530200081B
:100170005302000853020008530200080000000068
:10018000530200085302000800F002F800F045F89E
:100190000AA090E8000C82448344AAF10107DA45E2
:1001A00001D100F03AF8AFF2090EBAE80F0013F0EF
:1001B000010F18BFFB1A43F001031847EC4E000073
:1001C0000C4F0000103A24BF78C878C1FAD8520703
:1001D00024BF30C830C144BF04680C6070470000C1
:1001E0000023002400250026103A28BF78C1FBD840
:1001F000520728BF30C148BF0B6070471FB504F0DD
:1002000076FE9DE8030000F0B1F900F0DDF81FBDB7
:1002100010B5002000F043F910BD00F065F911465B
:10022000FFF7ECFF03F0DAF800F0FDF903B4FFF795
:10023000EFFF03BC00F026FA094880470948004751
:10024000FEE7FEE7FEE7FEE7FEE7FEE7FEE7FEE786
:10025000FEE7FEE704480549054A064B70470000E3
:10026000492D000889010008500100205007002096
:10027000500300205003002053EA020C00F0698074
:100280002DE9F04B4FF00006002B1FBFB3FA83F5AA
:1002900003FA05F424FA05F65E4012BF1643B2FADB
:1002A00082F502FA05F4C5F120051EBF22FA05FC0D
:1002B00044EA0C04203556EA044C4FEA144418BFB3
:1002C000641C4FF000084FF00009904271EB030CE2
:1002D00039D3002919BFB1FA81F701FA07F6B0FA4C
:1002E00080F700FA07F6C7F120071EBF20FA07FCC7
:1002F00046EA0C062037B6FBF4FCA7EB0507103FD7
:1003000007F01F0BCBF120062CFA06F60CFA0BFBBC
:1003100044BFB3460026202FA4BF5E464FF0000B1B
:100320005BEA060C08BF4FF0010B19EB0B0948EB19
:100330000608ABFB027C06FB02CC0BFB03CCC01B0C
:1003400071EB0C01C1E70B46024641464846BDE849
:10035000F08B13B5084318BF4FF0FF300146AFF3E1
:100360000080BDE81C4070470B460146184600F06F
:1003700048B84FF0000200B513469446964620391F
:1003800022BFA0E80C50A0E80C50B1F12001BFF44E
:10039000F7AF090728BFA0E80C5048BF0CC05DF8B4
:1003A00004EB890028BF40F8042B08BF704748BF02
:1003B00020F8022B11F0804F18BF00F8012B704776
:1003C000704770477047000070B5064C7C44064D7E
:1003D0007D4404E02046016808448047241DAC4267
:1003E000F8D170BDF84C0000F84C000010B500F0DA
:1003F00023F8006810BD10B5044600F01DF8046035
:1004000010BD2DE9F041074615460E46102000F0BC
:1004100017F804000AD06760C4E9026500F008F824
:100420000168216004600020BDE8F0810120FBE745
:100430000048704748000020004870471000002026
:1004400070B5064600F076F8056806F10B0020F05E
:100450000704B4429CBF002070BD2B466A68BAB145
:100460001068A04210D304F1080188423CBF5068D4
:10047000586007D35168101941601168091B016069
:1004800058601460101D70BD13465268002AE7D1F1
:100490002146284600F056F80028DED170BD2DE92F
:1004A000F0410646FFF7C4FF8046454613E016B10B
:1004B000E068B0420ED120682860D4E90101D8F884
:1004C00000708847204600F087F8D8F80000B8424E
:1004D000EBD100E025462C68002CE8D1BDE8F08186
:1004E00000487047100000207546FFF7F9FFAE4640
:1004F00005006946534620F00700854618B020B530
:10050000FFF7A8FEBDE820404FF000064FF00007BF
:100510004FF000084FF0000BAC46ACE8C009ACE867
:10052000C009ACE8C009ACE8C00921F007018D465C
:10053000704700000048704718000020704770475F
:100540007047704738B504460A4600206946AFF345
:100550000080002808BF38BD02460099204600F000
:100560006BF8012038BD012000F085B8F8B5AFF375
:100570000080054600200C46102000BF0646A81942
:10058000A0420DD9324669460020AFF30080070033
:1005900008BF00F070F80098A04218BF0546C419C3
:1005A000FFF7C8FF05600746F01D20F00700461959
:1005B000284600F00AF8B44208BFF8BDA21B314635
:1005C0003868BDE8F84000F037B800210160C0E9A4
:1005D000011070471020704770B50446051FFFF7E3
:1005E000A9FF0068002C14BF446870BD002C18BF20
:1005F000AC423CBF20466468F8D301680A18AA429E
:1006000018BF456003D12A68054611440160286877
:100610004119A1421CBF6C6070BD616869602168AE
:100620000844286070BD10B50446AFF30080204632
:10063000BDE81040FFF7FABD034640688C4600282D
:1006400018BF88423CBF03464068F8D31868184476
:10065000884207D00CF1030020F00700001D411A6A
:10066000521A0146081D0A60FFF7B6BF002801D0E4
:1006700000F008B8704710B500F024F8BDE810404D
:10068000FFF7F4BF01491820ABBEFEE726000200C9
:10069000704770B505460C460A2000E06D1C00F05E
:1006A00039F835B128780028F8D102E0641C00F050
:1006B00031F814B120780028F8D1BDE870400A2044
:1006C00000F028B810B5012805D0002103A0FFF7DD
:1006D000E0FF012010BD09A1F8E70000534947528F
:1006E000544D454D3A204F7574206F662068656102
:1006F00070206D656D6F7279000000003A204865CA
:100700006170206D656D6F727920636F72727570A4
:100710007465640008B569468DF800000320ABBE1F
:1007200008BD000080B50020C4F2020010210122A3
:1007300000F026FA80BD000080B50020C4F202005F
:100740001021002200F01CFA80BD000080B540F2AC
:100750000040C4F202000122114600F011FA80BDEF
:1007600080B540F20040C4F202000121002200F0F6
:1007700007FA80BDFFE7FEE77047000072B6FFE7AB
:10078000FEE7000080B584B0039000F011FA0290FB
:10079000039801900198013048B1FFE740F204004E
:1007A000C2F200000178019808440190FFE7FFE7DA
:1007B00000F0FEF90299401A0199884201D2FFE740
:1007C000F6E704B080BD00008EB00D900C910020C3
:1007D0000A90099008900B90FFE70B980F2800F201
:1007E000CC81FFE70B99012088400A900C980068A3
:1007F0000A990840099009980A99884240F0B881FE
:10080000FFE70C98406800F00300012807D0FFE7DD
:100810000C98406800F0030002282FD1FFE70D98E4
:10082000806808900B984100032000FA01F10898B5
:10083000884308900C98C0680B99490000FA01F1B0
:1008400008980843089008980D9988600D984068AA
:1008500008900B99012000FA01F10898884308904C
:100860000C984068C0F300100B9900FA01F1089849
:100870000843089008980D994860FFE70C98406875
:1008800000F00300032818D0FFE70D98C068089017
:100890000B984100032000FA01F108988843089062
:1008A0000C9880680B99490000FA01F108980843F8
:1008B000089008980D99C860FFE70C98406800F010
:1008C0000300022826D1FFE70D980B996FF0030271
:1008D00002EA51010844006A08900B9800F00700F2
:1008E00081000F2000FA01F10898884308900C98C5
:1008F00000690B9901F00701890000FA01F10898DD
:100900000843089008980D990B9B02EA5302114482
:100910000862FFE70D98006808900B9841000320DB
:1009200000FA01F10898884308900C98406800F09C
:1009300003000B99490000FA01F108980843089058
:1009400008980D9908600C9880798007002800F0BD
:100950000E81FFE7FFE70020079043F64400C4F252
:100960000200016841F480410160006800F48040A9
:1009700007900798FFE70B9820F0030043F6080163
:10098000C4F20101405808900B9800F00300810068
:100990000F2000FA01F10898884308900D98002173
:1009A000C4F20201884203D1FFE7002006905EE016
:1009B0000D9840F20041C4F20201884203D1FFE7E2
:1009C0000120059050E00D9840F60001C4F20201AC
:1009D000884203D1FFE70220049042E00D9840F6E0
:1009E0000041C4F20201884203D1FFE703200390D3
:1009F00034E00D9841F20001C4F20201884203D1B3
:100A0000FFE70420029026E00D9841F20041C4F275
:100A10000201884203D1FFE70520019018E00D98FC
:100A200041F60001C4F20201884203D1FFE706202B
:100A300000900AE00D9941F60042C4F2020208203B
:100A4000914208BF07200090FFE700980190FFE760
:100A500001980290FFE702980390FFE70398049043
:100A6000FFE704980590FFE705980690FFE70698D2
:100A7000C0B20B9901F00301890000FA01F1089856
:100A80000843089008980B9921F0030143F60802E7
:100A9000C4F20102885043F60840C4F20100006825
:100AA000089009990898884308900C988079C006A6
:100AB000002805D5FFE70999089808430890FFE743
:100AC000089843F60841C4F20101086043F60C405F
:100AD000C4F20100006808900999089888430890BA
:100AE0000C9880798006002805D5FFE709990898B9
:100AF00008430890FFE7089843F60C41C4F201014F
:100B0000086043F60440C4F20100006808900999A7
:100B10000898884308900C9880798007002805D5AC
:100B2000FFE70999089808430890FFE7089843F6FB
:100B30000441C4F20101086043F60040C4F2010020
:100B40000068089009990898884308900C98807963
:100B5000C00728B1FFE70999089808430890FFE704
:100B6000089843F60041C4F201010860FFE7FFE77F
:100B7000FFE70B9801300B902FE60EB07047000096
:100B800082B00190ADF802108DF801209DF80100AF
:100B900028B1FFE7BDF802000199886105E0BDF8C2
:100BA0000200000401998861FFE702B0704700006D
:100BB00040F24810C2F200000068704740F20400A2
:100BC000C2F20000027840F24811C2F20001086847
:100BD000104408607047000080B543F60041C4F23D
:100BE0000201086840F400700860086840F4806002
:100BF0000860086840F480700860032000F08AF8FC
:100C00000F2000F005F800F03BF8002080BD000048
:100C100080B582B0009040F20000C2F2000000688F
:100C200040F20401C2F200010A784FF47A71B1FB7C
:100C3000F2F1B0FBF1F001F0C1FA20B1FFE70120C1
:100C40008DF8070018E000980F280DD8FFE70099ED
:100C50004FF0FF30002200F043F8009840F2080106
:100C6000C2F20001086003E001208DF8070003E0F4
:100C700000208DF80700FFE79DF8070002B080BD57
:100C800082B0FFE70020019043F64400C4F2020066
:100C9000016841F480410160006800F480400190E7
:100CA0000198FFE7FFE70020009043F64000C4F200
:100CB0000200016841F080510160006800F080503E
:100CC00000900098FFE702B07047000080B582B046
:100CD0008DF807009DF9070002F068FA02B080BDA8
:100CE00080B586B08DF81700049103920020029021
:100CF00002F074FA02909DF917000190029804998D
:100D0000039A01F0EDFD0146019802F06FFA06B07A
:100D100080BD000080B582B00190019802F088FA91
:100D200002B080BD80B584B002900191029820B9D4
:100D3000FFE701208DF80F0021E1019843F6004103
:100D4000C4F20201096801F00701884212D9FFE7E5
:100D5000019943F60040C4F202000170006800F0FF
:100D600007000199884204D0FFE701208DF80F00A9
:100D700005E1FFE702980078800700282AD5FFE701
:100D8000029800784007002809D5FFE743F60801DC
:100D9000C4F20201086840F4E0500860FFE70298DE
:100DA00000780007002809D5FFE743F60801C4F2E0
:100DB0000201086840F460400860FFE743F608015C
:100DC000C4F20201086820F0F000029A9268104311
:100DD0000860FFE702980078C00700286ED0FFE7A0
:100DE00002984068012811D1FFE743F60000C4F2E1
:100DF0000200006800F400310020B0EB514F04D134
:100E0000FFE701208DF80F00B9E02CE00298406860
:100E1000022805D0FFE702984068032811D1FFE7B8
:100E200043F60000C4F20200006800F000710020E8
:100E3000B0EB516F04D1FFE701208DF80F009EE069
:100E400010E043F60000C4F20200006800F0020166
:100E50000020B0EB510F04D1FFE701208DF80F0007
:100E60008DE0FFE7FFE743F60801C4F202010868DE
:100E700020F00300029A526810430860FFF798FEC2
:100E80000090FFE743F60800C4F20200006800F09B
:100E90000C0002994968B0EB810F0ED0FFE7FFF715
:100EA00087FE0099401A41F28931884204D3FFE756
:100EB00003208DF80F0062E0E4E7FFE7019843F6B6
:100EC0000041C4F20201096801F00701884212D210
:100ED000FFE7019943F60040C4F202000170006888
:100EE00000F007000199884204D0FFE701208DF847
:100EF0000F0044E0FFE702980078400700280CD577
:100F0000FFE743F60801C4F20201086820F4E0504C
:100F1000029AD26810430860FFE702980078000741
:100F200000280DD5FFE743F60801C4F20201086866
:100F300020F46040029A126940EAC2000860FFE7AC
:100F400000F022F843F60801C4F202010968C9B2B0
:100F50000A0945F29801C0F60001895CC84040F2D8
:100F60000001C2F20001086040F20800C2F2000075
:100F70000068FFF74DFE00208DF80F00FFE79DF899
:100F80000F0004B080BD000080B586B00020059041
:100F900004900390029043F60800C4F20200006837
:100FA00000F00C000146019140B1FFE701980428D0
:100FB0000AD0FFE7019808280CD04FE042F2004029
:100FC000C0F2F40002904FE041F60030C0F2B700EA
:100FD000029049E043F60400C4F20200016801F007
:100FE0003F01059100684002002813D5FFE743F652
:100FF0000400C4F202000068C0F3881041F600311A
:10100000C0F2B701A0FB0101059A0023FFF734F9F4
:10101000049012E043F60400C4F202000068C0F33A
:10102000881042F20041C0F2F401A0FB0101059AD0
:101030000023FFF721F90490FFE743F60400C4F210
:101040000200006800F44031022000EBD130039030
:1010500004980399B0FBF1F0029005E042F20040E1
:10106000C0F2F4000290FFE7029806B080BD0000D5
:1010700080B586B00490049820B9FFE701208DF870
:10108000170050E304980078C007002800F0A580FE
:10109000FFE743F60800C4F20200006800F00C000D
:1010A000042813D0FFE743F60800C4F202000068EA
:1010B00000F00C0008281ED1FFE743F60400C4F23C
:1010C000020000684002002815D5FFE743F6000043
:1010D000C4F20200006800F400310020B0EB514F70
:1010E00008D0FFE70498406820B9FFE701208DF899
:1010F000170018E370E0FFE704984068B0F5803F00
:1011000009D1FFE743F60001C4F20201086840F488
:101110008030086020E004984068B0F5A02F0DD121
:10112000FFE743F60001C4F20201086840F48020A2
:101130000860086840F4803008600CE043F6000165
:10114000C4F20201086820F480300860086820F4C6
:1011500080200860FFE7FFE7FFE704984068E8B1F8
:10116000FFE7FFF725FD0390FFE743F60000C4F219
:101170000200006800F400310020B0EB514F0CD1A8
:10118000FFE7FFF715FD0399401A652804D3FFE731
:1011900003208DF81700C6E2E7E71CE0FFF708FD23
:1011A0000390FFE743F60000C4F20200006800F479
:1011B00000310020B0EB514F0CD0FFE7FFF7F8FCF7
:1011C0000399401A652804D3FFE703208DF8170020
:1011D000A9E2E7E7FFE7FFE7FFE704980078800769
:1011E000002840F19680FFE743F60800C4F20200B1
:1011F000006810F00C0F13D0FFE743F60800C4F2AC
:101200000200006800F00C0008282CD1FFE743F62C
:101210000400C4F2020000684002002823D4FFE763
:1012200043F60000C4F20200006800F00201002052
:10123000B0EB510F09D0FFE70498C068012804D033
:10124000FFE701208DF817006DE243F60001C4F2BC
:101250000201086820F0F800049A126940EAC2000E
:101260000860FFE754E00498C06870B3FFE700210E
:10127000C4F2472101200860FFF79AFC0390FFE7C2
:1012800043F60000C4F20200006800F002010020F2
:10129000B0EB510F0CD1FFE7FFF78AFC0399401A1E
:1012A000032804D3FFE703208DF817003BE2E7E7AC
:1012B00043F60001C4F20201086820F0F800049A25
:1012C000126940EAC200086021E00021C4F247210F
:1012D00000200860FFF76CFC0390FFE743F6000076
:1012E000C4F20200006800F002010020B0EB510FD0
:1012F0000CD0FFE7FFF75CFC0399401A032804D3E6
:10130000FFE703208DF817000DE2E7E7FFE7FFE7AF
:10131000FFE704980078000700284BD5FFE7049802
:10132000406918B3FFE740F68061C4F2472101200D
:101330000860FFF73DFC0390FFE743F67400C4F23A
:101340000200006800F002010020B0EB510F0CD148
:10135000FFE7FFF72DFC0399401A032804D3FFE7AA
:1013600003208DF81700DEE1E7E722E040F6806118
:10137000C4F2472100200860FFF71AFC0390FFE742
:1013800043F67400C4F20200006800F0020100207D
:10139000B0EB510F0CD0FFE7FFF70AFC0399401A9E
:1013A000032804D3FFE703208DF81700BBE1E7E72C
:1013B000FFE7FFE7049800784007002840F1CE805F
:1013C000FFE700208DF8070043F64000C4F202005A
:1013D0000068C000002815D4FFE7FFE70020009058
:1013E00043F64000C4F20200016841F08051016000
:1013F000006800F0805000900098FFE701208DF811
:101400000700FFE747F20000C4F200000068C005D3
:10141000002822D4FFE747F20001C4F20001086867
:1014200040F480700860FFF7C3FB0390FFE747F2CA
:101430000000C4F200000068C00500280CD4FFE7DB
:10144000FFF7B6FB0399401A032804D3FFE70320F4
:101450008DF8170067E1EAE7FFE7FFE70498806887
:10146000012809D1FFE743F67001C4F202010868C0
:1014700040F0010008601FE00498806805280DD145
:10148000FFE743F67001C4F20201086840F004006F
:101490000860086840F0010008600CE043F6700145
:1014A000C4F20201086820F001000860086820F01A
:1014B00004000860FFE7FFE7FFE704988068F8B1E1
:1014C000FFE7FFF775FB0390FFE743F67000C4F2F8
:1014D0000200006800F002010020B0EB510F0ED1B5
:1014E000FFE7FFF765FB0399401A41F28931884213
:1014F00004D3FFE703208DF8170014E1E5E71EE0B1
:10150000FFF756FB0390FFE743F67000C4F20200BA
:10151000006800F002010020B0EB510F0ED0FFE791
:10152000FFF746FB0399401A41F28931884204D300
:10153000FFE703208DF81700F5E0E5E7FFE79DF8EA
:101540000700012809D1FFE743F64001C4F2020178
:10155000086820F080500860FFE7FFE70498806982
:10156000002800F0DC80FFE743F60800C4F2020028
:10157000006800F00C00082800F08580FFE7049860
:10158000806902285CD1FFE76021C4F24721002076
:101590000860FFF70DFB0390FFE743F60000C4F27D
:1015A0000200006800F000710020B0EB516F0CD019
:1015B000FFE7FFF7FDFA0399401A032804D3FFE77A
:1015C00003208DF81700AEE0E7E70499C869D1F869
:1015D00020C04B6A8A6A40EA0C0040EA8310D203BA
:1015E0004FF6FF739A43A2F580321043C96A40EA6E
:1015F000016043F60401C4F2020108606021C4F2F4
:10160000472101200860FFF7D3FA0390FFE743F674
:101610000000C4F20200006800F000710020B0EB8E
:10162000516F0CD1FFE7FFF7C3FA0399401A032863
:1016300004D3FFE703208DF8170074E0E7E721E00B
:101640006021C4F2472100200860FFF7B1FA03903F
:10165000FFE743F60000C4F20200006800F00071EA
:101660000020B0EB516F0CD0FFE7FFF7A1FA039910
:10167000401A032804D3FFE703208DF8170052E037
:10168000E7E7FFE74AE004988069012804D1FFE713
:1016900001208DF8170046E043F60400C4F2020072
:1016A0000068029004988069012831D0FFE7029811
:1016B00000F480000499C969884229D1FFE70298A3
:1016C00000F03F000499096A884221D1FFE702989F
:1016D00047F6C07108400499496AB0EB811F17D1E1
:1016E000FFE7029800F440300499896AC9034FF675
:1016F000FF729143A1F58031884209D1FFE702983A
:1017000000F070600499C96AB0EB016F04D0FFE784
:1017100001208DF8170006E0FFE7FFE7FFE7002054
:101720008DF81700FFE79DF8170006B080BD000098
:1017300081B00090009890F8510001B0704700000F
:1017400080B584B00290029820B9FFE701208DF89F
:101750000F0071E00298406A60B9FFE702984068A4
:10176000B0F5827F01D1FFE703E002990020C86154
:10177000FFE705E002990020086102994861FFE750
:10178000029900208862029890F8510040B9FFE762
:101790000299002081F85000029800F051F8FFE70C
:1017A0000299022081F8510002980168086820F02F
:1017B00040000860029A019211685068D2F808C08F
:1017C000D36800F482700CF4044C604403F40063AA
:1017D0001844136903F002031844536903F001032A
:1017E0001844936903F400731844D36903F0380371
:1017F0001844136A03F080031843926A02F40052FB
:1018000010430860029A508B00F004001168526A7D
:1018100002F010021044486002980168C86920F480
:101820000060C861029900204865029A012182F88F
:1018300051108DF80F00FFE79DF80F0004B080BD38
:1018400080B58EB00D9000200C900B900A900990FE
:1018500008900D98006843F20001C4F2010188422B
:101860005ED1FFE7FFE70020079043F64400C4F293
:101870000200016841F480510160006800F480506A
:1018800007900798FFE7FFE70020069043F6300037
:10189000C4F20200016841F002010160006800F03A
:1018A000020006900698FFE7FFE70020059043F648
:1018B0003000C4F20200016841F0010101600068DB
:1018C00000F0010005900598FFE71820089002201D
:1018D00000900990002001900A90032002900B9044
:1018E000052003900C9040F20040C4F2020008A9C9
:1018F0000491FEF769FFDDF800C0019B029A03988E
:1019000004994FF0800ECDF820E0CDF824C00A9362
:101910000B920C900020C4F20200FEF755FFFFE787
:101920000EB080BD80B588B006900591ADF812204C
:101930000393069890F85100012804D0FFE7022095
:101940008DF81F0011E1059820B1FFE7BDF81200E6
:1019500020B9FFE701208DF81F0006E106984068D6
:10196000B0F5827F16D1FFE70698806890B9FFE74F
:101970000699042081F851000698059ABDF81230A6
:101980000399EC46CCF80010114600F045FA8DF8AA
:101990001F00EAE0FFF70CF90290FFE7069890F8C5
:1019A0005000012804D1FFE702208DF81F00DCE081
:1019B0000699012081F85000FFE7FFE7069904200F
:1019C00081F851000699002048650599069A9163AF
:1019D000BDF81210069A9187BDF81210069AD187A9
:1019E00006990863069988860699C8860699086448
:1019F0000699486406988068B0F5004F0DD1FFE75E
:101A000006980168086820F04000086006980168A0
:101A1000086820F480400860FFE7069800680068C6
:101A200000F04000402807D0FFE7069801680868EA
:101A300040F040000860FFE70698C068D0BBFFE7B1
:101A4000FFE70698C08FA0B3FFE70698006880689C
:101A5000C00778B1FFE706980068007B0699896B9C
:101A600008700699886B013088630699C88F013821
:101A7000C8871DE0FFF79CF80299401A0399884235
:101A800004D3FFE70398013018B9FFE7039870B952
:101A9000FFE70699012081F85100FFE70699002031
:101AA00081F85000FFE703208DF81F005DE0FFE79D
:101AB000C7E739E0FFE70698C08FA0B3FFE70698B5
:101AC00000688068C00778B1FFE706980068C068C2
:101AD0000699896B08800699886B0230886306999D
:101AE000C88F0138C8871DE0FFF762F80299401AD5
:101AF0000399884204D3FFE70398013018B9FFE740
:101B0000039870B9FFE70699012081F85100FFE7BB
:101B10000699002081F85000FFE703208DF81F0090
:101B200023E0FFE7C7E7FFE706980399029A00F072
:101B30000FFF20B1FFE7069920204865FFE70699CF
:101B4000012081F85100FFE70699002081F850003C
:101B5000FFE70698406D20B1FFE701208DF81F00D8
:101B600003E000208DF81F00FFE79DF81F0008B07C
:101B700080BD000080B588B006900591ADF81220B8
:101B80000393FFF715F80290BDF81200ADF80600B8
:101B9000069890F85100012804D0FFE702208DF844
:101BA0001F0034E1059820B1FFE7BDF8120020B90D
:101BB000FFE701208DF81F0029E1FFE7069890F864
:101BC0005000012804D1FFE702208DF81F001EE11C
:101BD0000699012081F85000FFE7FFE706990320EE
:101BE00081F851000699002048650599069A11630D
:101BF000BDF81210069A9186BDF81210069AD18689
:101C000006998863069988870699C8870699486463
:101C10000699086406988068B0F5004F0DD1FFE77B
:101C200006980168086820F040000860069801687E
:101C3000086840F480400860FFE706980068006884
:101C400000F04000402807D0FFE7069801680868C8
:101C500040F040000860FFE70698C068B0F5006FEC
:101C600051D1FFE70698406828B1FFE7BDF80600AC
:101C700001280ED1FFE706980168006B0088C86054
:101C80000699086B023008630699C88E0138C88629
:101C9000FFE7FFE70698C08EA0B3FFE7069800684D
:101CA0008068800700280ED5FFE706980168006B62
:101CB0000088C8600699086B023008630699C88ED0
:101CC0000138C8861DE0FEF773FF0299401A039998
:101CD000884204D3FFE70398013018B9FFE703985F
:101CE00070B9FFE70699012081F85100FFE70699D6
:101CF000002081F85000FFE703208DF81F0086E0E8
:101D0000FFE7C7E750E00698406828B1FFE7BDF855
:101D1000060001280ED1FFE706980168006B0078E5
:101D200008730699086B013008630699C88E01385C
:101D3000C886FFE7FFE70698C08EA0B3FFE70698C6
:101D400000688068800700280ED5FFE706980168C4
:101D5000006B007808730699086B013008630699D8
:101D6000C88E0138C8861DE0FEF722FF0299401A8E
:101D70000399884204D3FFE70398013018B9FFE7BD
:101D8000039870B9FFE70699012081F85100FFE739
:101D90000699002081F85000FFE703208DF81F000E
:101DA00035E0FFE7C7E7FFE706980399029A00F0DE
:101DB00041FE20B1FFE7069920204865FFE706981D
:101DC000806870B9FFE7FFE7002000900698006880
:101DD000C068009006980068806800900098FFE74F
:101DE000FFE70699012081F85100FFE706990020DE
:101DF00081F85000FFE70698406D20B1FFE7012011
:101E00008DF81F0003E000208DF81F00FFE79DF80C
:101E10001F0008B080BD000080B58CB0DDF838C070
:101E20000A9009910892ADF81E3001200390FEF748
:101E3000BFFE04900A9890F851008DF817000A9898
:101E400040680690BDF81E00ADF81C009DF8170014
:101E5000012812D0FFE70698B0F5827F09D1FFE78D
:101E60000A98806828B9FFE79DF81700042804D075
:101E7000FFE702208DF82F009BE1099838B1FFE7BA
:101E8000089820B1FFE7BDF81E0020B9FFE7012048
:101E90008DF82F008DE1FFE70A9890F85000012897
:101EA00004D1FFE702208DF82F0082E10A9901207A
:101EB00081F85000FFE7FFE70A9890F851000428E6
:101EC00005D0FFE70A99052081F85100FFE70A993C
:101ED0000020486508990A9A9163BDF81E100A9A75
:101EE000D187BDF81E100A9A918709990A9A116341
:101EF000BDF81E100A9AD186BDF81E100A9A918666
:101F00000A9908640A9948640A980068006800F011
:101F10004000402807D0FFE70A980168086840F0B1
:101F200040000860FFE70A98C068B0F5006F40F015
:101F30008180FFE70A98406828B1FFE7BDF81C00E0
:101F400001280ED1FFE70A980168006B0088C8607D
:101F50000A99086B023008630A99C88E0138C8864E
:101F6000FFE7FFE70A98C18E0120019039B9FFE72A
:101F70000A98C08F002818BF01200190FFE7019840
:101F8000C007002855D0FFE70A98006880688007DE
:101F9000002818D5FFE70A98C08EA0B1FFE7039884
:101FA000012810D1FFE70A980168006B0088C8601B
:101FB0000A99086B023008630A99C88E0138C886EE
:101FC00000200390FFE70A9800688068C007A8B166
:101FD000FFE70A98C08F88B1FFE70A980068C068D9
:101FE0000A99896B08800A99886B023088630A997C
:101FF000C88F0138C88701200390FFE7FEF7D8FD9E
:102000000499401A0E99884212D3FFE70E980130C6
:1020100070B1FFE70A99012081F85100FFE70A99A2
:10202000002081F85000FFE703208DF82F00C0E06A
:1020300098E782E00A98406828B1FFE7BDF81C00E5
:1020400001280ED1FFE70A980168006B0078087339
:102050000A99086B013008630A99C88E0138C8864E
:10206000FFE7FFE70A98C18E0120009039B9FFE72A
:102070000A98C08F002818BF01200090FFE7009841
:10208000C007002858D0FFE70A98006880688007DA
:10209000002818D5FFE70A98C08EA0B1FFE7039883
:1020A000012810D1FFE70A980168006B00780873D7
:1020B0000A99086B013008630A99C88E0138C886EE
:1020C00000200390FFE70A9800688068C007A8B165
:1020D000FFE70A98C08F88B1FFE70A980068C068D8
:1020E0000A99896B08700A99886B013088630A998C
:1020F000C88F0138C88701200390FFE7FEF758FD1D
:102100000499401A0E99884204D3FFE70E980130D3
:1021100018B9FFE70E9870B9FFE70A99012081F816
:102120005100FFE70A99002081F85000FFE70320E3
:102130008DF82F003DE095E7FFE70A980E99049A85
:1021400000F078FC68B1FFE70A9920204865FFE7B6
:102150000A99002081F85000FFE701208DF82F0038
:1021600027E00A98806870B9FFE7FFE70020029037
:102170000A980068C06802900A9800688068029017
:102180000298FFE7FFE70A99012081F85100FFE775
:102190000A99002081F85000FFE70A98406D20B1AD
:1021A000FFE701208DF82F0003E000208DF82F00BD
:1021B000FFE79DF82F000CB080BD000080B582B015
:1021C0000190019800F034FD02B080BD81B0009014
:1021D00001B0704781B0009001B0704785B00390A6
:1021E0000291FFE7039890F83C00012804D1FFE733
:1021F00002208DF813007EE00399012081F83C0055
:10220000FFE7FFE70399022081F83D00039800688B
:10221000406801900398006880680090019820F061
:10222000700001900298016801980843019001989C
:10223000039909684860039800680021C4F201010D
:1022400088423CD0FFE703980068B0F1804F36D059
:10225000FFE70398006840F20041C4F200018842A1
:102260002DD0FFE70398006840F60001C4F200019A
:10227000884224D0FFE70398006840F60041C4F28A
:10228000000188421BD0FFE70398006840F200413C
:10229000C4F20101884212D0FFE70398006844F2BB
:1022A0000001C4F20101884209D0FFE703980068E9
:1022B00041F60001C4F2000188420ED1FFE7009808
:1022C00020F0800000900298416800980843009038
:1022D0000098039909688860FFE70399012081F855
:1022E0003D00FFE70399002081F83C00FFE7002054
:1022F0008DF81300FFE79DF8130005B0704700004C
:1023000080B582B00090009820B9FFE701208DF8D9
:1023100007003FE0009890F83D0040B9FFE70099C2
:10232000002081F83C00009800F038F8FFE70099A1
:10233000022081F83D00009951F8040B00F016FDD1
:102340000099012081F84600FFE70099012081F8FB
:102350003E00009981F83F00009981F84000009903
:1023600081F84100FFE7FFE70099012081F8420072
:10237000009981F84300009981F84400009981F8A0
:102380004500FFE70099012081F83D0000208DF80D
:102390000700FFE79DF8070002B080BD80B584B05C
:1023A00003900398006841F20001C4F200018842E2
:1023B0001BD1FFE7FFE70020029043F64000C4F284
:1023C0000200016841F010010160006800F0100097
:1023D00002900298FFE73620019000221146FEF796
:1023E0007FFC0198FEF772FCFFE704B080BD00009F
:1023F00083B00190019890F83D00012804D0FFE7D8
:1024000001208DF80B006AE00199022081F83D005F
:1024100001980168C86840F00100C8600198006830
:102420000021C4F2010188423CD0FFE70198006816
:10243000B0F1804F36D0FFE70198006840F20041CC
:10244000C4F2000188422DD0FFE70198006840F6F1
:102450000001C4F20001884224D0FFE7019800681F
:1024600040F60041C4F2000188421BD0FFE701980A
:10247000006840F20041C4F20101884212D0FFE737
:102480000198006844F20001C4F20101884209D0B9
:10249000FFE70198006841F60001C4F2000188429C
:1024A00012D1FFE701980068806800F007000090F3
:1024B0000098062807D0FFE701980168086840F0F7
:1024C00001000860FFE706E001980168086840F035
:1024D00001000860FFE700208DF80B00FFE79DF882
:1024E0000B0003B07047000081B0009001B070474E
:1024F00080B584B0039003980068C0680290039888
:102500000068006901909DF804008007002824D528
:10251000FFE79DF80800800700281DD5FFE7039816
:1025200001686FF0020008610399012008770398A1
:1025300000688069800720B1FFE70398FFF7D4FFA8
:1025400006E0039800F0E2F8039800F0E3F8FFE7F4
:10255000039900200877FFE7FFE79DF80400400794
:10256000002825D5FFE79DF80800400700281ED564
:10257000FFE7039801686FF00400086103990220E7
:10258000087703980068806910F4407F04D0FFE763
:102590000398FFF7A9FF06E0039800F0B7F8039847
:1025A00000F0B8F8FFE7039900200877FFE7FFE79E
:1025B0009DF804000007002824D5FFE79DF80800D7
:1025C000000700281DD5FFE7039801686FF0080099
:1025D000086103990420087703980068C0698007A0
:1025E00020B1FFE70398FFF77FFF06E0039800F0B4
:1025F0008DF8039800F08EF8FFE703990020087724
:10260000FFE7FFE79DF80400C006002825D5FFE797
:102610009DF80800C00600281ED5FFE70398016852
:102620006FF010000861039908200877039800688C
:10263000C06910F4407F04D0FFE70398FFF754FF10
:1026400006E0039800F062F8039800F063F8FFE7F3
:10265000039900200877FFE7FFE79DF80400C00713
:1026600078B1FFE79DF80800C00748B1FFE703987D
:1026700001686FF001000861039800F04FF8FFE770
:10268000FFE79DF804000006002810D5FFE79DF83D
:1026900008000006002809D5FFE7039801686FF0DD
:1026A000800008610398FFF791FDFFE7FFE79DF8C1
:1026B00004004006002810D5FFE79DF808004006FA
:1026C000002809D5FFE7039801686FF04000086112
:1026D000039800F03BF8FFE7FFE79DF80400800651
:1026E000002810D5FFE79DF808008006002809D5CE
:1026F000FFE7039801686FF0200008610398FFF777
:1027000069FDFFE7FFE704B080BD000081B00090E5
:1027100001B0704781B0009001B0704780B582B0C1
:102720000190019840F2C801C2F2000188420BD129
:10273000FFE740F21010C2F20000009000F062FCCF
:10274000009800F001FCFFE702B080BD81B000906E
:1027500001B07047FFE7FEE780B58EB000200D9016
:102760000C900B900A900990FFE70020089043F628
:102770003000C4F20200016841F00201016000680B
:1027800000F0020008900898FFE7FFE7002007909C
:1027900043F63000C4F20200016841F0010101601B
:1027A000006800F0010007900798FFE7FFE70020AE
:1027B000069043F63000C4F20200016841F0800147
:1027C0000160006800F0800006900698FFE7002096
:1027D000C4F2020001901021009101220292FEF742
:1027E000CFF9029A40F20040C4F202000490114670
:1027F000FEF7C6F9009A0198029909920A910B9185
:10280000022103910C9109A90591FDF7DDFF029BBF
:10281000039A0498059909930A930B930C92FDF778
:10282000D3FF0EB080BD000080B582B040F27000D2
:10283000C2F20000019043F20001C4F20101016004
:102840004FF48271416000218160C1600222026107
:10285000012242614FF4007282613822C26101623A
:10286000416281620A21C162FEF76AFF18B1FFE787
:10287000FDF784FFFFE702B080BD000080B582B0A5
:1028800000210191009140F2C800C2F2000041F223
:102890000002C4F2000202601B224260816040F626
:1028A000B732C2608161FFF72BFD18B1FFE7FDF77A
:1028B00065FFFFE700200090019040F2C800C2F2DF
:1028C00000006946FFF78AFC18B1FFE7FDF756FFE5
:1028D000FFE702B080BD0000FFE7FEE7FFE7FEE78D
:1028E00088B0079006910592079800F007000490C1
:1028F0000498C0F10700052803D3FFE704200190E6
:1029000004E00498C0F107000190FFE701980390EC
:1029100004980430062803D8FFE70020009003E065
:10292000049803380090FFE70098029006980399F6
:10293000012202FA01F101390840029B98400599F1
:102940009A40013A1140084308B0704770470000B0
:1029500080B586B004900391029204984068B0F567
:10296000827F13D1FFE704988068B0F5004F06D04E
:10297000FFE704988068B0F5806F07D1FFE70498FF
:102980000168086820F040000860FFE7049840688C
:10299000B0F5827F31D1FFE704988068B0F5806F91
:1029A00015D0FFE70498039B02996A4611608021C5
:1029B000002200F0A5F848B1FFE70499486D40F007
:1029C0002000486503208DF817002FE014E00498DC
:1029D000039B02996A4611600121002200F090F8E1
:1029E00048B1FFE70499486D40F020004865032096
:1029F0008DF817001AE0FFE714E00498039B029992
:102A00006A4611600121002200F07AF848B1FFE720
:102A10000499486D40F02000486503208DF81700A8
:102A200004E0FFE700208DF81700FFE79DF817008E
:102A300006B080BD80B586B00490039102920498E0
:102A4000039B02996A4611600221012200F058F8A6
:102A500048B1FFE70499486D40F020004865032025
:102A60008DF8170048E040F20000C2F20000006854
:102A70004AF6AB21CAF6AA21A0FB011000094DF6C7
:102A80008361C4F21B31A0FB0110800C4FF47A71FA
:102A90004843019004984068B0F5827F15D1FFE764
:102AA0000498039B02996A4611608021002200F07D
:102AB00027F848B1FFE70499486D40F020004865C9
:102AC00003208DF8170017E012E0FFE7019808B91E
:102AD000FFE70CE0019801380190FFE704980068D7
:102AE0008068C1B20020B0EBD11FEFD1FFE7FFE754
:102AF00000208DF81700FFE79DF8170006B080BD95
:102B000080B58AB0DDF830C0089007918DF81B20A1
:102B1000059305980190FEF74BF8024601980C9931
:102B2000891A08440390FEF743F80290039840F294
:102B30000001C2F200010968C1F3CB31484304909F
:102B4000FFE708980068806807990840401AB0FAC3
:102B500080F040099DF81B1088425FD0FFE7059880
:102B60000130002859D0FFE7FEF722F80299401AF9
:102B70000399884204D2FFE70398002842D1FFE777
:102B800008980168486820F0E000486008984068AC
:102B9000B0F5827F13D1FFE708988068B0F5004F49
:102BA00006D0FFE708988068B0F5806F07D1FFE78F
:102BB00008980168086820F040000860FFE708985E
:102BC000806AB0F5005F0FD1FFE7FFE70898016862
:102BD000086820F40050086008980168086840F40C
:102BE00000500860FFE7FFE70899012081F85100D5
:102BF000FFE70899002081F85000FFE703208DF8D7
:102C000027000FE0049818B9FFE70020039003E0C5
:102C1000049801380490FFE7FFE792E700208DF861
:102C20002700FFE79DF827000AB080BD704700002D
:102C300080B582B0009000980138B0F1807F03D356
:102C4000FFE70120019019E0009801384EF21401CD
:102C5000CEF2000108604FF0FF300F2100F0C6FAFD
:102C60004EF21801CEF20001002008604EF2100270
:102C7000CEF20002072111600190FFE7019802B037
:102C800080BD000080B5FDF799FF80BD80B594B090
:102C900008A83021FDF76DFB0020079006900590F5
:102CA00004900390FFE70020029043F64000C4F236
:102CB0000200016841F080510160006800F080501E
:102CC00002900298FFE7FFE70020019047F2000022
:102CD000C4F20000016841F480410160006800F422
:102CE000804001900198FFE7012008904FF4803068
:102CF000099002200E904FF480010F91062110914F
:102D0000A821119112900420139008A8FEF7B0F9A1
:102D100018B1FFE7FDF732FDFFE70F200390022017
:102D20000490002005904FF4A05006904FF480507E
:102D3000079003A80521FDF7F5FF18B1FFE7FDF7A0
:102D40001DFDFFE714B080BD4EF68851CEF20001A4
:102D5000086840F4700008607047000080B540F2D9
:102D6000C800C2F20000FFF7C3FB80BD83B0029031
:102D7000019102980068009002980021C4F20101BC
:102D8000884225D0FFE70298B0F1804F20D0FFE7BE
:102D9000029840F20041C4F20001884218D0FFE7D7
:102DA000029840F60001C4F20001884210D0FFE70B
:102DB000029840F60041C4F20001884208D0FFE7C3
:102DC000029840F20041C4F2010188420AD1FFE7B3
:102DD000009820F070000090019841680098084326
:102DE0000090FFE702980021C4F20101884255D00B
:102DF000FFE70298B0F1804F50D0FFE7029840F211
:102E00000041C4F20001884248D0FFE7029840F632
:102E10000001C4F20001884240D0FFE7029840F66A
:102E20000041C4F20001884238D0FFE7029840F226
:102E30000041C4F20101884230D0FFE7029844F219
:102E40000001C4F20101884228D0FFE7029844F251
:102E50000041C4F20101884220D0FFE7029844F605
:102E60000001C4F20101884218D0FFE7029841F640
:102E70000001C4F20001884210D0FFE7029841F639
:102E80000041C4F20001884208D0FFE7029842F2F4
:102E90000001C4F2000188420AD1FFE7009820F443
:102EA000407000900198C168009808430090FFE7C7
:102EB000009820F08000019949690843009001982A
:102EC00080680299C8620198006802998862029835
:102ED0000021C4F20101884208D0FFE7029840F2C5
:102EE0000041C4F20101884205D1FFE70198006961
:102EF00002990863FFE70299086840F0040008603F
:102F000002990120486100980299086003B0704757
:102F1000FFE7FEE780B500F0A9F980BD80B584B079
:102F200003900291039801F023FC41EC100B8DED0E
:102F3000000B029801F01CFC9DED000B41EC110B05
:102F400000F07EFA04B080BD80B584B00390039891
:102F5000009000F11C010F20012200F0B9F9009847
:102F6000007F01460191042826D80199DFE801F08D
:102F700003090F161D0000990020C4F27420486256
:102F80001BE000990020C4F2F410486215E000999B
:102F90004CF6CD40C4F2741048620EE0009943F242
:102FA0003330C4F2F300486207E0009943F2333053
:102FB000C4F27300486200E022E0009800F11D01B5
:102FC0000220062200F084F900200290FFE7029818
:102FD000022815DCFFE7009A029802EB4000417FCF
:102FE000807F92ED090A00F055F80098029900EBF5
:102FF000810080ED0A0AFFE7029801300290E6E7BF
:1030000004B080BD80B584B0039003990091412045
:10301000012200F041F9009840780146019103280F
:1030200014D80199DFE801F002060A0E0099032086
:10303000C8600CE000990620C86008E000990C20E8
:10304000C86004E000991820C86000E020E0009803
:10305000811C1220062200F01FF900200290FFE7D9
:103060000298022814DCFFE7009A029802EB400065
:10307000C1780079D26800F033F80098029900EB2B
:10308000810080ED040AFFE7029801300290E7E733
:1030900004B080BD82B08DF807008DF806108DED6C
:1030A000000A9DF807109DF8060040EA012140F251
:1030B0004410C2F2000001809DED000AB0F900004A
:1030C00001EE100AB8EEC11A20EE010A9FED021AB5
:1030D00080EE010A02B0704700007A440000000050
:1030E00080B586B08DF817008DF8161004929DF803
:1030F00017109DF8160040EA0120ADF80E00BDF94A
:103100000E0000EE100AB8EEC00A9FED211A80EE04
:10311000010A10EE100A01F079FE41EC100B8DED62
:10312000000B0498411C0220FFF7F8FEB0EE401A95
:10313000F0EE601A9DED000B53EC112B51EC100BCF
:1031400001F06AFB41EC100B51EC100B9FED0C0BE6
:1031500053EC102B01F060FB41EC100B51EC100B09
:103160009FED090B53EC102B01F056FB41EC100BBB
:1031700051EC100B01F0B4F800EE100A06B080BD5F
:10318000000000000000F83F000000A099992340D3
:103190000000004781B00090009801B07047000027
:1031A00081B00090009801B07047000081B08DF8A8
:1031B00003009DF9030000280ED4FFE79DF90310DA
:1031C00001F01F02012090404A094EF20011CEF298
:1031D000000141F82200FFE701B070474EF60C50A5
:1031E000CEF200000068C0F30220704782B08DF874
:1031F000070000919DF9070000280AD4FFE7009816
:1032000000019DF907104EF20042CEF200028854F0
:103210000BE0009800019DF8071001F00F014EF639
:103220001452CEF200028854FFE702B0704700004B
:1032300083B00290029800F0070000904EF60C5107
:10324000CEF200010868019001984FF6FF0210408D
:1032500001900198009A40EA02200022C0F2FA523E
:10326000104301900198086003B0704780B582B0A8
:1032700040F21010C2F200000190FFF78BFF01999D
:1032800043F2A110C0F6000040F20002C0F60002B6
:10329000FDF76AF802B080BD80B584B08DF80F00EC
:1032A00002918DF80720FDF751FAFDF745FA9DF8D8
:1032B0000F0040F0800000F06DF802989DF80710B4
:1032C0000131C9B200F048F8FDF72CFA04B080BD16
:1032D00080B584B08DF80F0002918DF80720FDF7BE
:1032E00021FAFDF73DFA9DF80F0040F0800000F054
:1032F00051F802989DF8071000F02EF8FDF726FA15
:1033000004B080BD80B582B0FDF716FA7E20B621EC
:10331000009100F051F801200190FDF733FAFDF71C
:1033200001FAFDF71DFA0099142000F045F81E205F
:10333000FDF728FAFDF70AFAFDF7FEF90198FDF707
:1033400021FA7D20042100F037F80198FDF71AFAE0
:10335000FDF7E8F902B080BD80B582B001908DF82C
:10336000031001999DF8032040F27000C2F20000A2
:103370004FF47A73FEF7D6FAFFE740F27000C2F21C
:103380000000FEF7D5F9042801D1FFE7F5E702B008
:1033900080BD000080B582B08DF8070040F270005B
:1033A000C2F200000DF1070101224FF47A73FEF71B
:1033B000E1FB02B080BD000080B582B08DF807004F
:1033C0008DF806109DF8070000F07F00FFF7E2FF80
:1033D0009DF80600FFF7DEFF02B080BD80B582B029
:1033E00000200190FDF7F8FBFFF750FCFFF7B4F960
:1033F000FFF71AFAFFF742FAFFF784FF40F2C8001E
:10340000C2F20000FEF7F4FFFFE7FEE703B4019805
:103410004100009850EAC12018BF04204A0D18BF8F
:1034200040F0010040F2FF72B2EB515F08BF40F084
:103430000200012808BF052002B07047000000000C
:103440002DE9F04D2DED040B2DED0E8B94B0DDE943
:103450002350259CDDF888A025F0004624F0004884
:10346000BAF1000F14BF0121002101EB4502FC4914
:1034700053184A1093422AD3002814BF0123002373
:1034800003EB44030B44F7498B4220D358EA000175
:103490009FEDF5AB76D0DFF8D8B35D4503D1BAF137
:1034A000000F05D188E0BAF1000F08BF002100D05D
:1034B000012101EB450111F5001F08D8002814BFB8
:1034C0000121002101EB440111F5001F0BD99DEDF5
:1034D000241B9DED220B14B0BDEC0E8B04B0BDE897
:1034E000F04D00F071BE0027002DBCBFE1498845BA
:1034F00021DAE1498845A8BF02271CDAC3451ADC56
:10350000DE4901EB2851142908DDC1F1340220FA0B
:1035100002F101FA02F282420DD108E058B9C1F17C
:10352000140228FA02F101FA02F2424503D101F035
:103530000101C1F1020756EA0A0124D1002C22DA66
:10354000002D18BF022F01D0012F0AD00220FCF756
:1035500052FF14B0BDEC0E8B04B0BDE8F04D00F08E
:103560001BBE0220FCF747FF00F016FE51EC100BCB
:1035700000F0A9FE41EC100B14B0BDEC0E8B04B0B2
:10358000BDE8F08D18E09FEDBE9B9FEDBF8B00283E
:1035900071D1B848804522D105F1804010F58010E6
:1035A00008BFBAF1000F07D0B3450ADC002CA8BF52
:1035B0009DED240BE0DA0DE0B0EE4A0AF0EE6A0A67
:1035C000DAE7002C06DA9DED240B51EC100B00F02D
:1035D0007AFE6FE0AE48784490ED000BCCE7D8451A
:1035E0004DD1002C48DA2EB186423AD1BAF1000F03
:1035F00042D126E0BAF1000F13D00220FCF7FBFE07
:1036000000F0FEFD8DED020B9DED220B8DED000B0C
:1036100010EE900A039961F31E0003909DED020BDA
:10362000AAE78DED029B9DED220B19EE901A10EE8C
:10363000900A8DED000B61F31E0003909DED020BCF
:103640009AE78DED028B9DED220B18EE901A10EE8D
:10365000900A8DED000B61F31E0003909DED020BAF
:103660008AE709DA9DED220B51EC1A0B53EC102B73
:1036700000F024FF1EE020E09DED220B7CE7864257
:103680001BDAB4F1804F0DD0A4F10050B0F1FF501F
:1036900013D1002D11DB9DED220B51EC100B00F02E
:1036A000DBFD07E09DED220B53EC102B51EC100BD2
:1036B00000F0CABC41EC100B5EE79DED220B51EC13
:1036C000100B00F0BDFDBAF1000FCDE90A0142D1A7
:1036D0009FED710B46B3A6F1E040B0F17F600CD0D6
:1036E0005E4538D1002D00DAA7B3022F0CBF0120B0
:1036F0004FF0FF3001F03CF8DCE7002D01DD002C3D
:103700000DDA002D01DD002C1FDB002D16DA002C58
:1037100014DB012F08BF9FED620B3FF42DAFB0EE1D
:10372000490AF0EE690A27E7022F18BF002D0CD0D6
:10373000012F0AD1002DFFF61FAF06E0002DB8BF04
:10374000002C08DA012F3FF417AFB0EE480AF0EE74
:10375000680A11E71BE0012000EBE57050EA070161
:1037600015D0791EB0EE4A8AF0EE6A8A084308BF87
:103770009FED4D8B4E480025804570DD4D494E48EC
:10378000884514DDB0420DDB002C19DB2FE0012051
:10379000FCF731FE14B0BDEC0E8B04B0BDE8F04D6B
:1037A00000F01EBDB34502DC002C09DC1FE08642A0
:1037B00002DA002C1BDA03E05E452BDD002C16DD5F
:1037C0000220FCF718FE00F01BFD8DED020B53EC00
:1037D000192B51EC180B01F01FF8CDE900010399EA
:1037E000019861F31E0003909DED020BC4E60220D8
:1037F000FCF701FE00F014FD10EE901A18EE900A8E
:103800008DED020B8DED008B61F31E0003909DED9D
:10381000020BB1E69DED0A0B53EC1A2B51EC100B89
:1038200001F006FA9FED260BCDE90A0153EC102BAF
:103830009DED0A0B51EC100B00F0EEFF9FED221BEB
:1038400053EC112B01F01CF99DED0A1B53EC112BCD
:1038500000F0E2FF9FED1E1B53EC112B3CE08CE0CF
:10386000FFFF1F00FFFF0F00000000000000F03FFF
:103870000000F03F0000F07F0000404301FCFFFF2C
:10388000000000000000F07F0000000000000000C9
:10389000B61A0000000000000000000000000080D8
:1038A000000000000000F0FF000000000000F0BF7A
:1038B0000000E0410000F043FFFFEF3F0000000088
:1038C000000000000000D03F555555555555D53FD7
:1038D000000000000000E03F01F0D2F89DED0A0B6F
:1038E00041EC190B53EC102B51EC100B00F094FF32
:1038F00053EC192B00F090FF9DED0A0B41EC1B0BD4
:1039000053EC102B9FEDFE0B51EC100B00F084FFDD
:1039100041EC190B9FEDFC0B51EC1B0B53EC102BE6
:1039200000F07AFF41EC1B0B9FEDF90B53EC102BD1
:103930009DED0A0B51EC100B00F06EFF53EC1B2BAE
:1039400001F076F941EC1B0B51EC190B53EC1B2BDE
:1039500000F0F8FC0490CDE904519DED040B53EC0C
:10396000192B51EC100B01F063F953EC1B2B01F0F8
:1039700087F841EC100B00F0A9B90020B6F5801FC4
:103980000EDA9FEDE50B53EC102B9DED0A0B51EC7D
:10399000100B00F041FFCDE90A016FF034000E4634
:1039A00000EB2650A0F2FF37C6F31300DC4940F0CD
:1039B0007F6646F040568842D8BF002408DDD949CA
:1039C0008142C8BF012403DC0024A6F580167F1CB9
:1039D000D548784400EBC4080B9698ED000B53ECE7
:1039E000102B9DED0A0B51EC100B01F021F998ED15
:1039F000000B41EC1B0B53EC102B9DED0A0B51EC13
:103A0000100B00F09FFC41EC100B51EC1A0B53EC27
:103A1000102B00F053FD41EC1C0B51EC1B0B53EC35
:103A20001C2B00F0F9FE41EC190BC0488DED0E9BEC
:103A300078440E9590ED000B4FF0005040EA660080
:103A400000EB84408DED120B00F50020139098EDF3
:103A5000000B53EC102B9DED120B51EC100B01F0F1
:103A6000E7F89DED0A1B53EC112B01F009F841EC2E
:103A7000100B53EC102B9DED0E0B51EC100B00F0C6
:103A8000CBFE9DED120B41EC1D0B53EC102B9DED6D
:103A90000E0B51EC100B00F0BFFE53EC1B2B00F093
:103AA000EFFF53EC1D2B01F0C3F853EC1C2B00F07F
:103AB000B3FE41EC1C0B53EC192B51EC190B00F02D
:103AC000ABFE41EC1B0B9A480621B0EE4B0AF0EE20
:103AD0006B0A784400F0E4FAB0EE401AF0EE601A97
:103AE000B0EE41DAF0EE61DA53EC1B2B51EC1B0B1C
:103AF00000F092FE53EC1D2B00F08EFE9DED0E0BA0
:103B000041EC1B0B53EC192B51EC100B00F01AFC81
:103B100053EC1C2B00F080FE53EC1B2B00F012FC2E
:103B20009DED0E0B41EC1B0B53EC102B51EC100BCD
:103B300000F072FE41EC1D0B53EC1D2B9FED7EEB54
:103B400051EC1E0B00F0FEFB53EC1B2B00F0FAFBBC
:103B50001290CDE912519DED120B53EC1E2B51EC3E
:103B6000100B01F065F853EC1D2B01F061F853ECDC
:103B70001B2B00F085FF9DED120B41EC1D0B53EC50
:103B8000102B9DED0E0B51EC100B00F045FE41EC9F
:103B90001B0B53EC192B51EC1D0B00F03DFE9DED62
:103BA000120B41EC190B53EC102B51EC1C0B00F0D9
:103BB00033FE53EC192B00F0C5FB41EC190B51EC13
:103BC0001B0B53EC192B00F0BDFB0490CDE9045105
:103BD0009DED040B53EC1B2B51EC100B01F028F85E
:103BE00053EC192B00F04CFF9DED040B41EC190B2D
:103BF00053EC102B9FED520B51EC100B00F00CFE10
:103C000041EC1B0B9FED500B51EC190B53EC102B9F
:103C100000F002FE9DED040B41EC190B53EC102B50
:103C20009FED4B0B51EC100B00F0F6FD53EC192BF4
:103C300000F088FB41EC100B4748784400EBC400CF
:103C400090ED001B51EC100B53EC112B00F07AFBA4
:103C500041EC190B384600F08BFDCDE90A0153EC1D
:103C6000192B51EC1B0B00F06DFB41EC100B3B488A
:103C7000784400EBC40451EC100B94ED001B53ECA2
:103C8000112B00F05FFB9DED0A1B53EC112B00F094
:103C900059FB0490CDE904519DED0A0B53EC102B18
:103CA0009DED040B51EC100B00F0C2FF94ED001BD6
:103CB00053EC112B00F0BCFF53EC1B2B00F0B8FFB2
:103CC00053EC192B00F0DCFE41EC100B9DED241B96
:103CD00053EC102B8DED001B00959DED240B51EC4A
:103CE000100B00F099FD9DED000B41EC190B53EC0E
:103CF000102B9DED240B51EC100B00F099FF2FE0E1
:103D0000000000604715F73FFE822B654715F73F1F
:103D100044DF5DF80BAE543E00000000000040435D
:103D20008E9803007AB60B00321600005C16000075
:103D300062150000000000000000000000000840C4
:103D4000000000E009C7EE3FFD033ADC09C7EE3F83
:103D5000F5015B14E02F3EBEEA130000A41300003F
:103D60009DED041B53EC112B00F056FD53EC192B69
:103D700000F0E8FA9DED040B41EC190B53EC102B0D
:103D80009DED000B51EC100B00F046FDCDE9040158
:103D90009DED040B51EC190B53EC102B00F0D2FAF3
:103DA000CDE902010C46AA498C422FDB611A084377
:103DB00018D19DED040B53EC102B9DED020B51EC33
:103DC000100B00F035FF41EC1B0B9FEDA30B51ECEA
:103DD000190B53EC102B00F0B5FA53EC1B2B00F031
:103DE00019FE2DD20220FCF706FB00F009FA10EEB6
:103DF000901A18EE900A8DED020B8DED008B61F399
:103E00001E0003909DED020BFFF7B6BB944A24F011
:103E10000041914214D39349214408437FF4E7AC15
:103E20009DED040B53EC102B9DED020B51EC100B90
:103E300000F0FEFE53EC192B00F0ECFD7FF6D7AC42
:103E400024F000408849894A002601EB2051824233
:103E50002BDA481C4FF4801121FA00F02044844AE8
:103E6000C0F30A517A44A1F2FF3192ED000B814A6E
:103E70008DED0A0BCA4020EA0202C0F3130040F4A1
:103E80008010C1F1140120FA01F60B92002CB8BF8A
:103E900076429DED0A0B53EC102B9DED040B51EC7B
:103EA000100B00F0C5FECDE904019DED040B51ECB3
:103EB000190B53EC102B00F045FA9FED6F0B0A9095
:103EC000CDE90A5153EC102B9DED0A0B51EC100B70
:103ED00000F0A2FC41EC1B0B9FED690B53EC102B87
:103EE0009DED0A0B51EC100B00F096FC9DED040BC0
:103EF00041EC1C0B53EC102B9DED0A0B51EC100BFD
:103F000000F096FE53EC192B00F0BAFD9FED5E1BFE
:103F100053EC112B00F080FC53EC1C2B00F012FA38
:103F200041EC190B51EC1B0B53EC192B00F00AFA66
:103F3000CDE902019DED020B53EC1B2B51EC100B54
:103F400000F076FE53EC192B00F09AFD9DED020B6C
:103F500041EC190B53EC102B51EC100B00F05CFCF6
:103F6000CDE90A014A489DED0A0B0521784400F08D
:103F700097F89DED0A1B51EC100B53EC112B00F040
:103F80004BFC9DED021B53EC112B00F079FDCDE9AC
:103F900004019DED020B53EC192B51EC100B00F0BA
:103FA0003BFC53EC192B00F0CDF99FED3B0B41ECA2
:103FB000190B53EC102B9DED040B51EC100B00F082
:103FC00037FE9DED040B41EC1B0B53EC102B9DEDCC
:103FD000020B51EC100B00F01FFC53EC1B2B00F0FC
:103FE0006DFA53EC192B00F023FE9DED021B53ECF0
:103FF000112B00F01DFE53EC1A2B00F041FDCDE912
:10400000020101EB065001150029C8BF039015DC21
:104010009DED020B324651EC100B00F0ACFFFFF7A8
:10402000F5F9042808BF00F0FBF832469DED020BBD
:1040300051EC100B00F09FFFCDE902019DED020B4A
:1040400051EC180B53EC102B00F0E6FBFFF732BBE2
:104050000000904000000000FE822B654715973C51
:1040600000CC904000346F3F01FCFFFF0000E03FB8
:1040700028120000FFFF0F0000000000432EE63F63
:10408000396CA80C615C20BEEF39FAFE422EE63F87
:10409000F8100000000000000000000000000040D8
:1040A00070B504462DED028B4D1E00EBC500B0EE41
:1040B000408AF0EE608A90ED000B35F0060017D0D4
:1040C00053EC182B51EC100B00F0A6FB41EC100B3D
:1040D0006D1E04EBC50090ED001B51EC100B53EC72
:1040E000112B00F02FF941EC100B35F00600E7D151
:1040F000022D36D0042D1CD0062D1CBFBDEC028B2A
:1041000070BD53EC182B51EC100B00F085FB94EDB7
:104110000A1B53EC112B00F015F953EC182B00F08F
:104120007BFB94ED081B53EC112B00F00BF941ECD9
:10413000100B53EC182B51EC100B00F06DFB94EDB1
:10414000061B53EC112B00F0FDF853EC182B00F07C
:1041500063FB94ED040B53EC102B00F0F3F841ECEF
:10416000100B53EC182B51EC100B00F055FB94ED99
:10417000021B53EC112B00F0E5F853EC182B00F068
:104180004BFB94ED001B53EC112B00F0DBF8BDEC66
:10419000028B41EC100B70BD9FED070B10B553EC7B
:1041A000102B9FED070B51EC100B00F087F941EC41
:1041B000100B10BD00000000000000000000000017
:1041C000000000000000F03F10B553EC112B51EC43
:1041D000100B00F0B7F841EC100B10BD0000000010
:1041E0009FED050B10B553EC102B51EC100B00F0AC
:1041F00065F941EC100B10BD00000000000000004C
:104200009FED050B10B553EC102B51EC100B00F08B
:1042100003FB41EC100B10BD00000000000000701B
:104220009FED050B10B553EC102B51EC100B00F06B
:10423000F3FA41EC100B10BD00000000000000106C
:1042400082B0CDE9000121F0004001909DED000B0E
:1042500002B051EC100B704700B52DED048B83B00C
:1042600041EC190B00F018FC41EC180B18EE100A89
:1042700018EE901A8DED008B002818BF012008431E
:1042800020F00040C0F17F6000F1E040C00F14D08A
:1042900019EE101A19EE900A8DED009B002918BF37
:1042A0000121084320F00040C0F17F6000F1E040B0
:1042B000C00F04BF0120FCF79EF851EC180B03B0AF
:1042C000BDEC048B00BD81F00041704780F00040E0
:1042D000704721F00041704720F000407047000017
:1042E00021F0004201F00043A2F16052B2F5801FBC
:1042F00028BFD2F17F6C0BD95FEA001C43EAC202EF
:1043000042EB507018BF704728BF20F00100704783
:10431000B2F5801FBCBF184670474FEA410C1CF530
:10432000001F02D2084600F0EFBD70B500F01EFB82
:1043300000000089FFF7F6BF4FF00040A0F58000B5
:104340007047000010B591EA030F48BF83F00043A7
:1043500000F17684841A71EB030C05D2121943EB39
:104360000C03001B61EB0C014FEA1154A4EB135C2E
:10437000DFF81CE11EEA430F18BF9EEA445F00F01D
:10438000748021EA045123EA0E0343F48013DCF124
:10439000200E32D322FA0CFE10EB0E0023FA0CFE94
:1043A00041EB0E01CCF1200E03FA0EFE10EB0E00D5
:1043B000CCF1200E51F10001B1F5801F32D201EB9A
:1043C000045112FA0EF2BDE8104058BF7047401C6D
:1043D00038BF5FEA420218BF7047002814BF20F0C0
:1043E000010041F100014FEA410313F5001F38BFFE
:1043F0007047A1F1C04100F007BB012A43EB030263
:10440000ACF1200CDCF11F0E32BF4FF0000E23FA8E
:104410000CF310EB030041EB0451B4EB115FD0D06F
:10442000A1EB045101F58011490801EB04515FEA49
:1044300030000ED350F1000038BF12FA0EFE08D142
:10444000BDE81040C9E7401C38BF5FEA4202CAD14C
:10445000C3E7BDE810404FEA410313F5001F38BF22
:104460007047A1F1C04100F0CFBA9EEA445F08D086
:1044700011EA5E0FBDE8104004BF01F000410020CA
:104480007047BDE8104070B500F070FA64FBBE3EA6
:104490000000E0FF02494FF0000000F03ABD00BF0D
:1044A0000000F87F491058BFC1F140415B1058BF70
:1044B000C3F140438B42EFF3008070472DE9C041C8
:1044C00030B4DFF8A4C23CEA111418BF3CEA13145C
:1044D00000F0ED801CEA111481EA030544EAD5746A
:1044E00018BF1CEA131500F0C880A4EB050404F102
:1044F0007F7404F500344FF0004545EAC12145EAD8
:10450000C32341EA505143EA52534FEAC0204FEAD5
:10451000C222994208BF904200F09D804FEA136585
:104520000FF24416765D4FEA134506FB05F7C7F117
:10453000807706FB07F74FEAD737A7FB0368764279
:10454000A7FB06CEC8F5803838BFA8F1010807FBE5
:1045500008E6A6FB028C4FF0000EE6FB03CEDCF172
:10456000000CCEF1004E38BFAEF1010EA6FB0C5888
:104570004FF00007E6FB0E87A1FB08C6A0FB07CEA5
:1045800016EB0E064FF0000545F10005E1FB07654F
:1045900015F1E04E7EBFA4F580345FEA46066D411A
:1045A00016F1800745F100054FEA172747EA05672E
:1045B0004FEA15254FEA0666A6F1DE46B6F1805FA2
:1045C00020D9384605EBC47124F0010C01EB0C1125
:1045D000BCF1FE6F02D8F0BCBDE8008124425CBF94
:1045E00001F5801E9EEAC47F02D4F0BCBDE80081C4
:1045F000244200F13980A1F1C041F0BCBDE8004186
:1046000000F002BA4FEAD02040EA41504FEAD121EF
:104610004FEAD22242EA43524FEAD323A7FB028653
:1046200007FB036605FB02661EEA0E0F58BFA6EBEA
:104630000056B6EB00564FEA520E4EEAC37E18EB18
:104640000E0E56EB530EBCD518EB02085E417F1CD4
:1046500055F10005B5E74FF480154FF000074FF016
:1046600000064FF00008ACE701F1C04101F0004145
:104670004FF00000F0BCBDE800810CEA131511EA10
:104680000C1F00D00CE013EA0C1F00F026804FF046
:10469000000081EA030101F00041F0BCBDE80081A7
:1046A000F0BCBDE8004181EA030100F0ADB9F0BC07
:1046B000BDE8004170B500F059F900BF097EFC3E2D
:1046C00000F007B84FF0000081EA030101F000415B
:1046D000704781EA030100F097B9F0BCBDE80041E2
:1046E00022494FF000007047FFFDFBF9F7F5F4F2A7
:1046F000F0EEEDEBE9E8E6E4E3E1E0DEDDDBDAD87D
:10470000D7D5D4D3D1D0CFCDCCCBCAC8C7C6C5C4DA
:10471000C2C1C0BFBEBDBCBBBAB9B8B7B6B5B4B3F1
:10472000B2B1B0AFAEADACABAAA9A8A8A7A6A5A4DC
:10473000A3A3A2A1A09F9F9E9D9C9C9B9A999998A0
:104740009797969595949393929191908F8F8E8E43
:104750008D8C8C8B8B8A89898888878786858584D0
:1047600084838382828181800000FF070000F87FBC
:1047700010F0004248BF4042B0FA80F310FA03F153
:104780000AD0C3F11D0303F5806302EB03524FEA25
:10479000415002EBD12170474FF0000070470000FC
:1047A00051EA030C17D41CF5801F58BFBCF5801FBD
:1047B00000F10680994218BF704708BF90427047C9
:1047C00007D711F5801F58BF13F5801F19D49942E0
:1047D0007047894270471CF5801F08D5BCF5801FC3
:1047E000F7D58B4218BF704708BF824270474FF41D
:1047F000001C1CEB410F38BF1CEB430F01D28B4256
:10480000704770B500F0B2F8922449004FF00051A3
:104810004FF08053FFF746BE70B5DFF848C11CEA81
:10482000111E1EBF1CEA13159EEA0C0F95EA0C0F11
:1048300000F06F8081EA03044EEAD47EAE4421EAA0
:104840004C1123EA4C1341F4801143F48013AEF170
:104850007F7EA1FB024CA0FB0365361955EB0C05CE
:10486000A1FB034C4CF10003A0FB021C16EB0C0651
:10487000654153F10003094218BF46F0010613F4E5
:10488000007F0BD14FEA03314FEA053041EA155161
:1048900040EA165034036FF003020AE04FEAC321E6
:1048A0004FEAC52041EA555140EA5650F4026FF0F4
:1048B000020202EB2E4201EB025585EACE710AD0CC
:1048C0005FEA440C18BF24F0004450F1000041F1AD
:1048D000000120EAD47040F2FE7C624500D270BD37
:1048E000A84214BF4FF080444FF04044002E08BF50
:1048F0000024BEF1806FA8BFA1F1C041BDE87040A7
:1049000080F2828001F1C04101F000414FF00000CF
:1049100070470CEA13159EEA0C0F18BF95EA0C0FAE
:1049200006D081EA030E4FF000000EF0004170BD8A
:1049300000F01CF88900013E00F007B800F009B84B
:104940004FEA430C5FEA5C5C08D081EA030100F0A7
:104950005BB84FEA410C5FEA5C5CF6D102494FF06C
:10496000000070470000FF070000F87F0EF1020E04
:104970002EF0030E5EF8046B364205D4012A43EB99
:10498000030515F5001F12D8012841EB010C1CF599
:10499000001F0CD80ED14FEAD17C0CEB4C0C0CF163
:1049A000020C15F5001F08BF4CEBD37C04E04FF060
:1049B000080C01E04FEAD37C0CEB4C0526FA05F617
:1049C00006F00706B6F1040C06D20EEB860CBDE825
:1049D00070404CF0010C6047DFE80CF0090B02025C
:1049E0004FF00041A1F500214FF0000070BD1946C5
:1049F0001046012851EB010418BFD4F5001484BF00
:104A0000002001F0004170BD0808A0F500114FEA38
:104A10003101704753EA010C17D41CF5801F58BFB1
:104A2000BCF5801F00F106808B4218BF704708BF9D
:104A30008242704707D713F5801F58BF11F5801FBA
:104A400019D48B4270479B4270471CF5801F08D5D4
:104A5000BCF5801FF7D5994218BF704708BF904238
:104A600070474FF4001C1CEB430F38BF1CEB410F89
:104A700001D2994270470FB40CBC03BCFFF7C1BE12
:104A800010B591EA030F81F000413FF563AC83F06C
:104A9000004300F0D5B800002DE9F04101F5801C7D
:104AA000BCF5001FC0F2A9804FEA115C21EA0C514D
:104AB00041F480110CF1FD0C5FEA5C0C0CF5C07C3C
:104AC00001D340004941890241EA905187022EA456
:104AD0008E0EA45D0A0C04FB04F602FB06F6C6F17A
:104AE0004046A4FB0662F60D46EA422606FB06F4A3
:104AF000A4FB01235242C3F1404338BF5B1EA6FB17
:104B000002420024E6FB0324D20B42EA4446A6FB01
:104B10000623A1FB02E2A3FB07E4E3FB614264423C
:104B2000C2F1404E38BFAEF1010EA6FB04234FF098
:104B30000002E6FB0E32A2FB03463400E2FB626495
:104B4000A1FB06E6A4FB07E8E4FB61687642C8F136
:104B5000405838BFA8F10108A2FB06E4A3FB08E512
:104B6000E2FB6854A1FB05E6A7FB04E8E1FB6486D1
:104B700018F1200556F10006A80940EA8660B1093F
:104B8000A8F11B0808F03F08B8F10A0F1CD901EB87
:104B90000C51BDE8F08100BFFCF5EEE8E2DDD8D3B2
:104BA000CFCBC7C3C0BDB9B6B4B1AEACA9A7A5A39E
:104BB000A19F9D9B9A9896959392908F8D8C8B89AF
:104BC0008887868584838281A0FB006800FB01F2D0
:104BD00008EB4208B8EB872807D5341858EB0104D6
:104BE000D5D5401C51F10001D1E7341A78EB01040E
:104BF000CDD4401E71F10001C9E75FEA4C0C5FEAB9
:104C00009C5C0DD105D301F000414FF00000BDE8E0
:104C1000F081BDE8F04170B5FFF7A8FE6DDBFFBE87
:104C2000BDE8F04101494FF0000070470000F87FF7
:104C300010B591EA030F48BF83F000433FF58AABFC
:104C4000841A71EB030C07D28CF0004C121943EB61
:104C50000C03001B61EB0C014FEA1154A4EB135C35
:104C6000DFF8A4E11EEA430F18BF9EEA445F00F09C
:104C7000B48021EA045123EA6E035242C3EB6E036F
:104C800038BF5B1EDCF1200E25D322FA0CFE10EBA0
:104C90000E0043FA0CFE41EB0E01CCF1200E03FA9C
:104CA0000EFE10EB0E00CCF1200E51F1000129D4C4
:104CB00001EB045112FA0EF2BDE8104058BF7047E4
:104CC000401C1CBFB2F1004F704700280CBF491CAC
:104CD00020F00100704712EB020E43EB030218BFF5
:104CE0004FF0010E4EEA4202ACF1200CDCF11E0E38
:104CF00056D943FA0CFE10EB0E00CCF11E0E51F10A
:104D0000FF31D5D50EF1010E12FA0EFE404141EBF6
:104D1000010101EB445C5FEA5C5C10D901EB0451DA
:104D200010EBDE7038BFBEF1004FBDE8104018BF79
:104D3000704700280CBF491C20F00100704734D296
:104D40004FEAD42C24F4006411F500111BD0B1FA01
:104D500081F20B3AA41AA41ED2F12003914030FA3A
:104D600003F31943904001EBCC7101EB0451002C8B
:104D7000BDE81040A8BF704701F1C04101F00041FB
:104D80004FF000007047B0FA80F310FA03F102D13F
:104D9000BDE810407047E41A173C4805C90AE2E72D
:104DA00001EB0451BDE81040704749104FEA300054
:104DB00001EB0451BDE8104002E04FF000017047E4
:104DC0004A0008BF0042F8D0B2F5001F28BF704764
:104DD00001F000414FF0000070479EEA445F07D0A9
:104DE00011EA5E0FBDE8104004BF002100207047AB
:104DF000BDE8104070B5FFF7B9FD00BF40DFF63EDB
:104E0000104683F0004170470000E0FF43004FEA86
:104E1000D30C4FEA3C0C43401FBF40070CF16051DC
:104E200013F0FE4F70471CF0006F03D10CF00041EF
:104E3000002070470CF0004343EA507040EACC0079
:104E400010B500F00EF800BF000000924FEA00011C
:104E5000FFF7DABD4FF00041A1F500214FF000004F
:104E600070470EF1020E2EF0030E5EF8044B244242
:104E700004D44FEA4102B2F17F4F11D84FEA400308
:104E8000B3F17F4F0CD80ED14FEAD07C0CEB4C0C19
:104E90000CF1020CB2F17F4F08BF4CEBD17C04E067
:104EA0004FF0080C01E04FEAD17C0CEB4C0324FAE4
:104EB00003F404F00704B4F1040C06D20EEB840CE6
:104EC000BDE810404CF0010C6047DFE80CF007082B
:104ED00002024FF00040A0F5800010BD08464200DD
:104EE00018BFD2F1807288BF00F0004010BDF1EE13
:104EF000100A4FF6FF71C0F2C03120EA010040F005
:104F00004070E1EE100A7047FF2141EAD050C00521
:104F100070470CF00F03092B08BF082000F05980E0
:104F20000A2B0BD0082B18BF704708BF1CF0400F8E
:104F30000AD04FF000004FF0000170471CF0400F06
:104F400018BF4FF0004070471CF0100F08D000F061
:104F50007F4220F0704342EAD3014FEA437070472A
:104F600000F0604021F07F4242EA000201F07F4001
:104F700040EA727070474FF0FF0C4CF4E06C1CEA92
:104F800011531CBF9CEA030C9445C2BFDA4201EBEB
:104F900002517047002B0DD0BCF1000F0FD001F073
:104FA0000041002AA4BF41F0E04141F07F614FF091
:104FB0000000704701F000414FF00000704750EAD8
:104FC00001334FF09B0C18BF4CF0806C7FF462AA49
:104FD00070471CF4801F11D01CF4E02F03D06FEA3F
:104FE000CC31490070474FF04050EFF3008222F07F
:104FF000704242EA000282F3008870474FF00000DE
:105000007047000000000000000000000000F03FBA
:10501000000000000000F83F000000000000000059
:105020000000004003B8E23F000000000000000064
:1050300006D0CF43EBFD4C3E033333333333E33FF2
:10504000FFAB6FDBB66DDB3F4D268F515555D53F1E
:1050500001411DA96074D13F65DBC9934A86CD3FEC
:10506000EF4E454A287ECA3F3E5555555555C53FDA
:1050700093BDBE166CC166BF2CDE25AF6A56113FCC
:10508000F16BD2C541BDBBBED0A4BE726937663ECE
:105090000000000000000000000000000000000010
:1050A0000102030406070809D05000080000002090
:1050B00010000000C4010008E050000810000020AB
:1050C00040070000E00100084DDEFFFF0000000087
:1050D0000024F400010000001000000000000000A7
:040000050800018965
:00000001FF
