:020000040800F2
:100000002807002029020008E925000861240008CB
:10001000E5250008710400081D2C00080000000000
:100020000000000000000000000000003929000866
:1000300075040008000000005926000891290008F6
:10004000430200084302000843020008430200087C
:10005000430200084302000843020008430200086C
:10006000430200084302000843020008430200085C
:10007000430200084302000843020008430200084C
:10008000430200084302000843020008430200083C
:10009000430200084302000843020008430200082C
:1000A000430200084302000843020008430200081C
:1000B000430200084302000843020008430200080C
:1000C00043020008430200084302000843020008FC
:1000D00043020008430200084302000843020008EC
:1000E00043020008430200084302000843020008DC
:1000F00043020008430200084302000843020008CC
:1001000043020008430200084302000843020008BB
:100110004302000843020008692A0008430200085D
:10012000430200084302000843020008430200089B
:10013000430200084302000843020008430200088B
:10014000430200084302000843020008430200087B
:10015000430200084302000843020008430200086B
:10016000430200084302000843020008430200085B
:100170004302000843020008430200080000000098
:10018000430200084302000800F002F800F03CF8C7
:100190000AA090E8000C82448344AAF10107DA45E2
:1001A00001D100F031F8AFF2090EBAE80F0013F0F8
:1001B000010F18BFFB1A43F001031847C42C0000BD
:1001C000E42C0000103A24BF78C878C1FAD852074E
:1001D00024BF30C830C144BF04680C6070470000C1
:1001E0000023002400250026103A28BF78C1FBD840
:1001F000520728BF30C148BF0B6070471FB502F0DF
:1002000029FE1FBD10B510BD00F0D0F81146FFF754
:10021000F5FF02F007FE00F0EEF803B4FFF7F2FF7F
:1002200003BC00F0F5F80000094880470948004782
:10023000FEE7FEE7FEE7FEE7FEE7FEE7FEE7FEE796
:10024000FEE7FEE704480549054A064B70470000F3
:10025000552A0008890100082801002028070020ED
:10026000280300202803002053EA020C00F06980D4
:100270002DE9F04B4FF00006002B1FBFB3FA83F5BA
:1002800003FA05F424FA05F65E4012BF1643B2FAEB
:1002900082F502FA05F4C5F120051EBF22FA05FC1D
:1002A00044EA0C04203556EA044C4FEA144418BFC3
:1002B000641C4FF000084FF00009904271EB030CF2
:1002C00039D3002919BFB1FA81F701FA07F6B0FA5C
:1002D00080F700FA07F6C7F120071EBF20FA07FCD7
:1002E00046EA0C062037B6FBF4FCA7EB0507103FE7
:1002F00007F01F0BCBF120062CFA06F60CFA0BFBCD
:1003000044BFB3460026202FA4BF5E464FF0000B2B
:100310005BEA060C08BF4FF0010B19EB0B0948EB29
:100320000608ABFB027C06FB02CC0BFB03CCC01B1C
:1003300071EB0C01C1E70B46024641464846BDE859
:10034000F08B13B5084318BF4FF0FF300146AFF3F1
:100350000080BDE81C4070474FF0000200B5134616
:1003600094469646203922BFA0E80C50A0E80C50D5
:10037000B1F12001BFF4F7AF090728BFA0E80C5086
:1003800048BF0CC05DF804EB890028BF40F8042B7F
:1003900008BF704748BF20F8022B11F0804F18BFEC
:1003A00000F8012B7047704770477047754600F0A2
:1003B0002BF8AE4605006946534620F007008546F7
:1003C00018B020B5FFF73EFFBDE820404FF0000613
:1003D0004FF000074FF000084FF0000BAC46ACE8C0
:1003E000C009ACE8C009ACE8C009ACE8C00921F01C
:1003F00007018D46704710B50446AFF300802046D4
:10040000BDE81040FFF709BF00487047100000200A
:1004100001491820ABBEFEE726000200704700002D
:1004200080B50020C4F202001021012200F026FA5B
:1004300080BD000080B50020C4F20200102100221F
:1004400000F01CFA80BD000080B540F20040C4F20C
:1004500002000122114600F011FA80BD80B540F281
:100460000040C4F202000121002200F007FA80BD22
:10047000FFE7FEE77047000072B6FFE7FEE7000007
:1004800080B584B0039000F011FA029003980190B7
:100490000198013048B1FFE740F20400C2F20000C9
:1004A0000178019808440190FFE7FFE700F0FEF9AA
:1004B0000299401A0199884201D2FFE7F6E704B099
:1004C00080BD00008EB00D900C9100200A90099024
:1004D00008900B90FFE70B980F2800F2CC81FFE704
:1004E0000B99012088400A900C9800680A990840EE
:1004F000099009980A99884240F0B881FFE70C9862
:10050000406800F00300012807D0FFE70C9840681E
:1005100000F0030002282FD1FFE70D9880680890B3
:100520000B984100032000FA01F1089888430890D5
:100530000C98C0680B99490000FA01F1089808432B
:10054000089008980D9988600D98406808900B995C
:10055000012000FA01F10898884308900C9840683F
:10056000C0F300100B9900FA01F1089808430890B5
:1005700008980D994860FFE70C98406800F0030068
:10058000032818D0FFE70D98C06808900B98410029
:10059000032000FA01F10898884308900C988068BD
:1005A0000B99490000FA01F108980843089008984F
:1005B0000D99C860FFE70C98406800F0030002281E
:1005C00026D1FFE70D980B996FF0030202EA510163
:1005D0000844006A08900B9800F0070081000F2083
:1005E00000FA01F10898884308900C9800690B996B
:1005F00001F00701890000FA01F10898084308900A
:1006000008980D990B9B02EA530211440862FFE718
:100610000D98006808900B984100032000FA01F142
:100620000898884308900C98406800F003000B99E4
:10063000490000FA01F108980843089008980D99BC
:1006400008600C9880798007002800F00E81FFE791
:10065000FFE70020079043F64400C4F2020001685F
:1006600041F480410160006800F4804007900798E1
:10067000FFE70B9820F0030043F60801C4F20101E4
:10068000405808900B9800F0030081000F2000FAFA
:1006900001F10898884308900D980021C4F20201E6
:1006A000884203D1FFE7002006905EE00D9840F2FB
:1006B0000041C4F20201884203D1FFE70120059006
:1006C00050E00D9840F60001C4F20201884203D1C7
:1006D000FFE70220049042E00D9840F60041C4F28A
:1006E0000201884203D1FFE70320039034E00D9814
:1006F00041F20001C4F20201884203D1FFE7042065
:10070000029026E00D9841F20041C4F202018842B5
:1007100003D1FFE70520019018E00D9841F6000194
:10072000C4F20201884203D1FFE7062000900AE0EC
:100730000D9941F60042C4F202020820914208BF1E
:1007400007200090FFE700980190FFE701980290D2
:10075000FFE702980390FFE703980490FFE70498EF
:100760000590FFE705980690FFE70698C0B20B9941
:1007700001F00301890000FA01F10898084308908C
:1007800008980B9921F0030143F60802C4F2010214
:10079000885043F60840C4F20100006808900999A7
:1007A0000898884308900C988079C006002805D5E1
:1007B000FFE70999089808430890FFE7089843F66F
:1007C0000841C4F20101086043F60C40C4F2010084
:1007D0000068089009990898884308900C988079D7
:1007E0008006002805D5FFE7099908980843089076
:1007F000FFE7089843F60C41C4F20101086043F694
:100800000440C4F2010000680890099908988843E0
:1008100008900C9880798007002805D5FFE7099992
:10082000089808430890FFE7089843F60441C4F28B
:100830000101086043F60040C4F20100006808901E
:1008400009990898884308900C988079C00728B1C6
:10085000FFE70999089808430890FFE7089843F6CE
:100860000041C4F201010860FFE7FFE7FFE70B98D2
:1008700001300B902FE60EB07047000082B001905F
:10088000ADF802108DF801209DF8010028B1FFE7B6
:10089000BDF802000199886105E0BDF8020000047E
:1008A00001998861FFE702B07047000040F2201014
:1008B000C2F200000068704740F20400C2F200007B
:1008C000027840F22011C2F200010868104408606A
:1008D0007047000080B543F60041C4F20201086889
:1008E00040F400700860086840F4806008600868A0
:1008F00040F480700860032000F08AF80F2000F0B8
:1009000005F800F03BF8002080BD000080B582B003
:10091000009040F20000C2F20000006840F20401C2
:10092000C2F200010A784FF47A71B1FBF2F1B0FB28
:10093000F1F001F0C1FA20B1FFE701208DF80700C6
:1009400018E000980F280DD8FFE700994FF0FF300E
:10095000002200F043F8009840F20801C2F20001C2
:10096000086003E001208DF8070003E000208DF807
:100970000700FFE79DF8070002B080BD82B0FFE7E7
:100980000020019043F64400C4F20200016841F4E3
:1009900080410160006800F4804001900198FFE709
:1009A000FFE70020009043F64000C4F20200016817
:1009B00041F080510160006800F080500090009884
:1009C000FFE702B07047000080B582B08DF80700E5
:1009D0009DF9070002F024F902B080BD80B586B011
:1009E0008DF81700049103920020029002F030F974
:1009F00002909DF91700019002980499039A01F062
:100A0000F5FD0146019802F02BF906B080BD00000B
:100A100080B582B00190019802F044F902B080BD27
:100A200080B584B002900191029820B9FFE70120BF
:100A30008DF80F0021E1019843F60041C4F2020154
:100A4000096801F00701884212D9FFE7019943F6CE
:100A50000040C4F202000170006800F00700019934
:100A6000884204D0FFE701208DF80F0005E1FFE781
:100A700002980078800700282AD5FFE702980078BE
:100A80004007002809D5FFE743F60801C4F2020138
:100A9000086840F4E0500860FFE70298007800071B
:100AA000002809D5FFE743F60801C4F202010868EF
:100AB00040F460400860FFE743F60801C4F2020119
:100AC000086820F0F000029A926810430860FFE77F
:100AD00002980078C00700286ED0FFE702984068AF
:100AE000012811D1FFE743F60000C4F202000068BC
:100AF00000F400310020B0EB514F04D1FFE701209A
:100B00008DF80F00B9E02CE002984068022805D06B
:100B1000FFE702984068032811D1FFE743F6000081
:100B2000C4F20200006800F000710020B0EB516FC9
:100B300004D1FFE701208DF80F009EE010E043F69E
:100B40000000C4F20200006800F002010020B0EBD7
:100B5000510F04D1FFE701208DF80F008DE0FFE772
:100B6000FFE743F60801C4F20201086820F0030021
:100B7000029A526810430860FFF798FE0090FFE762
:100B800043F60800C4F20200006800F00C0002996D
:100B90004968B0EB810F0ED0FFE7FFF787FE0099A1
:100BA000401A41F28931884204D3FFE703208DF8CF
:100BB0000F0062E0E4E7FFE7019843F60041C4F26A
:100BC0000201096801F00701884212D2FFE701998A
:100BD00043F60040C4F202000170006800F0070014
:100BE0000199884204D0FFE701208DF80F0044E00E
:100BF000FFE702980078400700280CD5FFE743F68E
:100C00000801C4F20201086820F4E050029AD26898
:100C100010430860FFE702980078000700280DD510
:100C2000FFE743F60801C4F20201086820F46040BF
:100C3000029A126940EAC2000860FFE700F022F859
:100C400043F60801C4F202010968C9B20A0942F672
:100C50006E61C0F60001895CC84040F20001C2F23A
:100C60000001086040F20800C2F200000068FFF7CF
:100C70004DFE00208DF80F00FFE79DF80F0004B037
:100C800080BD000080B586B00020059004900390E0
:100C9000029043F60800C4F20200006800F00C0065
:100CA0000146019140B1FFE7019804280AD0FFE70F
:100CB000019808280CD04FE042F20040C0F2F40046
:100CC00002904FE041F60030C0F2B700029049E0D8
:100CD00043F60400C4F20200016801F03F010591EF
:100CE00000684002002813D5FFE743F60400C4F271
:100CF00002000068C0F3881041F60031C0F2B7016D
:100D0000A0FB0101059A0023FFF7AEFA049012E060
:100D100043F60400C4F202000068C0F3881042F2F7
:100D20000041C0F2F401A0FB0101059A0023FFF786
:100D30009BFA0490FFE743F60400C4F20200006847
:100D400000F44031022000EBD13003900498039965
:100D5000B0FBF1F0029005E042F20040C0F2F40076
:100D60000290FFE7029806B080BD000080B586B013
:100D70000490049820B9FFE701208DF8170050E394
:100D800004980078C007002800F0A580FFE743F62C
:100D90000800C4F20200006800F00C00042813D020
:100DA000FFE743F60800C4F20200006800F00C0000
:100DB00008281ED1FFE743F60400C4F202000068D1
:100DC0004002002815D5FFE743F60000C4F20200F8
:100DD000006800F400310020B0EB514F08D0FFE76D
:100DE0000498406820B9FFE701208DF8170018E348
:100DF00070E0FFE704984068B0F5803F09D1FFE755
:100E000043F60001C4F20201086840F48030086033
:100E100020E004984068B0F5A02F0DD1FFE743F61D
:100E20000001C4F20201086840F4802008600868EC
:100E300040F4803008600CE043F60001C4F2020187
:100E4000086820F480300860086820F4802008607A
:100E5000FFE7FFE7FFE704984068E8B1FFE7FFF727
:100E600025FD0390FFE743F60000C4F2020000688E
:100E700000F400310020B0EB514F0CD1FFE7FFF739
:100E800015FD0399401A652804D3FFE703208DF868
:100E90001700C6E2E7E71CE0FFF708FD0390FFE755
:100EA00043F60000C4F20200006800F400310020A4
:100EB000B0EB514F0CD0FFE7FFF7F8FC0399401A55
:100EC000652804D3FFE703208DF81700A9E2E7E7C0
:100ED000FFE7FFE7FFE7049800788007002840F16C
:100EE0009680FFE743F60800C4F20200006810F0A5
:100EF0000C0F13D0FFE743F60800C4F202000068AD
:100F000000F00C0008282CD1FFE743F60400C4F2DF
:100F1000020000684002002823D4FFE743F60000E7
:100F2000C4F20200006800F002010020B0EB510F93
:100F300009D0FFE70498C068012804D0FFE701202A
:100F40008DF817006DE243F60001C4F20201086853
:100F500020F0F800049A126940EAC2000860FFE736
:100F600054E00498C06870B3FFE70021C4F2472141
:100F700001200860FFF79AFC0390FFE743F60000AA
:100F8000C4F20200006800F002010020B0EB510F33
:100F90000CD1FFE7FFF78AFC0399401A032804D31A
:100FA000FFE703208DF817003BE2E7E743F6000177
:100FB000C4F20201086820F0F800049A126940EABD
:100FC000C200086021E00021C4F24721002008602F
:100FD000FFF76CFC0390FFE743F60000C4F2020049
:100FE000006800F002010020B0EB510F0CD0FFE7C9
:100FF000FFF75CFC0399401A032804D3FFE70320A2
:101000008DF817000DE2E7E7FFE7FFE7FFE7049839
:101010000078000700284BD5FFE70498406918B313
:10102000FFE740F68061C4F2472101200860FFF726
:101030003DFC0390FFE743F67400C4F20200006831
:1010400000F002010020B0EB510F0CD1FFE7FFF7D9
:101050002DFC0399401A032804D3FFE703208DF8E1
:101060001700DEE1E7E722E040F68061C4F24721A5
:1010700000200860FFF71AFC0390FFE743F67400B6
:10108000C4F20200006800F002010020B0EB510F32
:101090000CD0FFE7FFF70AFC0399401A032804D39A
:1010A000FFE703208DF81700BBE1E7E7FFE7FFE765
:1010B000049800784007002840F1CE80FFE7002028
:1010C0008DF8070043F64000C4F202000068C0003B
:1010D000002815D4FFE7FFE70020009043F640000A
:1010E000C4F20200016841F080510160006800F024
:1010F000805000900098FFE701208DF80700FFE77F
:1011000047F20000C4F200000068C005002822D4A5
:10111000FFE747F20001C4F20001086840F4807064
:101120000860FFF7C3FB0390FFE747F20000C4F23B
:1011300000000068C00500280CD4FFE7FFF7B6FBED
:101140000399401A032804D3FFE703208DF8170002
:1011500067E1EAE7FFE7FFE704988068012809D123
:10116000FFE743F67001C4F20201086840F0010095
:1011700008601FE00498806805280DD1FFE743F65A
:101180007001C4F20201086840F0040008600868B9
:1011900040F0010008600CE043F67001C4F2020167
:1011A000086820F001000860086820F0040008606A
:1011B000FFE7FFE7FFE704988068F8B1FFE7FFF774
:1011C00075FB0390FFE743F67000C4F2020000686D
:1011D00000F002010020B0EB510F0ED1FFE7FFF746
:1011E00065FB0399401A41F28931884204D3FFE735
:1011F00003208DF8170014E1E5E71EE0FFF756FB2A
:101200000390FFE743F67000C4F20200006800F0AC
:1012100002010020B0EB510F0ED0FFE7FFF746FBB5
:101220000399401A41F28931884204D3FFE7032031
:101230008DF81700F5E0E5E7FFE79DF807000128C6
:1012400009D1FFE743F64001C4F20201086820F02B
:1012500080500860FFE7FFE704988069002800F0ED
:10126000DC80FFE743F60800C4F20200006800F0EB
:101270000C00082800F08580FFE7049880690228A8
:101280005CD1FFE76021C4F2472100200860FFF72E
:101290000DFB0390FFE743F60000C4F20200006874
:1012A00000F000710020B0EB516F0CD0FFE7FFF7AA
:1012B000FDFA0399401A032804D3FFE703208DF8B1
:1012C0001700AEE0E7E70499C869D1F820C04B6A7F
:1012D0008A6A40EA0C0040EA8310D2034FF6FF739B
:1012E0009A43A2F580321043C96A40EA016043F68E
:1012F0000401C4F2020108606021C4F24721012008
:101300000860FFF7D3FA0390FFE743F60000C4F24A
:101310000200006800F000710020B0EB516F0CD1AA
:10132000FFE7FFF7C3FA0399401A032804D3FFE746
:1013300003208DF8170074E0E7E721E06021C4F294
:10134000472100200860FFF7B1FA0390FFE743F65A
:101350000000C4F20200006800F000710020B0EB51
:10136000516F0CD0FFE7FFF7A1FA0399401A032849
:1013700004D3FFE703208DF8170052E0E7E7FFE70B
:101380004AE004988069012804D1FFE701208DF824
:10139000170046E043F60400C4F202000068029021
:1013A00004988069012831D0FFE7029800F480009A
:1013B0000499C969884229D1FFE7029800F03F00EB
:1013C0000499096A884221D1FFE7029847F6C07163
:1013D00008400499496AB0EB811F17D1FFE70298D2
:1013E00000F440300499896AC9034FF6FF729143B3
:1013F000A1F58031884209D1FFE7029800F07060C2
:101400000499C96AB0EB016F04D0FFE701208DF8A1
:10141000170006E0FFE7FFE7FFE700208DF8170061
:10142000FFE79DF8170006B080BD000081B0009076
:10143000009890F8510001B07047000080B584B06A
:101440000290029820B9FFE701208DF80F0071E0AB
:101450000298406A60B9FFE702984068B0F5827F61
:1014600001D1FFE703E002990020C861FFE705E032
:1014700002990020086102994861FFE70299002063
:101480008862029890F8510040B9FFE70299002065
:1014900081F85000029800F051F8FFE7029902200D
:1014A00081F8510002980168086820F04000086047
:1014B000029A019211685068D2F808C0D36800F40B
:1014C00082700CF4044C604403F400631844136904
:1014D00003F002031844536903F0010318449369AD
:1014E00003F400731844D36903F038031844136AF3
:1014F00003F080031843926A02F40052104308601C
:10150000029A508B00F004001168526A02F0100237
:101510001044486002980168C86920F40060C861FE
:10152000029900204865029A012182F851108DF835
:101530000F00FFE79DF80F0004B080BD80B58EB0AE
:101540000D9000200C900B900A90099008900D9837
:10155000006843F20001C4F2010188425ED1FFE756
:10156000FFE70020079043F64400C4F20200016840
:1015700041F480510160006800F4805007900798A2
:10158000FFE7FFE70020069043F63000C4F20200B8
:10159000016841F002010160006800F0020006905D
:1015A0000698FFE7FFE70020059043F63000C4F2FD
:1015B0000200016841F001010160006800F00100D3
:1015C00005900598FFE718200890022000900990E8
:1015D000002001900A90032002900B9005200390B8
:1015E0000C9040F20040C4F2020008A90491FEF7FA
:1015F00069FFDDF800C0019B029A039804994FF03F
:10160000800ECDF820E0CDF824C00A930B920C9008
:101610000020C4F20200FEF755FFFFE70EB080BDC8
:1016200080B588B006900591ADF812200393069816
:1016300090F85100012804D0FFE702208DF81F0028
:1016400011E1059820B1FFE7BDF8120020B9FFE7CE
:1016500001208DF81F0006E106984068B0F5827FF2
:1016600016D1FFE70698806890B9FFE70699042035
:1016700081F851000698059ABDF812300399EC469E
:10168000CCF80010114600F045FA8DF81F00EAE092
:10169000FFF70CF90290FFE7069890F85000012838
:1016A00004D1FFE702208DF81F00DCE0069901203D
:1016B00081F85000FFE7FFE70699042081F8510008
:1016C0000699002048650599069A9163BDF81210A5
:1016D000069A9187BDF81210069AD1870699086379
:1016E000069988860699C88606990864069948640A
:1016F00006988068B0F5004F0DD1FFE706980168A5
:10170000086820F04000086006980168086820F426
:1017100080400860FFE706980068006800F040001D
:10172000402807D0FFE706980168086840F04000AD
:101730000860FFE70698C068D0BBFFE7FFE70698A0
:10174000C08FA0B3FFE7069800688068C00778B133
:10175000FFE706980068007B0699896B0870069978
:10176000886B013088630699C88F0138C8871DE0EF
:10177000FFF79CF80299401A0399884204D3FFE7C7
:101780000398013018B9FFE7039870B9FFE706998D
:10179000012081F85100FFE70699002081F85000F0
:1017A000FFE703208DF81F005DE0FFE7C7E739E0A2
:1017B000FFE70698C08FA0B3FFE70698006880682F
:1017C000C00778B1FFE706980068C0680699896B82
:1017D00008800699886B023088630699C88F0138A3
:1017E000C8871DE0FFF762F80299401A0399884202
:1017F00004D3FFE70398013018B9FFE7039870B9E5
:10180000FFE70699012081F85100FFE706990020C3
:1018100081F85000FFE703208DF81F0023E0FFE769
:10182000C7E7FFE706980399029A00F017FF20B177
:10183000FFE7069920204865FFE70699012081F817
:101840005100FFE70699002081F85000FFE7069855
:10185000406D20B1FFE701208DF81F0003E000205C
:101860008DF81F00FFE79DF81F0008B080BD000045
:1018700080B588B006900591ADF812200393FFF76C
:1018800015F80290BDF81200ADF80600069890F821
:101890005100012804D0FFE702208DF81F0034E139
:1018A000059820B1FFE7BDF8120020B9FFE701203D
:1018B0008DF81F0029E1FFE7069890F850000128F5
:1018C00004D1FFE702208DF81F001EE106990120D8
:1018D00081F85000FFE7FFE70699032081F85100E7
:1018E0000699002048650599069A1163BDF8121003
:1018F000069A9186BDF81210069AD18606998863D9
:10190000069988870699C8870699486406990864E5
:1019100006988068B0F5004F0DD1FFE70698016882
:10192000086820F04000086006980168086840F4E4
:1019300080400860FFE706980068006800F04000FB
:10194000402807D0FFE706980168086840F040008B
:101950000860FFE70698C068B0F5006F51D1FFE757
:101960000698406828B1FFE7BDF8060001280ED1AF
:10197000FFE706980168006B0088C8600699086B4D
:10198000023008630699C88E0138C886FFE7FFE772
:101990000698C08EA0B3FFE70698006880688007AD
:1019A00000280ED5FFE706980168006B0088C86024
:1019B0000699086B023008630699C88E0138C886FC
:1019C0001DE0FEF773FF0299401A0399884204D381
:1019D000FFE70398013018B9FFE7039870B9FFE7F4
:1019E0000699012081F85100FFE70699002081F84F
:1019F0005000FFE703208DF81F0086E0FFE7C7E7F0
:101A000050E00698406828B1FFE7BDF806000128BD
:101A10000ED1FFE706980168006B007808730699FD
:101A2000086B013008630699C88E0138C886FFE745
:101A3000FFE70698C08EA0B3FFE7069800688068AD
:101A4000800700280ED5FFE706980168006B007834
:101A500008730699086B013008630699C88E01382F
:101A6000C8861DE0FEF722FF0299401A03998842BA
:101A700004D3FFE70398013018B9FFE7039870B962
:101A8000FFE70699012081F85100FFE70699002041
:101A900081F85000FFE703208DF81F0035E0FFE7D5
:101AA000C7E7FFE706980399029A00F049FE20B1C4
:101AB000FFE7069920204865FFE70698806870B91F
:101AC000FFE7FFE70020009006980068C0680090DC
:101AD00006980068806800900098FFE7FFE7069985
:101AE000012081F85100FFE70699002081F850009D
:101AF000FFE70698406D20B1FFE701208DF81F0039
:101B000003E000208DF81F00FFE79DF81F0008B0DC
:101B100080BD000080B58CB0DDF838C00A90099116
:101B20000892ADF81E3001200390FEF7BFFE04902E
:101B30000A9890F851008DF817000A9840680690AE
:101B4000BDF81E00ADF81C009DF81700012812D04A
:101B5000FFE70698B0F5827F09D1FFE70A98806811
:101B600028B9FFE79DF81700042804D0FFE70220FA
:101B70008DF82F009BE1099838B1FFE7089820B154
:101B8000FFE7BDF81E0020B9FFE701208DF82F0008
:101B90008DE1FFE70A9890F85000012804D1FFE793
:101BA00002208DF82F0082E10A99012081F850006F
:101BB000FFE7FFE70A9890F85100042805D0FFE7F7
:101BC0000A99052081F85100FFE70A99002048652D
:101BD00008990A9A9163BDF81E100A9AD187BDF838
:101BE0001E100A9A918709990A9A1163BDF81E106E
:101BF0000A9AD186BDF81E100A9A91860A9908643D
:101C00000A9948640A980068006800F0400040287B
:101C100007D0FFE70A980168086840F040000860B4
:101C2000FFE70A98C068B0F5006F40F08180FFE7D9
:101C30000A98406828B1FFE7BDF81C0001280ED1C2
:101C4000FFE70A980168006B0088C8600A99086B72
:101C5000023008630A99C88E0138C886FFE7FFE79B
:101C60000A98C18E0120019039B9FFE70A98C08F08
:101C7000002818BF01200190FFE70198C007002845
:101C800055D0FFE70A98006880688007002818D5BB
:101C9000FFE70A98C08EA0B1FFE70398012810D192
:101CA000FFE70A980168006B0088C8600A99086B12
:101CB000023008630A99C88E0138C8860020039054
:101CC000FFE70A9800688068C007A8B1FFE70A9894
:101CD000C08F88B1FFE70A980068C0680A99896BCD
:101CE00008800A99886B023088630A99C88F013886
:101CF000C88701200390FFE7FEF7D8FD0499401A3A
:101D00000E99884212D3FFE70E98013070B1FFE7B9
:101D10000A99012081F85100FFE70A99002081F813
:101D20005000FFE703208DF82F00C0E098E782E025
:101D30000A98406828B1FFE7BDF81C0001280ED1C1
:101D4000FFE70A980168006B007808730A99086B2E
:101D5000013008630A99C88E0138C886FFE7FFE79B
:101D60000A98C18E0120009039B9FFE70A98C08F08
:101D7000002818BF01200090FFE70098C007002846
:101D800058D0FFE70A98006880688007002818D5B7
:101D9000FFE70A98C08EA0B1FFE70398012810D191
:101DA000FFE70A980168006B007808730A99086BCE
:101DB000013008630A99C88E0138C8860020039054
:101DC000FFE70A9800688068C007A8B1FFE70A9893
:101DD000C08F88B1FFE70A980068C0680A99896BCC
:101DE00008700A99886B013088630A99C88F013896
:101DF000C88701200390FFE7FEF758FD0499401AB9
:101E00000E99884204D3FFE70E98013018B9FFE716
:101E10000E9870B9FFE70A99012081F85100FFE799
:101E20000A99002081F85000FFE703208DF82F0069
:101E30003DE095E7FFE70A980E99049A00F080FCD0
:101E400068B1FFE70A9920204865FFE70A9900205A
:101E500081F85000FFE701208DF82F0027E00A9855
:101E6000806870B9FFE7FFE7002002900A980068D9
:101E7000C06802900A980068806802900298FFE7A4
:101E8000FFE70A99012081F85100FFE70A99002035
:101E900081F85000FFE70A98406D20B1FFE701206C
:101EA0008DF82F0003E000208DF82F00FFE79DF84C
:101EB0002F000CB080BD000080B582B00190019869
:101EC00000F03CFD02B080BD81B0009001B07047D1
:101ED00081B0009001B0704785B003900291FFE798
:101EE000039890F83C00012804D1FFE702208DF808
:101EF00013007EE00399012081F83C00FFE7FFE733
:101F00000399022081F83D00039800684068019021
:101F10000398006880680090019820F0700001909C
:101F20000298016801980843019001980399096893
:101F30004860039800680021C4F2010188423CD047
:101F4000FFE703980068B0F1804F36D0FFE70398B1
:101F5000006840F20041C4F2000188422DD0FFE742
:101F60000398006840F60001C4F20001884224D0C2
:101F7000FFE70398006840F60041C4F20001884280
:101F80001BD0FFE70398006840F20041C4F2010152
:101F9000884212D0FFE70398006844F20001C4F2BF
:101FA0000101884209D0FFE70398006841F600016B
:101FB000C4F2000188420ED1FFE7009820F08000B3
:101FC0000090029841680098084300900098039997
:101FD00009688860FFE70399012081F83D00FFE769
:101FE0000399002081F83C00FFE700208DF81300E2
:101FF000FFE79DF8130005B07047000080B582B080
:102000000090009820B9FFE701208DF807003FE01D
:10201000009890F83D0040B9FFE70099002081F852
:102020003C00009800F038F8FFE70099022081F8A2
:102030003D00009951F8040B00F01EFD00990120AD
:1020400081F84600FFE70099012081F83E000099E1
:1020500081F83F00009981F84000009981F8410023
:10206000FFE7FFE70099012081F84200009981F81D
:102070004300009981F84400009981F84500FFE78A
:102080000099012081F83D0000208DF80700FFE74E
:102090009DF8070002B080BD80B584B0039003981E
:1020A000006841F20001C4F2000188421BD1FFE741
:1020B000FFE70020029043F64000C4F202000168EE
:1020C00041F010010160006800F0100002900298D9
:1020D000FFE73620019000221146FEF77FFC0198B1
:1020E000FEF772FCFFE704B080BD000083B00190F2
:1020F000019890F83D00012804D0FFE701208DF8F9
:102100000B006AE00199022081F83D000198016806
:10211000C86840F00100C860019800680021C4F25E
:10212000010188423CD0FFE701980068B0F1804F80
:1021300036D0FFE70198006840F20041C4F2000188
:1021400088422DD0FFE70198006840F60001C4F2F4
:102150000001884224D0FFE70198006840F6004162
:10216000C4F2000188421BD0FFE70198006840F2EA
:102170000041C4F20101884212D0FFE701980068D3
:1021800044F20001C4F20101884209D0FFE701983E
:10219000006841F60001C4F20001884212D1FFE755
:1021A00001980068806800F00700009000980628F9
:1021B00007D0FFE701980168086840F00100086057
:1021C000FFE706E001980168086840F00100086038
:1021D000FFE700208DF80B00FFE79DF80B0003B030
:1021E0007047000081B0009001B0704780B584B0A6
:1021F000039003980068C068029003980068006923
:1022000001909DF804008007002824D5FFE79DF881
:102210000800800700281DD5FFE7039801686FF0CC
:10222000020008610399012008770398006880691B
:10223000800720B1FFE70398FFF7D4FF06E003987B
:1022400000F0E2F8039800F0E3F8FFE703990020BC
:102250000877FFE7FFE79DF804004007002825D531
:10226000FFE79DF80800400700281ED5FFE7039808
:1022700001686FF004000861039902200877039851
:102280000068806910F4407F04D0FFE70398FFF7EF
:10229000A9FF06E0039800F0B7F8039800F0B8F83B
:1022A000FFE7039900200877FFE7FFE79DF80400A8
:1022B0000007002824D5FFE79DF808000007002844
:1022C0001DD5FFE7039801686FF0080008610399C6
:1022D0000420087703980068C069800720B1FFE7F1
:1022E0000398FFF77FFF06E0039800F08DF803984E
:1022F00000F08EF8FFE7039900200877FFE7FFE77B
:102300009DF80400C006002825D5FFE79DF80800C9
:10231000C00600281ED5FFE7039801686FF0100083
:10232000086103990820087703980068C06910F4D1
:10233000407F04D0FFE70398FFF754FF06E00398BF
:1023400000F062F8039800F063F8FFE703990020BB
:102350000877FFE7FFE79DF80400C00778B1FFE7C3
:102360009DF80800C00748B1FFE7039801686FF0C7
:1023700001000861039800F04FF8FFE7FFE79DF8C0
:1023800004000006002810D5FFE79DF808000006AD
:10239000002809D5FFE7039801686FF08000086105
:1023A0000398FFF791FDFFE7FFE79DF80400400663
:1023B000002810D5FFE79DF808004006002809D541
:1023C000FFE7039801686FF040000861039800F090
:1023D00043F8FFE7FFE79DF804008006002810D5CA
:1023E000FFE79DF808008006002809D5FFE703985D
:1023F00001686FF0200008610398FFF769FDFFE7AF
:10240000FFE704B080BD000081B0009001B07047CC
:1024100081B0009001B0704780B582B00190019802
:1024200040F2C801C2F20001884212D1FFE740F237
:102430001011C2F2000112200622009200F050FC9E
:10244000009A40F21711C2F20001022000F064FC71
:10245000FFE702B080BD000081B0009001B070477E
:10246000FFE7FEE780B58EB000200D900C900B903A
:102470000A900990FFE70020089043F63000C4F26C
:102480000200016841F002010160006800F00200F2
:1024900008900898FFE7FFE70020079043F6300018
:1024A000C4F20200016841F001010160006800F01F
:1024B000010007900798FFE7FFE70020069043F62A
:1024C0003000C4F20200016841F080010160006840
:1024D00000F0800006900698FFE70020C4F202009A
:1024E00001901021009101220292FEF7C7F9029A91
:1024F00040F20040C4F2020004901146FEF7BEF91B
:10250000009A0198029909920A910B910221039174
:102510000C9109A90591FDF7D5FF029B039A049838
:10252000059909930A930B930C92FDF7CBFF0EB01C
:1025300080BD000080B582B040F27000C2F20000A1
:10254000019043F20001C4F2010101604FF4827175
:10255000416000218160C16002220261012242616A
:102560004FF4007282613822C2610162416281626D
:102570000A21C162FEF762FF18B1FFE7FDF77CFF99
:10258000FFE702B080BD000080B582B0002101915C
:10259000009140F2C800C2F2000041F20002C4F211
:1025A000000202601B224260816040F6B732C260C6
:1025B0008161FFF723FD18B1FFE7FDF75DFFFFE73E
:1025C00000200090019040F2C800C2F2000069466D
:1025D000FFF782FC18B1FFE7FDF74EFFFFE702B0FF
:1025E00080BD0000FFE7FEE7FFE7FEE788B0079049
:1025F00006910592079800F0070004900498C0F136
:102600000700052803D3FFE70420019004E00498A5
:10261000C0F107000190FFE701980390049804308F
:10262000062803D8FFE70020009003E00498033851
:102630000090FFE70098029006980399012202FAA1
:1026400001F101390840029B984005999A40013AEE
:102650001140084308B070477047000080B586B04D
:1026600004900391029204984068B0F5827F13D1E0
:10267000FFE704988068B0F5004F06D0FFE70498A4
:102680008068B0F5806F07D1FFE70498016808689B
:1026900020F040000860FFE704984068B0F5827FB2
:1026A00031D1FFE704988068B0F5806F15D0FFE75F
:1026B0000498039B02996A4611608021002200F071
:1026C000A5F848B1FFE70499486D40F0200048653F
:1026D00003208DF817002FE014E00498039B029963
:1026E0006A4611600121002200F090F848B1FFE72E
:1026F0000499486D40F02000486503208DF81700CC
:102700001AE0FFE714E00498039B02996A461160FF
:102710000121002200F07AF848B1FFE70499486DE2
:1027200040F02000486503208DF8170004E0FFE723
:1027300000208DF81700FFE79DF8170006B080BD58
:1027400080B586B00490039102920498039B02998D
:102750006A4611600221012200F058F848B1FFE7F3
:102760000499486D40F02000486503208DF817005B
:1027700048E040F20000C2F2000000684AF6AB21D7
:10278000CAF6AA21A0FB011000094DF68361C4F22C
:102790001B31A0FB0110800C4FF47A71484301906B
:1027A00004984068B0F5827F15D1FFE70498039B39
:1027B00002996A4611608021002200F027F848B192
:1027C000FFE70499486D40F02000486503208DF82C
:1027D000170017E012E0FFE7019808B9FFE70CE0E7
:1027E000019801380190FFE7049800688068C1B241
:1027F0000020B0EBD11FEFD1FFE7FFE700208DF8FD
:102800001700FFE79DF8170006B080BD80B58AB0BD
:10281000DDF830C0089007918DF81B2005930598CE
:102820000190FEF743F8024601980C99891A084472
:102830000390FEF73BF80290039840F20001C2F2C9
:1028400000010968C1F3CB3148430490FFE70898C1
:102850000068806807990840401AB0FA80F0400983
:102860009DF81B1088425FD0FFE7059801300028D3
:1028700059D0FFE7FEF71AF80299401A03998842E7
:1028800004D2FFE70398002842D1FFE708980168C7
:10289000486820F0E000486008984068B0F5827F02
:1028A00013D1FFE708988068B0F5004F06D0FFE726
:1028B00008988068B0F5806F07D1FFE70898016835
:1028C000086820F040000860FFE70898806AB0F5CB
:1028D000005F0FD1FFE7FFE708980168086820F460
:1028E0000050086008980168086840F400500860CB
:1028F000FFE7FFE70899012081F85100FFE70899F9
:10290000002081F85000FFE703208DF827000FE03A
:10291000049818B9FFE70020039003E004980138F9
:102920000490FFE7FFE792E700208DF82700FFE71C
:102930009DF827000AB080BD7047000080B582B0C6
:10294000009000980138B0F1807F03D3FFE70120A9
:10295000019019E0009801384EF21401CEF2000106
:1029600008604FF0FF300F2100F07AF94EF21801A5
:10297000CEF20001002008604EF21002CEF20002FA
:10298000072111600190FFE7019802B080BD0000AF
:1029900080B5FDF791FF80BD80B594B008A83021C7
:1029A000FDF7DAFC00200790069005900490039054
:1029B000FFE70020029043F64000C4F202000168E5
:1029C00041F080510160006800F080500290029850
:1029D000FFE7FFE70020019047F20000C4F200008B
:1029E000016841F480410160006800F4804001907A
:1029F0000198FFE7012008904FF4803009900220F1
:102A00000E904FF480010F9106211091A821119191
:102A100012900420139008A8FEF7A8F918B1FFE758
:102A2000FDF72AFDFFE70F2003900220049000200D
:102A300005904FF4A05006904FF48050079003A8E3
:102A40000521FDF7EDFF18B1FFE7FDF715FDFFE7E5
:102A500014B080BD4EF68851CEF20001086840F4F3
:102A6000700008607047000080B540F2C800C2F2F4
:102A70000000FFF7BBFB80BD83B00290019102987C
:102A80000068009002980021C4F20101884225D01C
:102A9000FFE70298B0F1804F20D0FFE7029840F2A4
:102AA0000041C4F20001884218D0FFE7029840F6C6
:102AB0000001C4F20001884210D0FFE7029840F6FE
:102AC0000041C4F20001884208D0FFE7029840F2BA
:102AD0000041C4F2010188420AD1FFE7009820F0CA
:102AE0007000009001984168009808430090FFE74B
:102AF00002980021C4F20101884255D0FFE70298F4
:102B0000B0F1804F50D0FFE7029840F20041C4F28C
:102B10000001884248D0FFE7029840F60001C4F265
:102B20000001884240D0FFE7029840F60041C4F21D
:102B30000001884238D0FFE7029840F20041C4F219
:102B40000101884230D0FFE7029844F20001C4F24C
:102B50000101884228D0FFE7029844F20041C4F204
:102B60000101884220D0FFE7029844F60001C4F238
:102B70000101884218D0FFE7029841F60001C4F233
:102B80000001884210D0FFE7029841F60041C4F2EC
:102B90000001884208D0FFE7029842F20001C4F227
:102BA000000188420AD1FFE7009820F440700090AD
:102BB0000198C168009808430090FFE7009820F052
:102BC0008000019949690843009001988068029942
:102BD000C862019800680299886202980021C4F2D4
:102BE0000101884208D0FFE7029840F20041C4F298
:102BF0000101884205D1FFE7019800690299086345
:102C0000FFE70299086840F004000860029901207B
:102C1000486100980299086003B07047FFE7FEE73B
:102C200081B08DF803009DF9030000280ED4FFE762
:102C30009DF9031001F01F02012090404A094EF255
:102C40000011CEF2000141F82200FFE701B0704709
:102C50004EF60C50CEF200000068C0F30220704720
:102C600082B08DF8070000919DF9070000280AD472
:102C7000FFE7009800019DF907104EF20042CEF2E6
:102C8000000288540BE0009800019DF8071001F045
:102C90000F014EF61452CEF200028854FFE702B044
:102CA0007047000083B00290029800F00700009087
:102CB0004EF60C51CEF200010868019001984FF6D3
:102CC000FF02104001900198009A40EA0220002281
:102CD000C0F2FA52104301900198086003B07047A7
:102CE00080B584B08DF80F0002918DF80720FDF7B4
:102CF000ABFBFDF79FFB9DF80F0040F0800000F05C
:102D00006DF802989DF807100131C9B200F048F83B
:102D1000FDF786FB04B080BD80B584B08DF80F0050
:102D200002918DF80720FDF77BFBFDF797FB9DF8DF
:102D30000F0040F0800000F051F802989DF8071055
:102D400000F02EF8FDF780FB04B080BD80B582B0A6
:102D5000FDF770FB7E20B621009100F051F80120B4
:102D60000190FDF78DFBFDF75BFBFDF777FB00990D
:102D7000142000F045F81E20FDF782FBFDF764FBF0
:102D8000FDF758FB0198FDF77BFB7D20042100F047
:102D900037F80198FDF774FBFDF742FB02B080BDE8
:102DA00080B582B001908DF8031001999DF8032041
:102DB00040F27000C2F200004FF47A73FEF730FC6C
:102DC000FFE740F27000C2F20000FEF72FFB04287C
:102DD00001D1FFE7F5E702B080BD000080B582B009
:102DE0008DF8070040F27000C2F200000DF10701FB
:102DF00001224FF47A73FEF73BFD02B080BD000064
:102E000080B582B08DF807008DF806109DF8070098
:102E100000F07F00FFF7E2FF9DF80600FFF7DEFFFE
:102E200002B080BD80B582B000200190FDF752FD58
:102E3000FFF7B2FDFFF716FBFFF77CFBFFF7A4FBE4
:102E4000FFF784FF40F2C800C2F20000FFF74EF91E
:102E5000FFE7FEE7F1EE100A4FF6FF71C0F2C03156
:102E600020EA010040F04070E1EE100A70470000D7
:102E7000000000000000010203040607080900002A
:102E8000A02E00080000002010000000C40100086F
:102E9000B02E00081000002018070000E001000814
:102EA0000024F400010000001000000000000000F9
:040000050800018965
:00000001FF
